:100000000C9462000C948A000C948A000C948A0070
:100010000C948A000C948A000C948A000C948A0038
:100020000C948A000C948A000C948A000C94B604F8
:100030000C948A000C948A000C948A000C948A0018
:100040000C946C040C948A000C948A000C948A0022
:100050000C948A000C948A000C948A000C948A00F8
:100060000C948A000C948A000000000024002700F1
:100070002A0000000000250028002B0000000000DE
:1000800023002600290004040404040404040202DA
:100090000202020203030303030301020408102007
:1000A0004080010204081020010204081020000012
:1000B0000008000201000003040700000000000027
:1000C0000000F00711241FBECFEFD8E0DEBFCDBF88
:1000D00011E0A0E0B1E0E4EFF1E102C005900D9283
:1000E000AE36B107D9F722E0AEE6B1E001C01D920D
:1000F000A033B207E1F710E0C2E6D0E004C02197D8
:10010000FE010E94F208C136D107C9F70E947205AC
:100110000C94F8080C9400008F929F92AF92BF92BB
:10012000FF920F931F93CF93DF93F09015022BE074
:100130002F1508F44CC02091170208E512E0021BAD
:10014000110927FD1395000F111F000F111F20919A
:100150001602C8E8D0E0C21BD10927FDD395CC0F09
:10016000DD1FCC0FDD1F4E010D2E000CAA08BB08B1
:100170009801012E000C440B550B281939094A0926
:100180005B09DC010E94AD0824EB30E040E050E068
:100190000E948308820E931EA41EB51E8C169D0617
:1001A0002CF0E801801691060CF4E4012297CC0FA4
:1001B000DD1F2FB7F8948F2D90E0FC01EE0FFF1F8D
:1001C000E80FF91FEF50FE4FD283C1832FBFDF919D
:1001D000CF911F910F91FF90BF90AF909F908F9004
:1001E000089596E0899FD0011124AE57BE4F909696
:1001F0007C936E935F9791E091969C939197E09199
:10020000EF01F091F0019091EE01992339F03097D0
:1002100051F0811108C080919E010994309719F026
:100220005C968C91FACF0895CF92DF92EF92FF9275
:100230000F931F9396E0899FF0011124EE57FE4F14
:1002400011A2278D30A12130310551F178F02230F3
:10025000310509F451C02330310509F452C01F9112
:100260000F91FF90EF90DF90CF9008956623B9F340
:1002700061E070E00E94F1002FB7F89480917E0158
:1002800090917F01A0918001B09181012FBF809357
:10029000DA019093DB01A093DC01B093DD01DFCFA5
:1002A0009FB7F894C0907E01D0907F01E0908001CC
:1002B000F09081019FBF0091DA011091DB01209144
:1002C000DC013091DD01C01AD10AE20AF30A009183
:1002D000EC011091ED0130E020E00C151D052E051C
:1002E0003F0550F462E070E01F910F91FF90EF9096
:1002F000DF90CF900C94F1006111B1CF63E070E01A
:10030000F3CF70E060E0F0CFAF92BF92CF92DF9278
:10031000EF92FF920F931F93CF93DF936C017B01BA
:100320008B01040F151FEB015E01AE18BF08C0174B
:10033000D10759F06991D601ED91FC910190F081BE
:10034000E02DC6010995892B79F7C501DF91CF9181
:100350001F910F91FF90EF90DF90CF90BF90AF90E3
:100360000895833081F028F4813099F08230A9F02B
:1003700008958730A9F08830C9F08430B1F48091B5
:1003800080008F7D03C0809180008F7780938000F4
:10039000089584B58F7784BD089584B58F7DFBCF94
:1003A0008091B0008F778093B00008958091B00065
:1003B0008F7DF9CFCF93DF93282F30E0F901E255FD
:1003C000FF4F8491F901E656FF4FD491F901EA57A6
:1003D000FF4FC491CC23A1F081110E94B101EC2FF9
:1003E000F0E0EE0FFF1FE458FF4FA591B491EC91A0
:1003F000ED2381E090E009F480E0DF91CF91089552
:1004000080E090E0FACF862F0C94DA011F93CF930F
:10041000DF93282F30E0F901E255FF4F8491F90175
:10042000E656FF4FD491F901EA57FF4FC491CC2310
:10043000A9F0162F81110E94B101EC2FF0E0EE0F10
:10044000FF1FEE58FF4FA591B4918FB7F894EC9130
:10045000111108C0D095DE23DC938FBFDF91CF91BF
:100460001F910895DE2BF8CF862F642F0C9406027F
:10047000CF93DF9390E0FC01E656FF4F24918A571B
:100480009F4FFC0184918823C9F090E0880F991F49
:10049000FC01E859FF4FA591B491FC01EE58FF4FC4
:1004A000C591D49161110DC09FB7F8948C9120959E
:1004B00082238C938881282328839FBFDF91CF914B
:1004C0000895623051F49FB7F8943C91822F809543
:1004D00083238C93E8812E2BEFCF8FB7F894EC9188
:1004E0002E2B2C938FBFEACF862F642F0C943802CB
:1004F0003FB7F8948091710190917201A0917301BE
:10050000B091740126B5A89B05C02F3F19F0019644
:10051000A11DB11D3FBFBA2FA92F982F8827BC015D
:10052000CD01620F711D811D911D42E0660F771F85
:10053000881F991F4A95D1F708958F929F92AF9285
:10054000BF92CF92DF92EF92FF920E9478024B010E
:100550005C0184EFC82EDD24D394E12CF12C0E94A1
:100560007802681979098A099B09683E73408105F8
:100570009105A8F321E0C21AD108E108F10888EE3C
:10058000880E83E0981EA11CB11CC114D104E104A3
:10059000F10429F7FF90EF90DF90CF90BF90AF90DC
:1005A0009F908F900895089590E080E00895FC0159
:1005B00001900020E9F73197AF01481B590BBC01AE
:1005C00088E192E00C948401CF93DF93EC0160E02A
:1005D0008E810E94060261E08E810E94060260E028
:1005E0008E810E9406028BE891E00197F1F7DF917E
:1005F000CF910895CF92DF92EF92FF920F931F93C6
:10060000CF93DF936C017C0187E0E80EF11CD0E012
:10061000C0E0062F10E0B8010C2E02C0759567955A
:100620000A94E2F76170F70181917F010E9406024E
:100630002196C430D10579F7C601DF91CF911F9182
:100640000F91FF90EF90DF90CF900C94E402CF9247
:10065000DF92EF92FF920F931F93CF93DF93EC0102
:10066000F62E642F8C810E9406028D818F3F19F037
:1006700060E00E9406020F2D10E08F8584FF25C0E8
:100680006E0187E0C80ED11CF12CE12CB8010E2CB4
:1006900002C0759567950A94E2F76170F601819141
:1006A0006F010E940602FFEFEF1AFF0A88E0E816CA
:1006B000F10461F7CE01DF91CF911F910F91FF906F
:1006C000EF90DF90CF900C94E402B80184E0759530
:1006D00067958A95E1F7CE010E94FA026F2DCE014F
:1006E000DF91CF911F910F91FF90EF90DF90CF900E
:1006F0000C94FA0240E0682F88E192E00C94270302
:1007000081E00E947A038BE39FE10197F1F708955E
:10071000CF93DF93823029F49091270298609093D1
:10072000270280932B0210922C0280E480932D02EA
:1007300080E180932E0280E580932F0261E080911A
:100740001C020E94380280911D028F3F19F061E067
:100750000E94380261E080911E020E943802C8E1C6
:10076000D2E09E01285132408091270284FD0BC0C7
:1007700084E090E021962817390744F461E08E81E7
:100780000E943802EECF88E090E0F4CF8BE39DE04A
:100790000197F1F760E080911C020E94060260E080
:1007A00080911E020E94060280911D028F3F19F067
:1007B00060E00E9406028091270284FD34C063E05D
:1007C00088E192E00E94FA02CBE4D6E4CE010197E0
:1007D000F1F763E088E192E00E94FA022197F1F7D5
:1007E00063E088E192E00E94FA0283E592E00197DB
:1007F000F1F762E088E192E00E94FA02809127021C
:1008000080620E947A0384E0809328028CE00E9438
:100810007A030E94800382E08093290286E0DF91C0
:10082000CF910C947A0380620E947A038BE496E461
:100830000197F1F78091270280620E947A0383E595
:1008400092E00197F1F78091270280620E947A037B
:10085000D5CF90912B02891710F08FEF890FE82FD9
:10086000F0E0E85EFD4F848980680C947A0381E0B3
:100870000E94290489E291E00E94D7020E949D0211
:1008800081E00E9429040E94800381E00E942904E3
:1008900010927C0110927B0160E08AE00E940602C7
:1008A00061E089E00E94060290E080E00E948C00F6
:1008B000109276011092750180E00E9429048AE36B
:1008C00091E00E94D70281E00C94290441E00E944B
:1008D000270381E090E008951F920F920FB60F92C8
:1008E00011242F933F938F939F93AF93BF93809146
:1008F0007E0190917F01A0918001B09181013091A2
:10090000700123E0230F2D3758F50196A11DB11D6D
:100910002093700180937E0190937F01A0938001CA
:10092000B09381018091710190917201A091730146
:10093000B09174010196A11DB11D80937101909336
:100940007201A0937301B0937401BF91AF919F9115
:100950008F913F912F910F900FBE0F901F90189580
:1009600026E8230F0296A11DB11DD2CF1F920F9230
:100970000FB60F9211242F933F934F935F936F9372
:100980007F938F939F93AF93BF93CF93DF93EF9317
:10099000FF9380916F01C0916E01D0E087FF24C06A
:1009A000109285001092840080916F018F5F809378
:1009B0006F0180916F01082E000C990B8C179D0719
:1009C00024F480916F018C30C4F180918400909167
:1009D0008500049680349C4908F47AC08091840094
:1009E00090918500049676C080916F01082E000CCE
:1009F000990B8C179D07C4F6E0916F018E2FEE0FB7
:100A0000990BFC01EE0FFF1FE80FF91FEF50FE4F8F
:100A1000808186FFC9CFE0916F018E2FEE0F990B79
:100A2000FC01EE0FFF1FE80FF91FEF50FE4F808112
:100A300060E08F730E940602B7CF2091840030914E
:100A40008500E0916F018E2FEE0F990BFC01EE0FE8
:100A5000FF1FE80FF91FEF50FE4F81819281820F37
:100A6000931F9093890080938800E0916F018E2FEF
:100A7000EE0F990BFC01EE0FFF1FE80FF91FEF506F
:100A8000FE4F808186FF11C0E0916F018E2FEE0F27
:100A9000990BFC01EE0FFF1FE80FF91FEF50FE4FFF
:100AA000808161E08F730E940602FF91EF91DF91D8
:100AB000CF91BF91AF919F918F917F916F915F91F6
:100AC0004F913F912F910F900FBE0F901F9018954F
:100AD00080E49CE990938900809388008FEF809355
:100AE0006F01E3CF789484B5826084BD84B5816062
:100AF00084BD85B5826085BD85B5816085BD8091E9
:100B00006E00816080936E00109281008091810060
:100B10008260809381008091810081608093810058
:100B2000809180008160809380008091B10084601A
:100B30008093B1008091B00081608093B00080917B
:100B40007A00846080937A0080917A00826080933A
:100B50007A0080917A00816080937A0080917A0097
:100B6000806880937A001092C10061E089E00E9461
:100B7000380261E08AE00E943802809115028C30D0
:100B800008F051C061E088E00E94380280911502AF
:100B9000282F30E0F901EE0FFF1FE20FF31FEF5097
:100BA000FE4F9081907C9860908310921602109274
:100BB00017022CE0622F0E94E608829FB0011124E8
:100BC00030E020E0AB01420F531FFA01EE0FFF1F90
:100BD000E40FF51FEF50FE4F908196FD16C02F5F7A
:100BE0003F4F2C30310571F781110FC010928000FA
:100BF00082E0809381001092850010928400B19A67
:100C000080916F00826080936F00E09115028E2FBB
:100C100090E0FC01EE0FFF1FE80FF91FEF50FE4FB1
:100C200080818064808390E080E00E948C0082E07C
:100C30000E9488038091750190917601892B39F487
:100C40008AE391E00E94D70281E00E94290480910A
:100C50002802982F9260909328028A600E947A035B
:100C600060E08AE00E94060261E089E00E940602DC
:100C700010927C0110927B0137E7C32E31E0D32E16
:100C8000412C512C3201439450E0852E50E0952E9A
:100C900051E05093EE018FB7F89440917E0150914E
:100CA0007F0160918001709181018FBF8091DE0191
:100CB0009091DF01A091E001B091E101481B590B37
:100CC0006A0B7B0B8091EA019091EB01B0E0A0E010
:100CD00084179507A607B70708F052C1C0E08091B6
:100CE000E801C81760F4E091E401F091E501EC0F30
:100CF000F11D62E080810E943802CF5FF0CF312C7D
:100D00008091E901381608F05FC0032D10E0E091F2
:100D1000E601F091E701E00FF11F61E080810E94A0
:100D20003802E091E601F091E701E00FF11F60E089
:100D300080810E940602D301C201032C04C0880FE7
:100D4000991FAA1FBB1F0A94D2F75C017C01E09493
:100D5000F094212C8091E8012816F8F4C22DD0E0FF
:100D6000E091E401F091E501EC0FFD1F80810E940C
:100D7000DA012496CC0FDD1FCE57DE4F892B41F4CC
:100D8000888199818A299B29998388832394E2CF3A
:100D9000888199818E219F21F7CFE091E601F09122
:100DA000E701E00FF11F61E080810E94060280915F
:100DB000E6019091E701080F191F60E0F8018081BA
:100DC0000E94380233949CCF02E811E0E8018F8D35
:100DD00098A1892B31F41C8E8FEF9FEF9E8F8D8F02
:100DE00019A2269691E0CE3BD90789F7B12C8091C4
:100DF000E801B81608F053C0A12CEB2CF12CEE0C36
:100E0000FF1CF701E657FE4F7F012091E901A21672
:100E100008F043C0F701608171810A2C02C0769509
:100E200067950A94E2F7B29E900111242A0D311DB4
:100E3000E2E8F1E080E0458D568D2417350709F48E
:100E4000CDC08F5F36968A30B1F760FF24C0E2E8EC
:100E5000F1E090E080E0448D411118C0E091E201A2
:100E6000F091E301E20FF31F408156E0589FF0013B
:100E7000599FF00D1124EE57FE4F448F368F258F6A
:100E800010A2178E61E00E94140105C001963696EB
:100E90008A30910501F7A394B8CFB394A8CF80E02E
:100EA000F80191A19111892F0A5F1F4FC017D10737
:100EB000B9F79FB7F89440917E0150917F016091FE
:100EC0008001709181019FBF4093DE015093DF014B
:100ED0006093E0017093E101882309F451C080918F
:100EE000A301882309F44CC08091A1019091A20133
:100EF000019709F045C0C0917B01D0917C01109110
:100F00009E0110937D01111149C080917B01909148
:100F10007C01049709F058C0F60101900020E9F720
:100F2000ED57F14009F050C080917701803369F5A9
:100F300080917801813349F580917901823329F5D7
:100F400080917A01833309F50E9480038BE491E05C
:100F50000E94D7028AE590E00E948C000E949D02C8
:100F600061E08AE00E94060261E089E00E940602D8
:100F7000F60154E011925A95E9F70E94370424C013
:100F80001092EE0110927D01C0CF0E94800389E58E
:100F900091E00E94D7020E949D02EFCFC430D1059C
:100FA000D4F4133251F31A3279F041E0612F88E121
:100FB00092E00E942703FE01E958FE4F108321961C
:100FC000D0937C01C0937B018114910409F460CE1D
:100FD0000E9400005DCE1332B9F7CFCF617053CFBE
:100FE00080916E018C3008F08AC091E0980F909348
:100FF0006E018093150290E0FC01EE0FFF1FE80FD9
:10100000F91FEF50FE4F88EB9BE092838183109293
:101010001B0210921A0281E291E0909319028093D0
:10102000180282E180931C028FEF80931D0283E1FE
:1010300080931E0281E180931F0280E18093200251
:101040008FE0809321028EE080932202109223028F
:10105000109224021092250210922602109227026A
:1010600081E00E94880310928401109288011092FE
:1010700087011092890187E191E090938301809329
:101080008201EEE9F1E01082148213821582369615
:1010900081E0EA3DF807B9F783E091E09093E5013C
:1010A0008093E40180E091E09093E7018093E60172
:1010B00084E08093E80183E08093E90187E091E098
:1010C0009093E3018093E2018AE090E09093EB013A
:1010D0008093EA0184EF91E09093ED018093EC011D
:1010E0001092F0011092EF011092DE011092DF01D8
:1010F0001092E0011092E1011092EE0108958FEF3D
:101100008093150284CF052E97FB1EF400940E9455
:101110009A0857FD07D00E94B50807FC03D04EF48B
:101120000C949A0850954095309521953F4F4F4F1C
:101130005F4F089590958095709561957F4F8F4F83
:101140009F4F08950E94D708A59F900DB49F900DC2
:10115000A49F800D911D11240895B7FF0C94A2083F
:101160000E94A208821B930B0895A1E21A2EAA1BCB
:10117000BB1BFD010DC0AA1FBB1FEE1FFF1FA21747
:10118000B307E407F50720F0A21BB30BE40BF50B44
:10119000661F771F881F991F1A9469F760957095CD
:1011A000809590959B01AC01BD01CF010895A29F50
:1011B000B001B39FC001A39F700D811D1124911D2B
:1011C000B29F700D811D1124911D0895991B79E026
:1011D00004C0991F961708F0961B881F7A95C9F7C7
:1011E00080950895EE0FFF1F0590F491E02D09946E
:0411F000F894FFCFA1
:1011F40005060704030201313233343536373839F2
:101204002A302300000000740234020302000000AC
:101214000066048401D402D302446F6F72204C6FC1
:10122400636B656420202020200050617373776F06
:101234007264204163636573733A00506173732071
:1012440041636365707465640020496E636F7272F4
:0E1254006563742050617373636F64650000FE
:00000001FF
