:020000040000FA
:100000000C9462000C948A000C948A000C948A0070
:100010000C948A000C948A000C948A000C948A0038
:100020000C948A000C948A000C948A000C94530857
:100030000C948A000C948A000C948A000C948A0018
:100040000C9409080C948A000C94D7070C94B107FF
:100050000C948A000C948A000C948A000C948A00F8
:100060000C940F090C948A00000000002400270063
:100070002A0000000000250028002B0000000000DE
:1000800023002600290004040404040404040202DA
:100090000202020203030303030301020408102007
:1000A0004080010204081020010204081020000012
:1000B0000008000201000003040700000000000027
:1000C00000002A0A11241FBECFEFD8E0DEBFCDBF4B
:1000D00013E0A0E0B1E0E2E6F5E202C005900D9287
:1000E000A030B107D9F724E0A0E0B3E001C01D9231
:1000F000AF3DB207E1F710E0C2E6D0E004C02197BF
:10010000FE010E940810C136D107C9F70E94FE0AFD
:100110000C94AF120C9400008F929F92AF92BF92FA
:10012000FF920F931F93CF93DF93F090DC042BE0AB
:100130002F1508F44CC02091DE0408E512E0021BE4
:10014000110927FD1395000F111F000F111F20919A
:10015000DD04C8E8D0E0C21BD10927FDD395CC0F40
:10016000DD1FCC0FDD1F4E010D2E000CAA08BB08B1
:100170009801012E000C440B550B281939094A0926
:100180005B09DC010E948C0F24EB30E040E050E082
:100190000E94620F820E931EA41EB51E8C169D0631
:1001A0002CF0E801801691060CF4E4012297CC0FA4
:1001B000DD1F2FB7F8948F2D90E0FC01EE0FFF1F8D
:1001C000E80FF91FE05DFB4FD283C1832FBFDF91A2
:1001D000CF911F910F91FF90BF90AF909F908F9004
:1001E00008958F929F92AF92BF92CF92DF92EF923B
:1001F000FF928091DE0458E5C52E52E0D52EC81A34
:10020000D10887FDD394CC0CDD1CCC0CDD1C0D2C4F
:10021000000CEE08FF088091DD0478E8872E912C11
:10022000881A910887FD9394880C991C880C991C56
:10023000092C000CAA08BB088091DC048F3FD1F187
:1002400090E0FC01EE0FFF1FE80FF91FE05DFB4F90
:100250008181928133E0880F991F3A95E1F7B0E0F0
:10026000A0E044E0B595A795979587954A95D1F775
:1002700002969C012F5F3F4F032E000C440B550B41
:10028000281939094A095B09A4EBB0E00E94810FE3
:10029000A7019601281939094A095B090E94620FD2
:1002A000C901FF90EF90DF90CF90BF90AF909F90EB
:1002B0008F90089590E080E0DCCF96E0899FD00198
:1002C0001124AB5ABB4F90967C936E935F9791E04D
:1002D00091969C939197E091C204F091C304909100
:1002E000C104992339F0309751F0811108C08091F1
:1002F00071040994309719F05C968C91FACF0895A7
:10030000AF92BF92CF92DF92EF92FF920F931F9323
:10031000CF93DF936C017B018B01040F151FEB0161
:100320005E01AE18BF08C017D10759F06991D60118
:10033000ED91FC910190F081E02DC6010995892B8A
:1003400079F7C501DF91CF911F910F91FF90EF9049
:10035000DF90CF90BF90AF900895FC01538D448DF6
:10036000252F30E0842F90E0821B930B541710F060
:10037000CF96089501970895FC01918D828D98176D
:1003800061F0A28DAE0FBF2FB11D5D968C91928D45
:100390009F5F9F73928F90E008958FEF9FEF089576
:1003A000FC01918D828D981731F0828DE80FF11D3F
:1003B000858D90E008958FEF9FEF0895FC01918D5A
:1003C000228D892F90E0805C9F4F821B91098F7353
:1003D0009927089583E993E00E94DE0121E0892BAB
:1003E00009F420E0822F089580E090E0892B29F025
:1003F0000E94EA0181110C9400000895FC01A48D73
:10040000A80FB92FB11DA35ABF4F2C91848D90E036
:1004100001968F739927848FA689B7892C93A08919
:10042000B1898C91837080648C93938D848D9813A3
:1004300006C00288F389E02D80818F7D8083089536
:10044000EF92FF920F931F93CF93DF93EC0181E024
:10045000888F9B8D8C8D98131AC0E889F9898081CB
:1004600085FF15C09FB7F894EE89FF896083E889FE
:10047000F98980818370806480839FBF81E090E0F0
:10048000DF91CF911F910F91FF90EF900895F62E7D
:100490000B8D10E00F5F1F4F0F731127E02E8C8D17
:1004A0008E110CC00FB607FCFACFE889F98980815C
:1004B00085FFF5CFCE010E94FE01F1CFEB8DEC0F51
:1004C000FD2FF11DE35AFF4FF0829FB7F8940B8F79
:1004D000EA89FB8980818062CFCFCF93DF93EC01E3
:1004E000888D8823B9F0AA89BB89E889F9898C911C
:1004F00085FD03C0808186FD0DC00FB607FCF7CFD8
:100500008C9185FFF2CF808185FFEDCFCE010E94D7
:10051000FE01E9CFDF91CF910895833081F028F477
:10052000813099F08230A9F008958730A9F08830A1
:10053000C9F08430B1F4809180008F7D03C0809138
:1005400080008F7780938000089584B58F7784BD75
:10055000089584B58F7DFBCF8091B0008F77809315
:10056000B00008958091B0008F7DF9CFCF93DF93D5
:10057000282F30E0F901E255FF4F8491F901E6564A
:10058000FF4FD491F901EA57FF4FC491CC23A1F05A
:1005900081110E948D02EC2FF0E0EE0FFF1FE45856
:1005A000FF4FA591B491EC91ED2381E090E009F427
:1005B00080E0DF91CF91089580E090E0FACF862F20
:1005C0000C94B6021F93CF93DF93282F30E0F901EC
:1005D000E255FF4F8491F901E656FF4FD491F9019E
:1005E000EA57FF4FC491CC23A9F0162F81110E9426
:1005F0008D02EC2FF0E0EE0FFF1FEE58FF4FA5919C
:10060000B4918FB7F894EC91111108C0D095DE2306
:10061000DC938FBFDF91CF911F910895DE2BF8CF30
:10062000862F642F0C94E202CF93DF9390E0FC01BD
:10063000E656FF4F24918A579F4FFC0184918823EF
:10064000C9F090E0880F991FFC01E859FF4FA59170
:10065000B491FC01EE58FF4FC591D49161110DC0CA
:100660009FB7F8948C91209582238C9388812823BE
:1006700028839FBFDF91CF910895623051F49FB7D7
:10068000F8943C91822F809583238C93E8812E2BC4
:10069000EFCF8FB7F894EC912E2B2C938FBFEACF2E
:1006A000862F642F0C9414033FB7F894809177033E
:1006B00090917803A0917903B0917A0326B5A89B15
:1006C00005C02F3F19F00196A11DB11D3FBFBA2FE4
:1006D000A92F982F8827BC01CD01620F711D811DA4
:1006E000911D42E0660F771F881F991F4A95D1F729
:1006F00008958F929F92AF92BF92CF92DF92EF9226
:10070000FF924B015C010E9454036B017C010E942B
:1007100054036C197D098E099F09683E7340810559
:100720009105A8F321E0821A9108A108B10888EE8A
:10073000C80E83E0D81EE11CF11C81149104A104B1
:10074000B10429F7FF90EF90DF90CF90BF90AF906A
:100750009F908F9008952FB7F894609173037091D4
:10076000740380917503909176032FBF08950F93C2
:100770001F930E94AB0360939B0370939C03809331
:100780009D0390939E0383E993E00E94D00197FF1D
:100790001DC00E94AB0300919B0310919C0320910C
:1007A0009D0330919E03601B710B820B930B009194
:1007B0009703109198032091990330919A03601741
:1007C000710782079307F8F28FEF9FEF1F910F9148
:1007D00008950F931F93CF93DF93C82FD62F86E0F2
:1007E000C89FF0011124EB5AFB4F11A2878D90A1F5
:1007F00081309105F1F058F082309105F1F10397C5
:1008000009F440C0DF91CF911F910F9108956623A5
:10081000C9F361E070E08C2F0E945D010E94AB0380
:100820006093AD047093AE048093AF049093B004D2
:10083000E9CF0E94AB030091AD041091AE0420916A
:10084000AF043091B004AB01BC01401B510B620BF3
:10085000730B8091BF049091C004B0E0A0E08417B6
:100860009507A607B70748F462E070E08C2FDF9188
:10087000CF911F910F910C945D0163E070E0D11155
:10088000C1CFF4CF70E060E0F1CF0895209127034D
:10089000260F3327331F21323105ECF420914B030F
:1008A000FC0190E080E0243069F082E00895A0919E
:1008B00027032191AC01495F5C4FA40FB52FB11DF7
:1008C0002C930196861798F380912703680F609305
:1008D000270380E0089581E0089508958FEF9FEF4A
:1008E00008958FEF9FEF08958091000390E0919518
:1008F000819591090895CF93DF93CB01EA01642F8D
:100900000E944604CE01DF91CF910895CF93DF93EB
:100910001F92CDB7DEB7698361E0CE0101960E94D8
:10092000460481E090E00F90DF91CF91089590E030
:1009300080E008958AE00E94B6028130910529F492
:1009400090937E0380937D03089510927E0310920E
:100950007D030895CF93DF93EC0160E08E810E94C8
:10096000E20261E08E810E94E20260E08E810E94DC
:10097000E2028BE891E00197F1F7DF91CF910895C2
:10098000CF92DF92EF92FF920F931F93CF93DF935B
:100990006C017C0187E0E80EF11CD0E0C0E0062F7E
:1009A00010E0B8010C2E02C0759567950A94E2F725
:1009B0006170F70181917F010E94E2022196C430AB
:1009C000D10579F7C601DF91CF911F910F91FF906B
:1009D000EF90DF90CF900C94AA04CF92DF92EF9229
:1009E000FF920F931F93CF93DF93EC01F62E642FAA
:1009F0008C810E94E2028D818F3F19F060E00E949D
:100A0000E2020F2D10E08F8584FF25C06E0187E084
:100A1000C80ED11CF12CE12CB8010E2C02C075952A
:100A200067950A94E2F76170F60181916F010E9467
:100A3000E202FFEFEF1AFF0A88E0E816F10461F71F
:100A4000CE01DF91CF911F910F91FF90EF90DF903A
:100A5000CF900C94AA04B80184E0759567958A95A7
:100A6000E1F7CE010E94C0046F2DCE01DF91CF913E
:100A70001F910F91FF90EF90DF90CF900C94C004E6
:100A800040E0682F84EC94E00C94ED0481E00E9437
:100A900040058BE39FE10197F1F70895CF93DF9332
:100AA000823029F49091D30498609093D30480937A
:100AB000D7041092D80480E48093D90480E1809315
:100AC000DA0480E58093DB0461E08091C8040E9431
:100AD00014038091C9048F3F19F061E00E94140350
:100AE00061E08091CA040E941403C4ECD4E09E012A
:100AF000245C34408091D30484FD0BC084E090E0FA
:100B000021962817390744F461E08E810E9414036E
:100B1000EECF88E090E0F4CF8BE39DE00197F1F712
:100B200060E08091C8040E94E20260E08091CA0403
:100B30000E94E2028091C9048F3F19F060E00E9498
:100B4000E2028091D30484FD34C063E084EC94E03D
:100B50000E94C004CBE4D6E4CE010197F1F763E034
:100B600084EC94E00E94C0042197F1F763E084ECE8
:100B700094E00E94C00483E592E00197F1F762E0FF
:100B800084EC94E00E94C0048091D30480620E94AF
:100B9000400584E08093D4048CE00E9440050E94CC
:100BA000460582E08093D50486E0DF91CF910C94D6
:100BB000400580620E9440058BE496E40197F1F7BE
:100BC0008091D30480620E94400583E592E0019702
:100BD000F1F78091D30480620E944005D5CF9091B7
:100BE000D704891710F08FEF890FE82FF0E0EC534E
:100BF000FB4F848980680C94400541E00E94ED041D
:100C000081E090E00895FB0101900020E9F7319721
:100C1000AF01461B570BDC01ED91FC910280F38183
:100C2000E02D0994CF93DF93BC0183E993E00E9408
:100C30000306EC0160E471E083E993E00E9403069F
:100C40008C0F9D1FDF91CF9108958F929F92AF924D
:100C5000BF92CF92DF92EF92FF920F931F93CF93A9
:100C6000DF93CDB7DEB7A1970FB6F894DEBF0FBE06
:100C7000CDBF6C01990FEE08FF08F7FE4BC06DE287
:100C800083E993E00E9420028C0122273327A901E7
:100C90002C193D094E095F0919A2CE0181967C01EC
:100CA0009AE0892E912CA12CB12CCA01B901A50181
:100CB00094010E94CB0F605DF70162937F012115C3
:100CC00031054105510589F790E080E0309729F022
:100CD000BF0183E993E00E940306080F191F60E437
:100CE00071E083E993E00E940306800F911FA196B3
:100CF0000FB6F894DEBF0FBECDBFDF91CF911F912D
:100D00000F91FF90EF90DF90CF90BF90AF909F90AA
:100D10008F900895A701960119A28E010F5D1F4FB4
:100D20008AE0C82ED12CE12CF12CCA01B901A7010F
:100D300096010E94CB0F605DF80162938F0121152F
:100D400031054105510589F7309739F0BF0183E935
:100D500093E00E9403068C01C2CF10E000E0BFCFF9
:100D60000C9403061F93CF93DF9385ED8093BC0013
:100D70008091030390910403A0910503B0910603B1
:100D80000796A11DB11D23E0B695A7959795879568
:100D90002A95D1F72091BC0024FD03C010924B038B
:100DA00052C0409103035091040360910503709178
:100DB0000603452B462B472B69F30097A105B10588
:100DC00041F025E32A95F1F700000197A109B10947
:100DD000E1CF80910203C1E0C0930103882399F120
:100DE000D091B8001091BA008091BC008A7B8093AA
:100DF000BC0060E082E10E94E20260E083E10E94C8
:100E0000E20210924B03C0934D0310924C0361E039
:100E100082E10E94E20261E083E10E94E2028091AD
:100E2000B9008E7F8093B9008091B9008D7F809347
:100E3000B90088E48093B80085E48093BC001093E7
:100E4000BA00D093B800DF91CF911F9108950E940E
:100E5000460563E471E084EC94E00E94B00684EB04
:100E600090E00E948C0060EA7FE080E090E00E94C9
:100E7000790360E089E00E94E2020E94460580E07A
:100E80000E94EF0561E571E084EC94E00E94B006F9
:100E900064EF71E080E090E00E94790381E00E94BD
:100EA000EF05E5E8F3E084E0DF011D928A95E9F7BC
:100EB00010928A031092890310927C0310927B0394
:100EC00010928B0310929003089581E00E94EF0529
:100ED0006CED72E084EC94E00E94B00681E00E9428
:100EE000EF0562E671E084EC94E00E94B00664EFE6
:100EF00071E080E090E00E9479030E94460580E066
:100F00000E94EF0561E571E084EC94E00E94B00678
:100F100064EF71E080E090E00E94790381E00E943C
:100F2000EF05E5E8F3E084E0DF011D928A95E9F73B
:100F300010928A031092890310927C0310927B0313
:100F400061E089E00E94E2020E94F100892B21F019
:100F500090E080E00E948C0010928B03109290032E
:100F600008951F920F920FB60F9211242F933F9363
:100F70004F935F936F937F938F939F93AF93BF93A1
:100F8000EF93FF9383E993E00E94FE01FF91EF91BD
:100F9000BF91AF919F918F917F916F915F914F9191
:100FA0003F912F910F900FBE0F901F9018951F9299
:100FB0000F920FB60F9211242F938F939F93EF935D
:100FC000FF93E091A303F091A4038081E091A90332
:100FD000F091AA0382FD1BC090818091AC038F5FCA
:100FE0008F732091AD03821741F0E091AC03F0E0E4
:100FF000ED56FC4F958F8093AC03FF91EF919F913D
:101000008F912F910F900FBE0F901F901895808198
:10101000F4CF1F920F920FB60F9211242F933F938C
:101020008F939F93AF93BF938091730390917403B9
:10103000A0917503B09176033091720323E0230FE2
:101040002D3758F50196A11DB11D20937203809391
:10105000730390937403A0937503B0937603809108
:10106000770390917803A0917903B0917A03019668
:10107000A11DB11D8093770390937803A09379030A
:10108000B0937A03BF91AF919F918F913F912F9130
:101090000F900FBE0F901F90189526E8230F029611
:1010A000A11DB11DD2CF1F920F920FB60F92112426
:1010B0002F933F934F935F936F937F938F939F9360
:1010C000AF93BF93CF93DF93EF93FF93809171031F
:1010D000C0915404D0E087FF24C010928500109284
:1010E0008400809171038F5F8093710380917103FD
:1010F000082E000C990B8C179D0724F48091710326
:101100008C30C4F1809184009091850004968034E5
:101110009C4908F47AC080918400909185000496DF
:1011200076C080917103082E000C990B8C179D07D7
:10113000C4F6E09171038E2FEE0F990BFC01EE0FB8
:10114000FF1FE80FF91FE05DFB4F808186FFC9CFCD
:10115000E09171038E2FEE0F990BFC01EE0FFF1F34
:10116000E80FF91FE05DFB4F808160E08F730E9404
:10117000E202B7CF2091840030918500E0917103A5
:101180008E2FEE0F990BFC01EE0FFF1FE80FF91FDA
:10119000E05DFB4F81819281820F931F90938900C4
:1011A00080938800E09171038E2FEE0F990BFC0164
:1011B000EE0FFF1FE80FF91FE05DFB4F808186FFF8
:1011C00011C0E09171038E2FEE0F990BFC01EE0F11
:1011D000FF1FE80FF91FE05DFB4F808161E08F7317
:1011E0000E94E202FF91EF91DF91CF91BF91AF9109
:1011F0009F918F917F916F915F914F913F912F912F
:101200000F900FBE0F901F90189580E49CE990936B
:101210008900809388008FEF80937103E3CF1F9242
:101220000F920FB60F9211242F933F934F935F931A
:101230006F937F938F939F93AF93BF93EF93FF939E
:101240008091B900887F803609F44AC0F0F5883271
:1012500009F4A5C018F5803109F499C0B8F48823C1
:1012600009F4F5C0883009F492C0FF91EF91BF9165
:10127000AF919F918F917F916F915F914F913F912E
:101280002F910F900FBE0F901F901895883109F481
:1012900086C0803251F780934A0314C0803409F429
:1012A0009BC040F48033B9F38833F9F680934A0346
:1012B00085ECAEC0803509F483C0883509F494C04C
:1012C000883499F60E94B206D0CF883909F48AC0D2
:1012D00038F5883729F050F4883611F0803729F630
:1012E00083E080934B031092490355C0883809F47A
:1012F00079C0803919F0803809F0B7CF809149035F
:10130000803208F06FC0E091490381E08E0F809336
:1013100049038091BB00F0E0E75DFC4F80833BC058
:10132000803B39F0D0F4803A09F477C0883A09F06C
:101330009CCF84E080934B031092280310922703E4
:10134000F0E0E0E009958091270381110FC081E072
:10135000809327031092070309C0803C09F4A8CFAB
:10136000883C09F4A5CF883B09F07FCFE0912803A2
:1013700081E08E0F80932803F0E0E95FFC4F8081CD
:101380008093BB00909128038091270329C080910E
:1013900070038093BB0085EC8093BC0066CF909176
:1013A0006F0380916E03981758F5E0916F0381E009
:1013B0008E0F80936F03F0E0E25BFC4F8081E9CFFA
:1013C000E0916F0381E08E0F80936F038091BB00EB
:1013D000F0E0E25BFC4F808390916F0380916E039D
:1013E0009817C8F285E8D8CFE0916F0381E08E0F9F
:1013F00080936F038091BB00F0E0E25BFC4F808341
:1014000080914D0381115ECF81E080934C0384EA8B
:101410008093BC0010924B0328CF85EC8093BC00D6
:1014200010924B0380914903803230F4E0914903DC
:10143000F0E0E75DFC4F10826091490370E089E2C3
:1014400093E0F0E0E0E00995109249030ECF10928E
:101450004A0338CF109296031092950388EE93E0DA
:10146000A0E0B0E08093970390939803A093990332
:10147000B0939A038CE191E090939403809393034B
:1014800085EC90E09093A00380939F0384EC90E020
:101490009093A2038093A10380EC90E09093A40327
:1014A0008093A30381EC90E09093A6038093A5031F
:1014B00082EC90E09093A8038093A70386EC90E0E1
:1014C0009093AA038093A9031092AC031092AD03EA
:1014D0001092AE031092AF03809154048C3008F048
:1014E00089C091E0980F909354048093DC0490E0BD
:1014F000FC01EE0FFF1FE80FF91FE05DFB4F88EBCB
:101500009BE0928381831092C7041092C60488E303
:1015100091E09093C5048093C40482E18093C80451
:101520008FEF8093C90483E18093CA0481E18093A3
:10153000CB0480E18093CC048FE08093CD048EE0D7
:101540008093CE041092CF041092D0041092D10454
:101550001092D2041092D30481E00E944E051092A2
:10156000570410925B0410925A0410925C048EE2AD
:1015700091E09093560480935504E1E7F4E01082E3
:10158000148213821582369684E0ED3AF807B9F793
:1015900084E091E09093B8048093B70480E091E0F8
:1015A0009093BA048093B90484E08093BB04809341
:1015B000BC0488E091E09093B6048093B5048AE07F
:1015C00090E09093BE048093BD0484EF91E09093EB
:1015D000C0048093BF041092C3041092C2041092FE
:1015E000B1041092B2041092B3041092B404109299
:1015F000C10408958FEF8093DC0485CF789484B57F
:10160000826084BD84B5816084BD85B5826085BDFE
:1016100085B5816085BD80916E00816080936E008C
:10162000109281008091810082608093810080917E
:10163000810081608093810080918000816080932F
:1016400080008091B10084608093B1008091B000EF
:1016500081608093B00080917A00846080937A00EA
:1016600080917A00826080937A0080917A00816014
:1016700080937A0080917A00806880937A0010923B
:10168000C100E091A303F091A40382E08083E09184
:101690009F03F091A0031082E091A103F091A203B7
:1016A0008FEC80831092AB03E091A703F091A80325
:1016B00086E08083E091A503F091A603808180619C
:1016C0008083E091A503F091A603808188608083E8
:1016D000E091A503F091A603808180688083E0916A
:1016E000A503F091A60380818F7D808383E791E03D
:1016F0000E94120661E089E00E94140362E08AE021
:101700000E94140360E08DE00E94140361E08BE00E
:101710000E9414038091DC048C3008F051C061E019
:101720008CE00E9414038091DC04282F30E0F90142
:10173000EE0FFF1FE20FF31FE05DFB4F9081907CE7
:101740009C6090831092DD041092DE042CE0622FE6
:101750000E94FC0F829FB001112430E020E0AB0119
:10176000420F531FFA01EE0FFF1FE40FF51FE05D5C
:10177000FB4F908196FD16C02F5F3F4F2C303105F7
:1017800071F781110FC01092800082E08093810078
:101790001092850010928400B19A80916F0082604F
:1017A00080936F00E091DC048E2F90E0FC01EE0F3F
:1017B000FF1FE80FF91FE05DFB4F8081806480838D
:1017C00090E080E00E948C0082E00E944E058091B3
:1017D0007B0390917C03892B69F461E571E084ECD3
:1017E00094E00E94B0068EE791E00E94120681E02C
:1017F0000E94EF058091D404982F92609093D404B6
:101800008A600E94400561E089E00E94E202109235
:101810008A0310928903109290030E94AB03609395
:101820008C0370938D0380938E0390938F03412CD0
:10183000512C3201439422242A94322C60E0C62E8B
:1018400060E0D62E0E949A048DE00E94B60220919C
:10185000920328171906A9F08FE891E00E9412065A
:101860008DE00E94B60221E0892B09F420E020934C
:1018700092038AE00E94B602892B09F0C6C00E943A
:10188000650783E993E00E94DE01892B09F48CC08F
:101890006AE070E080E090E00E9479030E94B70364
:1018A000FC0197FDBCC08D32910521F0C0970A97CD
:1018B00008F0AEC0812C912C5401C0E0E130F1055C
:1018C000D9F0ED32F10509F4A8C0CF01C0970A970D
:1018D00098F4AAE0B0E0A50194010E94810F4F01A5
:1018E000FF0FAA08BB08860E971EA81EB91E20E38C
:1018F000821A9108A108B10883E993E00E94BC0113
:101900000E94B703FC01C0970A97C0F2E130F105CD
:10191000A9F2CC2341F0B094A09490948094811CBF
:10192000911CA11CB11C9F928F928CE991E09F9316
:101930008F9323E833E03F932F930E940E106FE9BB
:1019400071E083E993E00E94B00683E893E00E948F
:10195000120680918303082E000C990BC097909378
:101960008203809381030E94250680918403082EC0
:10197000000C990BC0979093800380937F030E9483
:1019800025060F900F900F900F900F900F90809161
:101990008103909182038230910509F473C00CF0A9
:1019A00042C0019709F45EC0E1E0E093C1040E94E7
:1019B000AB030091B1041091B2042091B3043091B3
:1019C000B404AB01BC01401B510B620B730B809143
:1019D000BD049091BE04B0E0A0E084179507A6076F
:1019E000B70708F0C6C1C0E08091BB04C81708F073
:1019F00087C0E091B704F091B804EC0FF11D62E0EC
:101A000080810E941403CF5FEFCF0E94270739CF58
:101A100083E993E00E94BC0141CFC1E06DCF812CEE
:101A2000912C540180CF83309105B9F1049709F0CE
:101A3000BBCF82E292E00E94120664EF71E080E088
:101A400090E00E94790380917F039091800300973A
:101A500009F442C0019709F449C010928B038AE44B
:101A600092E00AC00E949A0480917D0390917E03C7
:101A7000019729F486EB91E00E94120695CF82ED42
:101A800091E0FACF6FEE71E083E993E00E94B00637
:101A90000E94F1000E94250687CF8BE092E00E9411
:101AA000120680917F03909180038130910541F06F
:101AB0008230910551F0892B09F076CF60E001C0AA
:101AC00061E08BE00E94E2026FCF8BE00E94B602E1
:101AD00061E0892BB1F3F2CF88E080938B0382E33E
:101AE00092E00E9412060E9465075ECF91E09093FB
:101AF0008B038DE392E00E9412060E94270754CFC9
:101B0000912C8091BC04981608F05FC0092D10E05C
:101B1000E091B904F091BA04E00FF11F61E0808117
:101B20000E941403E091B904F091BA04E00FF11F90
:101B300060E080810E94E202D301C201092C04C04E
:101B4000880F991FAA1FBB1F0A94D2F75C017C0162
:101B5000E094F094812C8091BB048816F8F4C82D91
:101B6000D0E0E091B704F091B804EC0FFD1F808144
:101B70000E94B6022496CC0FDD1FCB5ADB4F892B77
:101B800041F4888199818A299B2999838883839448
:101B9000E2CF888199818E219F21F7CFE091B9040E
:101BA000F091BA04E00FF11F61E080810E94E2022F
:101BB0008091B9049091BA04080F191F60E0F801F0
:101BC00080810E94140393949CCFC5E5D4E0FE016C
:101BD000878D90A1892B21F4148E368E258E11A22B
:101BE000369624E0E139F20799F710E08091BB04C2
:101BF000181708F053C000E0812F90E0880F991F5C
:101C0000FC01E35AFB4F7F012091BC04021708F04E
:101C100043C0F70160817181002E02C076956795FF
:101C20000A94E2F7129F90011124200F311DE5E57F
:101C3000F4E080E0458D568D2417350709F440C146
:101C40008F5F36968A30B1F760FF24C0E5E5F4E097
:101C500090E080E0448D411118C0E091B504F0910E
:101C6000B604E20FF31F408156E0589FF001599FE0
:101C7000F00D1124EB5AFB4F448F368F258F10A2A5
:101C8000178E61E00E94E90305C0019636968A30FE
:101C9000910501F70F5FB8CF1F5FA8CF10E089A1B2
:101CA0008111182F269684E0C139D807C1F70E9408
:101CB000AB036093B1047093B2048093B304909328
:101CC000B404112309F455C080917604882309F4E3
:101CD00050C08091740490917504019709F049C037
:101CE000809171048093910390919003911183C02E
:101CF0002091890330918A0381113FC0243031053E
:101D000061F5E5E8F3E001900020E9F7EB58F340D6
:101D100021F582E00E94EF056EE572E084EC94E02C
:101D20000E94B00680919003811117C063E772E0B2
:101D300083E993E00E94030685E893E00E9412067F
:101D40000E94AB0360938C0370938D0380938E038A
:101D500090938F03E1E0E0939003C114D10409F460
:101D600071CD0E94EA01882309F46CCD0E94000025
:101D700069CD1092C10480E0B5CF24303105ACF5B7
:101D80008332B1F18A3249F38DE792E00E94120664
:101D9000C091910341E06C2F84EC94E00E94ED042B
:101DA0006C2F83E993E00E94200260E471E083E9F4
:101DB00093E00E9403068091890390918A03FC01BD
:101DC000EB57FC4F209191032083019690938A0357
:101DD0008093890368E872E083E993E00E94B0068B
:101DE00085E893E00E941206B8CF833209F0B5CFA0
:101DF0000E946507B2CF0E94AB0380908C03909045
:101E00008D03A0908E03B0908F03681979098A0919
:101E10009B096131774281059105D8F00E94460502
:101E200080E00E94EF0560E972E084EC94E00E949B
:101E3000B00681E00E94EF0562EA72E084EC94E073
:101E40000E94B00664EF71E080E090E00E947903A8
:101E5000CFCF0E94AB03681979098A099B096131C8
:101E600077428105910548F580918B03813001F11E
:101E7000883009F072CF6FEB72E083E993E00E9443
:101E8000B00680E00E94EF056AED72E084EC94E019
:101E90000E94B00680E00E94EF056DEE72E084ECD7
:101EA00094E00E94B00668EE73E080E090E0CECF50
:101EB0000E94270783EB92E095CF83E791E092CFD2
:101EC0006170E0CE052E97FB1EF400940E94790FFE
:101ED00057FD07D00E94CB0F07FC03D04EF40C94A3
:101EE000790F50954095309521953F4F4F4F5F4F5B
:101EF000089590958095709561957F4F8F4F9F4F76
:101F000008950E94ED0FA59F900DB49F900DA49F82
:101F1000800D911D11240895B7FF0C94810F0E942C
:101F2000810F821B930B08952F923F924F925F92E5
:101F30006F927F928F929F92AF92BF92CF92DF92D9
:101F4000EF92FF920F931F93CF93DF93CDB7DEB73E
:101F5000CA1BDB0B0FB6F894DEBF0FBECDBF0994D2
:101F60002A88398848885F846E847D848C849B8429
:101F7000AA84B984C884DF80EE80FD800C811B8137
:101F8000AA81B981CE0FD11D0FB6F894DEBF0FBE66
:101F9000CDBFED010895A1E21A2EAA1BBB1BFD01C6
:101FA0000DC0AA1FBB1FEE1FFF1FA217B307E40738
:101FB000F50720F0A21BB30BE40BF50B661F771F90
:101FC000881F991F1A9469F7609570958095909570
:101FD0009B01AC01BD01CF010895A29FB001B39F49
:101FE000C001A39F700D811D1124911DB29F700D22
:101FF000811D1124911D0895991B79E004C0991F3A
:10200000961708F0961B881F7A95C9F78095089552
:10201000EE0FFF1F0590F491E02D0994AEE0B0E0C3
:10202000E4E1F0E10C94A20F0D891E8986E08C8317
:102030001A8309838FEF9FE79E838D83AE01475EEE
:102040005F4F6F89788DCE0101960E9431102F81EC
:102050003885020F131FF80110822E96E4E00C94CD
:10206000BE0FABE0B0E0E7E3F0E10C94940F7C012D
:102070003B018A01FC0117821682838181FFC8C15E
:10208000CE0101965C01F7019381F30193FD8591E7
:1020900093FF81913F01882309F453C1853239F4BC
:1020A00093FD859193FF81913F01853229F4B7011A
:1020B00090E00E942112E7CF912C212C312CFFE1DE
:1020C000F31538F08B3211F190F4803209F183323C
:1020D00029F137FC3CC020ED280F2A3050F536FEA0
:1020E00020C08AE0989E200D1124922E06C08D32C9
:1020F00091F0803371F7689430F8F30193FD859186
:1021000093FF81913F018111DACF21C0689431F8AA
:10211000689432F8F2CF689433F8EFCF689434F8CB
:10212000ECCFEAE02E9E200D1124222E689435F883
:10213000E4CF8E3229F436FC04C1689436F8DDCF42
:102140008C3619F4689437F8D8CF8836B1F2982FC6
:102150009F7D95549330E0F08336A1F18337C1F130
:10216000833509F063C02801F2E04F0E511CF801DD
:10217000C080D180692D70E036FC02C06FEF7FEF28
:10218000C6010E940B124C01689437F882010AC004
:102190000C5F1F4FFFE3F98388248394912C650122
:1021A000E89437F833FE2DC0522C8114910471F558
:1021B000552009F468CFB70180E290E00E94211217
:1021C0005A94F6CFF801808189830E5F1F4FE4CFC8
:1021D0002801F2E04F0E511CF801C080D180692D1A
:1021E00070E036FC02C06FEF7FEFC6010E9416124E
:1021F0004C018201D5CFB70180E290E00E9421120C
:102200002A942814190409F0B0F7CECFF60137FC50
:10221000859137FE81916F01B70190E00E942112F4
:1022200051105A94F1E08F1A9108BFCF843619F0FB
:10223000893609F077C0F80137FE6BC06081718183
:10224000828193810C5F1F4FF32DFF763F2E97FF06
:1022500009C090958095709561957F4F8F4F9F4FE6
:10226000689437F82AE030E0A5010E945112C82E88
:10227000CA188C2C432C36FE0CC0E89440F8C914C4
:1022800040F434FE05C032FC03C0F32DFE7E4F2E19
:10229000892C44FE95C0FE01EC0DF11D8081803338
:1022A00009F087C0242D297E422E842D8870582E57
:1022B00043FC95C040FE8FC09C2C821418F42C0C5B
:1022C000922C981844FE91C0B70180E390E00E94E0
:1022D000211242FE09C088E790E041FE02C088E575
:1022E00090E0B7010E942112C91408F48AC0CA9470
:1022F000D12C9FEFC91AD90ACA0CDB1CF6018291B6
:102300006F01B70190E00E942112AC14BD04B1F737
:102310004FCF60817181072E000C880B990B0E5FE7
:102320001F4F92CFD32CE894D4F82AE030E08537C1
:1023300039F1232D297FD22E8F3601F148F48835CB
:10234000A9F0F701868197812B96E2E10C94B00FFA
:10235000803749F08837A9F7D4FE02C06894D2F8D4
:1023600020E130E00DC06894D4F8F6CF34FE03C00D
:10237000822F8660D82E20E132E002C028E030E0D3
:10238000F801D7FE0FC060817181828193810C5F5B
:102390001F4FA5010E945112C82ECA183D2CE89467
:1023A00037F867CF6081718190E080E00E5F1F4F4A
:1023B000F0CF42FC02C0839478CF8394839475CF8E
:1023C000842D867809F471CFF6CFB70180E290E0D2
:1023D0000E94211283948214C0F3512C73CF522C8B
:1023E0005818821408F46ECFF8CF842D867809F43B
:1023F0007BCF8BE241FE80E247FC8DE2B70190E0AB
:1024000071CFB70180E390E00E9421129A946CCFC3
:102410008FEF9FEF99CFFC01059061507040011044
:10242000D8F7809590958E0F9F1F0895FC016150FD
:10243000704001900110D8F7809590958E0F9F1FE6
:1024400008950F931F93CF93DF93182F092FEB015C
:102450008B8181FD09C01FEF0FEF812F902FDF913E
:10246000CF911F910F91089582FF14C02E813F815B
:102470008C819D81281739073CF4E881F981CF01CF
:1024800001969983888310838E819F8101969F8313
:102490008E83E3CFE885F985812F0995892BA1F3F8
:1024A000DACFFA01AA27283051F1203181F1E894DE
:1024B0006F936E7F6E5F7F4F8F4F9F4FAF4FB1E037
:1024C0003ED0B4E03CD0670F781F891F9A1FA11D32
:1024D000680F791F8A1F911DA11D6A0F711D811D33
:1024E000911DA11D20D009F468943F912AE0269FF8
:1024F00011243019305D3193DEF6CF010895462F57
:102500004770405D4193B3E00FD0C9F7F6CF462F37
:102510004F70405D4A3318F0495D31FD40524193A0
:1025200002D0A9F7EACFB4E0A6959795879577955D
:102530006795BA95C9F700976105710508959B01E4
:10254000AC010A2E06945795479537952795BA956D
:10255000C9F7620F731F841F951FA01D0895F8947B
:10256000FFCF050607080403020131323341343539
:102570003642373839432A30234400000000200215
:102580008001AD016D02DE01BC01D0010000000040
:1025900050031003DF0200000000FD0580019704D6
:1025A00045040D0A005061737320416363657074C4
:1025B00065640050617373776F7264204163636573
:1025C00073733A00446F6F72204C6F636B656420C5
:1025D0002020202000696D20776F726B696E670084
:1025E00070617373776F7264204163636573733ACC
:1025F000004920616D20746F67676C656400256415
:10260000000A53657269616C2069732061766169A3
:102610006C61626C653A20006D79646F6F727365EE
:102620006E736F723B70726F7065727479323A5468
:10263000727565006D79646F6F7273656E736F721A
:102640003B70726F7065727479323A46616C736573
:10265000006D79646F6F72636F6E74726F6C6C650E
:10266000723B70726F7065727479323A006C696790
:10267000687420636F6E74726F6C20616363657041
:10268000746564006576616C756174696E6720704D
:102690006173730077726F6E67207061737300638C
:1026A0006F72726563742070617373006465666134
:1026B000756C74207061737320726573756C74002F
:1026C000636865636B696E672050617373776F72BF
:1026D000642E2E2E0070617373496E7075740049FC
:1026E00020676F74206865726500636F6465206998
:1026F00073005665726966696361696F6E20657201
:10270000726F7200436865636B20436F6E6E656322
:1027100074696F6E006F70656E2075702046424957
:1027200000686D6D6D2070617373776F72642063E4
:102730006F6E6669726D6174696F6E002020202073
:102740002020202020202020202020202020004980
:102750006E636F72726563742050617373436F644C
:02276000650012
:107E0000112484B714BE81FFF0D085E080938100F7
:107E100082E08093C00088E18093C10086E0809377
:107E2000C20080E18093C4008EE0C9D0259A86E02C
:107E300020E33CEF91E0309385002093840096BBD3
:107E4000B09BFECF1D9AA8958150A9F7CC24DD24C4
:107E500088248394B5E0AB2EA1E19A2EF3E0BF2EE7
:107E6000A2D0813461F49FD0082FAFD0023811F036
:107E7000013811F484E001C083E08DD089C08234E0
:107E800011F484E103C0853419F485E0A6D080C0E4
:107E9000853579F488D0E82EFF2485D0082F10E0AE
:107EA000102F00270E291F29000F111F8ED06801E7
:107EB0006FC0863521F484E090D080E0DECF843638
:107EC00009F040C070D06FD0082F6DD080E0C81688
:107ED00080E7D80618F4F601B7BEE895C0E0D1E017
:107EE00062D089930C17E1F7F0E0CF16F0E7DF06D8
:107EF00018F0F601B7BEE89568D007B600FCFDCFD4
:107F0000A601A0E0B1E02C9130E011968C91119780
:107F100090E0982F8827822B932B1296FA010C0160
:107F200087BEE89511244E5F5F4FF1E0A038BF0790
:107F300051F7F601A7BEE89507B600FCFDCF97BE46
:107F4000E89526C08437B1F42ED02DD0F82E2BD052
:107F50003CD0F601EF2C8F010F5F1F4F84911BD097
:107F6000EA94F801C1F70894C11CD11CFA94CF0C13
:107F7000D11C0EC0853739F428D08EE10CD085E9AC
:107F80000AD08FE07ACF813511F488E018D01DD067
:107F900080E101D065CF982F8091C00085FFFCCF94
:107FA0009093C60008958091C00087FFFCCF809118
:107FB000C00084FD01C0A8958091C6000895E0E648
:107FC000F0E098E1908380830895EDDF803219F02E
:107FD00088E0F5DFFFCF84E1DECF1F93182FE3DFCA
:107FE0001150E9F7F2DF1F91089580E0E8DFEE27F6
:047FF000FF270994CA
:027FFE00040479
:00000001FF
