:020000040000FA
:100000000C9462000C948A000C948A000C948A0070
:100010000C948A000C948A000C948A000C948A0038
:100020000C948A000C948A000C948A000C94530857
:100030000C948A000C948A000C948A000C948A0018
:100040000C9409080C948A000C94D7070C94B107FF
:100050000C948A000C948A000C948A000C948A00F8
:100060000C940F090C948A00000000002400270063
:100070002A0000000000250028002B0000000000DE
:1000800023002600290004040404040404040202DA
:100090000202020203030303030301020408102007
:1000A0004080010204081020010204081020000012
:1000B0000008000201000003040700000000000027
:1000C00000002A0A11241FBECFEFD8E0DEBFCDBF4B
:1000D00012E0A0E0B1E0ECE4F5E202C005900D9280
:1000E000A43EB107D9F724E0A4EEB2E001C01D920E
:1000F000A33CB207E1F710E0C2E6D0E004C02197CC
:10010000FE010E94FD0FC136D107C9F70E94FE0A09
:100110000C94A4120C9400008F929F92AF92BF9205
:10012000FF920F931F93CF93DF93F090C0042BE0C7
:100130002F1508F44CC02091C20408E512E0021B00
:10014000110927FD1395000F111F000F111F20919A
:10015000C104C8E8D0E0C21BD10927FDD395CC0F5C
:10016000DD1FCC0FDD1F4E010D2E000CAA08BB08B1
:100170009801012E000C440B550B281939094A0926
:100180005B09DC010E94810F24EB30E040E050E08D
:100190000E94570F820E931EA41EB51E8C169D063C
:1001A0002CF0E801801691060CF4E4012297CC0FA4
:1001B000DD1F2FB7F8948F2D90E0FC01EE0FFF1F8D
:1001C000E80FF91FEC5EFB4FD283C1832FBFDF9195
:1001D000CF911F910F91FF90BF90AF909F908F9004
:1001E00008958F929F92AF92BF92CF92DF92EF923B
:1001F000FF928091C20458E5C52E52E0D52EC81A50
:10020000D10887FDD394CC0CDD1CCC0CDD1C0D2C4F
:10021000000CEE08FF088091C10478E8872E912C2D
:10022000881A910887FD9394880C991C880C991C56
:10023000092C000CAA08BB088091C0048F3FD1F1A3
:1002400090E0FC01EE0FFF1FE80FF91FEC5EFB4F83
:100250008181928133E0880F991F3A95E1F7B0E0F0
:10026000A0E044E0B595A795979587954A95D1F775
:1002700002969C012F5F3F4F032E000C440B550B41
:10028000281939094A095B09A4EBB0E00E94760FEE
:10029000A7019601281939094A095B090E94570FDD
:1002A000C901FF90EF90DF90CF90BF90AF909F90EB
:1002B0008F90089590E080E0DCCF96E0899FD00198
:1002C0001124A75CBB4F90967C936E935F9791E04F
:1002D00091969C939197E091A604F091A704909138
:1002E000A504992339F0309751F0811108C080910D
:1002F00055040994309719F05C968C91FACF0895C3
:10030000AF92BF92CF92DF92EF92FF920F931F9323
:10031000CF93DF936C017B018B01040F151FEB0161
:100320005E01AE18BF08C017D10759F06991D60118
:10033000ED91FC910190F081E02DC6010995892B8A
:1003400079F7C501DF91CF911F910F91FF90EF9049
:10035000DF90CF90BF90AF900895FC01538D448DF6
:10036000252F30E0842F90E0821B930B541710F060
:10037000CF96089501970895FC01918D828D98176D
:1003800061F0A28DAE0FBF2FB11D5D968C91928D45
:100390009F5F9F73928F90E008958FEF9FEF089576
:1003A000FC01918D828D981731F0828DE80FF11D3F
:1003B000858D90E008958FEF9FEF0895FC01918D5A
:1003C000228D892F90E0805C9F4F821B91098F7353
:1003D0009927089587E793E00E94DE0121E0892BA9
:1003E00009F420E0822F089580E090E0892B29F025
:1003F0000E94EA0181110C9400000895FC01A48D73
:10040000A80FB92FB11DA35ABF4F2C91848D90E036
:1004100001968F739927848FA689B7892C93A08919
:10042000B1898C91837080648C93938D848D9813A3
:1004300006C00288F389E02D80818F7D8083089536
:10044000EF92FF920F931F93CF93DF93EC0181E024
:10045000888F9B8D8C8D98131AC0E889F9898081CB
:1004600085FF15C09FB7F894EE89FF896083E889FE
:10047000F98980818370806480839FBF81E090E0F0
:10048000DF91CF911F910F91FF90EF900895F62E7D
:100490000B8D10E00F5F1F4F0F731127E02E8C8D17
:1004A0008E110CC00FB607FCFACFE889F98980815C
:1004B00085FFF5CFCE010E94FE01F1CFEB8DEC0F51
:1004C000FD2FF11DE35AFF4FF0829FB7F8940B8F79
:1004D000EA89FB8980818062CFCFCF93DF93EC01E3
:1004E000888D8823B9F0AA89BB89E889F9898C911C
:1004F00085FD03C0808186FD0DC00FB607FCF7CFD8
:100500008C9185FFF2CF808185FFEDCFCE010E94D7
:10051000FE01E9CFDF91CF910895833081F028F477
:10052000813099F08230A9F008958730A9F08830A1
:10053000C9F08430B1F4809180008F7D03C0809138
:1005400080008F7780938000089584B58F7784BD75
:10055000089584B58F7DFBCF8091B0008F77809315
:10056000B00008958091B0008F7DF9CFCF93DF93D5
:10057000282F30E0F901E255FF4F8491F901E6564A
:10058000FF4FD491F901EA57FF4FC491CC23A1F05A
:1005900081110E948D02EC2FF0E0EE0FFF1FE45856
:1005A000FF4FA591B491EC91ED2381E090E009F427
:1005B00080E0DF91CF91089580E090E0FACF862F20
:1005C0000C94B6021F93CF93DF93282F30E0F901EC
:1005D000E255FF4F8491F901E656FF4FD491F9019E
:1005E000EA57FF4FC491CC23A9F0162F81110E9426
:1005F0008D02EC2FF0E0EE0FFF1FEE58FF4FA5919C
:10060000B4918FB7F894EC91111108C0D095DE2306
:10061000DC938FBFDF91CF911F910895DE2BF8CF30
:10062000862F642F0C94E202CF93DF9390E0FC01BD
:10063000E656FF4F24918A579F4FFC0184918823EF
:10064000C9F090E0880F991FFC01E859FF4FA59170
:10065000B491FC01EE58FF4FC591D49161110DC0CA
:100660009FB7F8948C91209582238C9388812823BE
:1006700028839FBFDF91CF910895623051F49FB7D7
:10068000F8943C91822F809583238C93E8812E2BC4
:10069000EFCF8FB7F894EC912E2B2C938FBFEACF2E
:1006A000862F642F0C9414033FB7F89480915B035A
:1006B00090915C03A0915D03B0915E0326B5A89B69
:1006C00005C02F3F19F00196A11DB11D3FBFBA2FE4
:1006D000A92F982F8827BC01CD01620F711D811DA4
:1006E000911D42E0660F771F881F991F4A95D1F729
:1006F00008958F929F92AF92BF92CF92DF92EF9226
:10070000FF924B015C010E9454036B017C010E942B
:1007100054036C197D098E099F09683E7340810559
:100720009105A8F321E0821A9108A108B10888EE8A
:10073000C80E83E0D81EE11CF11C81149104A104B1
:10074000B10429F7FF90EF90DF90CF90BF90AF906A
:100750009F908F9008952FB7F894609157037091F0
:1007600058038091590390915A032FBF08950F9316
:100770001F930E94AB0360937F0370938003809369
:1007800081039093820387E793E00E94D00197FF53
:100790001DC00E94AB0300917F0310918003209144
:1007A000810330918203601B710B820B930B0091CC
:1007B0007B0310917C0320917D0330917E036017B1
:1007C000710782079307F8F28FEF9FEF1F910F9148
:1007D00008950F931F93CF93DF93C82FD62F86E0F2
:1007E000C89FF0011124E75CFB4F11A2878D90A1F7
:1007F00081309105F1F058F082309105F1F10397C5
:1008000009F440C0DF91CF911F910F9108956623A5
:10081000C9F361E070E08C2F0E945D010E94AB0380
:100820006093910470939204809393049093940442
:10083000E9CF0E94AB0300919104109192042091A2
:10084000930430919404AB01BC01401B510B620B2B
:10085000730B8091A3049091A404B0E0A0E08417EE
:100860009507A607B70748F462E070E08C2FDF9188
:10087000CF911F910F910C945D0163E070E0D11155
:10088000C1CFF4CF70E060E0F1CF089520910B0369
:10089000260F3327331F21323105ECF420912F032B
:1008A000FC0190E080E0243069F082E00895A0919E
:1008B0000B032191AC0145515D4FA40FB52FB11D24
:1008C0002C930196861798F380910B03680F609321
:1008D0000B0380E0089581E0089508958FEF9FEF66
:1008E00008958FEF9FEF08958091E40290E0919535
:1008F000819591090895CF93DF93CB01EA01642F8D
:100900000E944604CE01DF91CF910895CF93DF93EB
:100910001F92CDB7DEB7698361E0CE0101960E94D8
:10092000460481E090E00F90DF91CF91089590E030
:1009300080E008958AE00E94B6028130910529F492
:100940009093620380936103089510926203109262
:1009500061030895CF93DF93EC0160E08E810E94E4
:10096000E20261E08E810E94E20260E08E810E94DC
:10097000E2028BE891E00197F1F7DF91CF910895C2
:10098000CF92DF92EF92FF920F931F93CF93DF935B
:100990006C017C0187E0E80EF11CD0E0C0E0062F7E
:1009A00010E0B8010C2E02C0759567950A94E2F725
:1009B0006170F70181917F010E94E2022196C430AB
:1009C000D10579F7C601DF91CF911F910F91FF906B
:1009D000EF90DF90CF900C94AA04CF92DF92EF9229
:1009E000FF920F931F93CF93DF93EC01F62E642FAA
:1009F0008C810E94E2028D818F3F19F060E00E949D
:100A0000E2020F2D10E08F8584FF25C06E0187E084
:100A1000C80ED11CF12CE12CB8010E2C02C075952A
:100A200067950A94E2F76170F60181916F010E9467
:100A3000E202FFEFEF1AFF0A88E0E816F10461F71F
:100A4000CE01DF91CF911F910F91FF90EF90DF903A
:100A5000CF900C94AA04B80184E0759567958A95A7
:100A6000E1F7CE010E94C0046F2DCE01DF91CF913E
:100A70001F910F91FF90EF90DF90CF900C94C004E6
:100A800040E0682F88EA94E00C94ED0481E00E9435
:100A900040058BE39FE10197F1F70895CF93DF9332
:100AA000823029F49091B70498609093B7048093B2
:100AB000BB041092BC0480E48093BD0480E1809369
:100AC000BE0480E58093BF0461E08091AC040E9485
:100AD00014038091AD048F3F19F061E00E9414036C
:100AE00061E08091AE040E941403C8EAD4E09E0144
:100AF000285A34408091B70484FD0BC084E090E014
:100B000021962817390744F461E08E810E9414036E
:100B1000EECF88E090E0F4CF8BE39DE00197F1F712
:100B200060E08091AC040E94E20260E08091AE043B
:100B30000E94E2028091AD048F3F19F060E00E94B4
:100B4000E2028091B70484FD34C063E088EA94E057
:100B50000E94C004CBE4D6E4CE010197F1F763E034
:100B600088EA94E00E94C0042197F1F763E088EAE4
:100B700094E00E94C00483E592E00197F1F762E0FF
:100B800088EA94E00E94C0048091B70480620E94C9
:100B9000400584E08093B8048CE00E9440050E94E8
:100BA000460582E08093B90486E0DF91CF910C94F2
:100BB000400580620E9440058BE496E40197F1F7BE
:100BC0008091B70480620E94400583E592E001971E
:100BD000F1F78091B70480620E944005D5CF9091D3
:100BE000BB04891710F08FEF890FE82FF0E0E8556C
:100BF000FB4F848980680C94400541E00E94ED041D
:100C000081E090E00895FB0101900020E9F7319721
:100C1000AF01461B570BDC01ED91FC910280F38183
:100C2000E02D0994CF93DF93BC0187E793E00E9406
:100C30000306EC0160E471E087E793E00E9403069D
:100C40008C0F9D1FDF91CF9108958F929F92AF924D
:100C5000BF92CF92DF92EF92FF920F931F93CF93A9
:100C6000DF93CDB7DEB7A1970FB6F894DEBF0FBE06
:100C7000CDBF6C01990FEE08FF08F7FE4BC06DE287
:100C800087E793E00E9420028C0122273327A901E5
:100C90002C193D094E095F0919A2CE0181967C01EC
:100CA0009AE0892E912CA12CB12CCA01B901A50181
:100CB00094010E94C00F605DF70162937F012115CE
:100CC00031054105510589F790E080E0309729F022
:100CD000BF0187E793E00E940306080F191F60E435
:100CE00071E087E793E00E940306800F911FA196B1
:100CF0000FB6F894DEBF0FBECDBFDF91CF911F912D
:100D00000F91FF90EF90DF90CF90BF90AF909F90AA
:100D10008F900895A701960119A28E010F5D1F4FB4
:100D20008AE0C82ED12CE12CF12CCA01B901A7010F
:100D300096010E94C00F605DF80162938F0121153A
:100D400031054105510589F7309739F0BF0187E733
:100D500093E00E9403068C01C2CF10E000E0BFCFF9
:100D60000C9403061F93CF93DF9385ED8093BC0013
:100D70008091E7029091E802A091E902B091EA0225
:100D80000796A11DB11D23E0B695A7959795879568
:100D90002A95D1F72091BC0024FD03C010922F03A7
:100DA00052C04091E7025091E8026091E9027091CF
:100DB000EA02452B462B472B69F30097A105B105A5
:100DC00041F025E32A95F1F700000197A109B10947
:100DD000E1CF8091E602C1E0C093E502882399F15A
:100DE000D091B8001091BA008091BC008A7B8093AA
:100DF000BC0060E082E10E94E20260E083E10E94C8
:100E0000E20210922F03C09331031092300361E08D
:100E100082E10E94E20261E083E10E94E2028091AD
:100E2000B9008E7F8093B9008091B9008D7F809347
:100E3000B90088E48093B80085E48093BC001093E7
:100E4000BA00D093B800DF91CF911F9108950E940E
:100E5000460563E471E088EA94E00E94B00684EB02
:100E600090E00E948C0060EA7FE080E090E00E94C9
:100E7000790360E089E00E94E2020E94460580E07A
:100E80000E94EF0561E571E088EA94E00E94B006F7
:100E900064EF71E080E090E00E94790381E00E94BD
:100EA000EF05E9E6F3E084E0DF011D928A95E9F7BA
:100EB00010926E0310926D031092600310925F0304
:100EC00010926F0310927403089581E00E94EF0561
:100ED00060EC72E088EA94E00E94B00681E00E9433
:100EE000EF0562E671E088EA94E00E94B00664EFE4
:100EF00071E080E090E00E9479030E94460580E066
:100F00000E94EF0561E571E088EA94E00E94B00676
:100F100064EF71E080E090E00E94790381E00E943C
:100F2000EF05E9E6F3E084E0DF011D928A95E9F739
:100F300010926E0310926D031092600310925F0383
:100F400061E089E00E94E2020E94F100892B21F019
:100F500090E080E00E948C0010926F031092740366
:100F600008951F920F920FB60F9211242F933F9363
:100F70004F935F936F937F938F939F93AF93BF93A1
:100F8000EF93FF9387E793E00E94FE01FF91EF91BB
:100F9000BF91AF919F918F917F916F915F914F9191
:100FA0003F912F910F900FBE0F901F9018951F9299
:100FB0000F920FB60F9211242F938F939F93EF935D
:100FC000FF93E0918703F09188038081E0918D0386
:100FD000F0918E0382FD1BC09081809190038F5F02
:100FE0008F7320919103821741F0E0919003F0E01C
:100FF000E958FC4F958F80939003FF91EF919F915B
:101000008F912F910F900FBE0F901F901895808198
:10101000F4CF1F920F920FB60F9211242F933F938C
:101020008F939F93AF93BF938091570390915803F1
:10103000A0915903B0915A033091560323E0230F36
:101040002D3758F50196A11DB11D209356038093AD
:10105000570390935803A0935903B0935A03809178
:101060005B0390915C03A0915D03B0915E030196D8
:10107000A11DB11D80935B0390935C03A0935D035E
:10108000B0935E03BF91AF919F918F913F912F914C
:101090000F900FBE0F901F90189526E8230F029611
:1010A000A11DB11DD2CF1F920F920FB60F92112426
:1010B0002F933F934F935F936F937F938F939F9360
:1010C000AF93BF93CF93DF93EF93FF93809155033B
:1010D000C0913804D0E087FF24C0109285001092A0
:1010E0008400809155038F5F809355038091550351
:1010F000082E000C990B8C179D0724F48091550342
:101100008C30C4F1809184009091850004968034E5
:101110009C4908F47AC080918400909185000496DF
:1011200076C080915503082E000C990B8C179D07F3
:10113000C4F6E09155038E2FEE0F990BFC01EE0FD4
:10114000FF1FE80FF91FEC5EFB4F808186FFC9CFC0
:10115000E09155038E2FEE0F990BFC01EE0FFF1F50
:10116000E80FF91FEC5EFB4F808160E08F730E94F7
:10117000E202B7CF2091840030918500E0915503C1
:101180008E2FEE0F990BFC01EE0FFF1FE80FF91FDA
:10119000EC5EFB4F81819281820F931F90938900B7
:1011A00080938800E09155038E2FEE0F990BFC0180
:1011B000EE0FFF1FE80FF91FEC5EFB4F808186FFEB
:1011C00011C0E09155038E2FEE0F990BFC01EE0F2D
:1011D000FF1FE80FF91FEC5EFB4F808161E08F730A
:1011E0000E94E202FF91EF91DF91CF91BF91AF9109
:1011F0009F918F917F916F915F914F913F912F912F
:101200000F900FBE0F901F90189580E49CE990936B
:101210008900809388008FEF80935503E3CF1F925E
:101220000F920FB60F9211242F933F934F935F931A
:101230006F937F938F939F93AF93BF93EF93FF939E
:101240008091B900887F803609F44AC0F0F5883271
:1012500009F4A5C018F5803109F499C0B8F48823C1
:1012600009F4F5C0883009F492C0FF91EF91BF9165
:10127000AF919F918F917F916F915F914F913F912E
:101280002F910F900FBE0F901F901895883109F481
:1012900086C0803251F780932E0314C0803409F445
:1012A0009BC040F48033B9F38833F9F680932E0362
:1012B00085ECAEC0803509F483C0883509F494C04C
:1012C000883499F60E94B206D0CF883909F48AC0D2
:1012D00038F5883729F050F4883611F0803729F630
:1012E00083E080932F0310922D0355C0883809F4B2
:1012F00079C0803919F0803809F0B7CF80912D037B
:10130000803208F06FC0E0912D0381E08E0F809352
:101310002D038091BB00F0E0E35FFC4F80833BC076
:10132000803B39F0D0F4803A09F477C0883A09F06C
:101330009CCF84E080932F0310920C0310920B0338
:10134000F0E0E0E0099580910B0381110FC081E08E
:1013500080930B031092EB0209C0803C09F4A8CFE4
:10136000883C09F4A5CF883B09F07FCFE0910C03BE
:1013700081E08E0F80930C03F0E0E551FD4F8081FA
:101380008093BB0090910C0380910B0329C0809146
:1013900054038093BB0085EC8093BC0066CF909192
:1013A000530380915203981758F5E091530381E05D
:1013B0008E0F80935303F0E0EE5CFC4F8081E9CF09
:1013C000E091530381E08E0F809353038091BB0023
:1013D000F0E0EE5CFC4F80839091530380915203C8
:1013E0009817C8F285E8D8CFE091530381E08E0FBB
:1013F000809353038091BB00F0E0EE5CFC4F808350
:101400008091310381115ECF81E08093300384EAC3
:101410008093BC0010922F0328CF85EC8093BC00F2
:1014200010922F0380912D03803230F4E0912D0330
:10143000F0E0E35FFC4F108260912D0370E08DE0DF
:1014400093E0F0E0E0E0099510922D030ECF1092AA
:101450002E0338CF10927A031092790388EE93E02E
:10146000A0E0B0E080937B0390937C03A0937D0386
:10147000B0937E038CE191E090937803809377039F
:1014800085EC90E0909384038093830384EC90E058
:10149000909386038093850380EC90E0909388037B
:1014A0008093870381EC90E090938A038093890373
:1014B00082EC90E090938C0380938B0386EC90E019
:1014C00090938E0380938D0310929003109291035A
:1014D0001092920310929303809138048C3008F09C
:1014E00089C091E0980F909338048093C00490E0F5
:1014F000FC01EE0FFF1FE80FF91FEC5EFB4F88EBBE
:101500009BE0928381831092AB041092AA0488E33B
:1015100091E09093A9048093A80482E18093AC04A5
:101520008FEF8093AD0483E18093AE0481E18093DB
:10153000AF0480E18093B0048FE08093B1048EE02B
:101540008093B2041092B3041092B4041092B504C4
:101550001092B6041092B70481E00E944E051092DA
:101560003B0410923F0410923E04109240048EE21D
:1015700091E090933A0480933904E5E5F4E0108219
:10158000148213821582369684E0E139F807B9F7A0
:1015900084E091E090939C0480939B0480E091E030
:1015A00090939E0480939D0484E080939F04809395
:1015B000A00488E091E090939A04809399048AE0D3
:1015C00090E09093A2048093A10484EF91E0909323
:1015D000A4048093A3041092A7041092A60410926E
:1015E0009504109296041092970410929804109209
:1015F000A50408958FEF8093C00485CF789484B5B7
:10160000826084BD84B5816084BD85B5826085BDFE
:1016100085B5816085BD80916E00816080936E008C
:10162000109281008091810082608093810080917E
:10163000810081608093810080918000816080932F
:1016400080008091B10084608093B1008091B000EF
:1016500081608093B00080917A00846080937A00EA
:1016600080917A00826080937A0080917A00816014
:1016700080937A0080917A00806880937A0010923B
:10168000C100E0918703F091880382E08083E091BC
:101690008303F09184031082E0918503F091860327
:1016A0008FEC808310928F03E0918B03F0918C0379
:1016B00086E08083E0918903F0918A0380818061D4
:1016C0008083E0918903F0918A0380818860808320
:1016D000E0918903F0918A03808180688083E091A2
:1016E0008903F0918A0380818F7D808383E791E075
:1016F0000E94120661E089E00E94140362E08AE021
:101700000E94140360E08DE00E9414038091C004E5
:101710008C3008F051C061E08CE00E94140380918D
:10172000C004282F30E0F901EE0FFF1FE20FF31F76
:10173000EC5EFB4F9081907C9C6090831092C10482
:101740001092C2042CE0622F0E94F10F829FB00120
:10175000112430E020E0AB01420F531FFA01EE0FDD
:10176000FF1FE40FF51FEC5EFB4F908196FD16C046
:101770002F5F3F4F2C30310571F781110FC0109250
:10178000800082E080938100109285001092840096
:10179000B19A80916F00826080936F00E091C004E5
:1017A0008E2F90E0FC01EE0FFF1FE80FF91FEC5E9B
:1017B000FB4F80818064808390E080E00E948C00F9
:1017C00082E00E944E0580915F0390916003892B17
:1017D00069F461E571E088EA94E00E94B0068EE762
:1017E00091E00E94120681E00E94EF058091B8040A
:1017F000982F92609093B8048A600E94400561E03F
:1018000089E00E94E20210926E0310926D03109222
:1018100074030E94AB036093700370937103809311
:10182000720390937303412C512C32014394222470
:101830002A94322C60E0C62E60E0D62E0E949A04D4
:101840008DE00E94B6022091760328171906A9F0B0
:101850008FE891E00E9412068DE00E94B60221E01E
:10186000892B09F420E0209376038AE00E94B602D7
:10187000892B09F0C6C00E94650787E793E00E94A4
:10188000DE01892B09F48CC06AE070E080E090E012
:101890000E9479030E94B703FC0197FDBCC08D3202
:1018A000910521F0C0970A9708F0AEC0812C912CC9
:1018B0005401C0E0E130F105D9F0ED32F10509F451
:1018C000A8C0CF01C0970A9798F4AAE0B0E0A5019C
:1018D00094010E94760F4F01FF0FAA08BB08860EE5
:1018E000971EA81EB91E20E3821A9108A108B1080C
:1018F00087E793E00E94BC010E94B703FC01C097F8
:101900000A97C0F2E130F105A9F2CC2341F0B0947E
:10191000A09490948094811C911CA11CB11C9F9256
:101920008F928CE991E09F938F9327E633E03F936A
:101930002F930E9403106FE971E087E793E00E9404
:10194000B00687E693E00E94120680916703082E96
:10195000000C990BC09790936603809365030E94D7
:10196000250680916803082E000C990BC097909370
:101970006403809363030E9425060F900F900F90DD
:101980000F900F900F9080916503909166038230C5
:10199000910509F472C00CF042C0019709F45DC0D2
:1019A000E1E0E093A5040E94AB030091950410913F
:1019B00096042091970430919804AB01BC01401B20
:1019C000510B620B730B8091A1049091A204B0E0C3
:1019D000A0E084179507A607B70708F0BFC1C0E0CD
:1019E00080919F04C81708F080C0E0919B04F0919B
:1019F0009C04EC0FF11D62E080810E941403CF5F14
:101A0000EFCF0E94270739CF87E793E00E94BC0100
:101A100041CFC1E06DCF812C912C540180CF833018
:101A2000910581F1049709F0BBCF86E092E00E9416
:101A3000120664EF71E080E090E00E9479038091EB
:101A40006303909164030097E1F1019709F443C0A7
:101A500010926F038EE292E00AC00E949A04809175
:101A6000610390916203019729F486EB91E00E9453
:101A7000120696CF82ED91E0FACF0E94F1000E940B
:101A800025068ECF8FEE91E00E94120680916303AF
:101A9000909164038130910541F08230910551F0BD
:101AA000892B09F07DCF60E001C061E08BE00E94EE
:101AB000E20276CF8BE00E94B60261E0892BB1F39F
:101AC000F2CF88E080936F0386E192E00E941206D5
:101AD0000E94650765CF91E090936F0381E292E0E9
:101AE0000E9412060E9427075BCF912C8091A004D0
:101AF000981608F05FC0092D10E0E0919D04F09168
:101B00009E04E00FF11F61E080810E941403E091C8
:101B10009D04F0919E04E00FF11F60E080810E941F
:101B2000E202D301C201092C04C0880F991FAA1F29
:101B3000BB1F0A94D2F75C017C01E094F094812CE5
:101B400080919F048816F8F4C82DD0E0E0919B04A2
:101B5000F0919C04EC0FFD1F80810E94B602249638
:101B6000CC0FDD1FC75CDB4F892B41F48881998145
:101B70008A299B29998388838394E2CF88819981DC
:101B80008E219F21F7CFE0919D04F0919E04E00FFC
:101B9000F11F61E080810E94E20280919D0490919A
:101BA0009E04080F191F60E0F80180810E94140351
:101BB00093949CCFC9E3D4E0FE01878D90A1892B3B
:101BC00021F4148E368E258E11A2369624E0E53748
:101BD000F20799F710E080919F04181708F053C09E
:101BE00000E0812F90E0880F991FFC01EF5BFB4F15
:101BF0007F012091A004021708F043C0F701608123
:101C00007181002E02C0769567950A94E2F7129FC3
:101C100090011124200F311DE9E3F4E080E0458DAF
:101C2000568D2417350709F440C18F5F36968A30E8
:101C3000B1F760FF24C0E9E3F4E090E080E0448D78
:101C4000411118C0E0919904F0919A04E20FF31F3A
:101C5000408156E0589FF001599FF00D1124E75C38
:101C6000FB4F448F368F258F10A2178E61E00E94A4
:101C7000E90305C0019636968A30910501F70F5F9A
:101C8000B8CF1F5FA8CF10E089A18111182F269629
:101C900084E0C537D807C1F70E94AB036093950471
:101CA000709396048093970490939804112309F4F9
:101CB00055C080915A04882309F450C0809158047B
:101CC00090915904019709F049C08091550480937F
:101CD000750390917403911183C020916D0330912D
:101CE0006E0381113FC02430310561F5E9E6F3E070
:101CF00001900020E9F7EF56F34021F582E00E94C1
:101D0000EF0562E472E088EA94E00E94B0068091F8
:101D10007403811117C067E572E087E793E00E94C2
:101D2000030689E693E00E9412060E94AB036093CB
:101D30007003709371038093720390937303E1E0D7
:101D4000E0937403C114D10409F478CD0E94EA0130
:101D5000882309F473CD0E94000070CD1092A50471
:101D600080E0B5CF24303105ACF58332B1F18A3251
:101D700049F381E692E00E941206C091750341E0AA
:101D80006C2F88EA94E00E94ED046C2F87E793E0C3
:101D90000E94200260E471E087E793E00E9403065E
:101DA00080916D0390916E03FC01E759FC4F2091E7
:101DB00075032083019690936E0380936D036CE608
:101DC00072E087E793E00E94B00689E693E00E9404
:101DD0001206B8CF833209F0B5CF0E946507B2CFA3
:101DE0000E94AB038090700390907103A0907203E7
:101DF000B0907303681979098A099B0961317742A8
:101E000081059105D8F00E94460580E00E94EF050B
:101E100064E772E088EA94E00E94B00681E00E94E4
:101E2000EF0566E872E088EA94E00E94B00664EF8D
:101E300071E080E090E00E947903CFCF0E94AB0375
:101E4000681979098A099B096131774281059105F1
:101E500048F580916F03813001F1883009F072CF2D
:101E600063EA72E087E793E00E94B00680E00E9498
:101E7000EF056EEB72E088EA94E00E94B00680E025
:101E80000E94EF0561ED72E088EA94E00E94B006DE
:101E900068EE73E080E090E0CECF0E94270787E9EC
:101EA00092E095CF83E791E092CF6170E0CE052E6E
:101EB00097FB1EF400940E946E0F57FD07D00E94FE
:101EC000C00F07FC03D04EF40C946E0F5095409554
:101ED000309521953F4F4F4F5F4F089590958095D6
:101EE000709561957F4F8F4F9F4F08950E94E20F2D
:101EF000A59F900DB49F900DA49F800D911D11245E
:101F00000895B7FF0C94760F0E94760F821B930BF7
:101F100008952F923F924F925F926F927F928F928D
:101F20009F92AF92BF92CF92DF92EF92FF920F9368
:101F30001F93CF93DF93CDB7DEB7CA1BDB0B0FB672
:101F4000F894DEBF0FBECDBF09942A88398848882F
:101F50005F846E847D848C849B84AA84B984C884C5
:101F6000DF80EE80FD800C811B81AA81B981CE0FBC
:101F7000D11D0FB6F894DEBF0FBECDBFED010895A1
:101F8000A1E21A2EAA1BBB1BFD010DC0AA1FBB1F7D
:101F9000EE1FFF1FA217B307E407F50720F0A21BEF
:101FA000B30BE40BF50B661F771F881F991F1A945C
:101FB00069F760957095809590959B01AC01BD0186
:101FC000CF010895A29FB001B39FC001A39F700DE0
:101FD000811D1124911DB29F700D811D1124911D31
:101FE0000895991B79E004C0991F961708F0961B75
:101FF000881F7A95C9F780950895EE0FFF1F059009
:10200000F491E02D0994AEE0B0E0E9E0F0E10C9449
:10201000970F0D891E8986E08C831A8309838FEFC1
:102020009FE79E838D83AE01475E5F4F6F89788DFA
:10203000CE0101960E9426102F813885020F131FB2
:10204000F80110822E96E4E00C94B30FABE0B0E000
:10205000ECE2F0E10C94890F7C013B018A01FC0168
:1020600017821682838181FFC8C1CE0101965C016F
:10207000F7019381F30193FD859193FF81913F01D6
:10208000882309F453C1853239F493FD859193FF78
:1020900081913F01853229F4B70190E00E94161228
:1020A000E7CF912C212C312CFFE1F31538F08B3246
:1020B00011F190F4803209F1833229F137FC3CC0F0
:1020C00020ED280F2A3050F536FE20C08AE0989E79
:1020D000200D1124922E06C08D3291F0803371F7BD
:1020E000689430F8F30193FD859193FF81913F014E
:1020F0008111DACF21C0689431F8689432F8F2CFB8
:10210000689433F8EFCF689434F8ECCFEAE02E9E71
:10211000200D1124222E689435F8E4CF8E3229F454
:1021200036FC04C1689436F8DDCF8C3619F4689417
:1021300037F8D8CF8836B1F2982F9F7D95549330D9
:10214000E0F08336A1F18337C1F1833509F063C034
:102150002801F2E04F0E511CF801C080D180692D9A
:1021600070E036FC02C06FEF7FEFC6010E940012E4
:102170004C01689437F882010AC00C5F1F4FFFE3DF
:10218000F98388248394912C6501E89437F833FE11
:102190002DC0522C8114910471F5552009F468CF9B
:1021A000B70180E290E00E9416125A94F6CFF8012F
:1021B000808189830E5F1F4FE4CF2801F2E04F0E2C
:1021C000511CF801C080D180692D70E036FC02C03E
:1021D0006FEF7FEFC6010E940B124C018201D5CF39
:1021E000B70180E290E00E9416122A942814190484
:1021F00009F0B0F7CECFF60137FC859137FE81911B
:102200006F01B70190E00E94161251105A94F1E04C
:102210008F1A9108BFCF843619F0893609F077C03C
:10222000F80137FE6BC060817181828193810C5F00
:102230001F4FF32DFF763F2E97FF09C09095809595
:10224000709561957F4F8F4F9F4F689437F82AE0C4
:1022500030E0A5010E944612C82ECA188C2C432CCF
:1022600036FE0CC0E89440F8C91440F434FE05C0B2
:1022700032FC03C0F32DFE7E4F2E892C44FE95C008
:10228000FE01EC0DF11D8081803309F087C0242D03
:10229000297E422E842D8870582E43FC95C040FE26
:1022A0008FC09C2C821418F42C0C922C981844FE8D
:1022B00091C0B70180E390E00E94161242FE09C06F
:1022C00088E790E041FE02C088E590E0B7010E94F7
:1022D0001612C91408F48AC0CA94D12C9FEFC91AE7
:1022E000D90ACA0CDB1CF60182916F01B70190E09C
:1022F0000E941612AC14BD04B1F74FCF60817181FA
:10230000072E000C880B990B0E5F1F4F92CFD32C1A
:10231000E894D4F82AE030E0853739F1232D297F7D
:10232000D22E8F3601F148F48835A9F0F701868165
:1023300097812B96E2E10C94A50F803749F08837FE
:10234000A9F7D4FE02C06894D2F820E130E00DC0B5
:102350006894D4F8F6CF34FE03C0822F8660D82E5E
:1023600020E132E002C028E030E0F801D7FE0FC0E3
:1023700060817181828193810C5F1F4FA5010E9452
:102380004612C82ECA183D2CE89437F867CF6081F2
:10239000718190E080E00E5F1F4FF0CF42FC02C0E1
:1023A000839478CF8394839475CF842D867809F4B1
:1023B00071CFF6CFB70180E290E00E9416128394AD
:1023C0008214C0F3512C73CF522C5818821408F485
:1023D0006ECFF8CF842D867809F47BCF8BE241FE57
:1023E00080E247FC8DE2B70190E071CFB70180E356
:1023F00090E00E9416129A946CCF8FEF9FEF99CFC6
:10240000FC010590615070400110D8F780959095BF
:102410008E0F9F1F0895FC016150704001900110C4
:10242000D8F7809590958E0F9F1F08950F931F9357
:10243000CF93DF93182F092FEB018B8181FD09C00A
:102440001FEF0FEF812F902FDF91CF911F910F91F1
:10245000089582FF14C02E813F818C819D812817B1
:1024600039073CF4E881F981CF010196998388838B
:1024700010838E819F8101969F838E83E3CFE885B1
:10248000F985812F0995892BA1F3DACFFA01AA27C3
:10249000283051F1203181F1E8946F936E7F6E5FA7
:1024A0007F4F8F4F9F4FAF4FB1E03ED0B4E03CD055
:1024B000670F781F891F9A1FA11D680F791F8A1F38
:1024C000911DA11D6A0F711D811D911DA11D20D09F
:1024D00009F468943F912AE0269F11243019305D59
:1024E0003193DEF6CF010895462F4770405D41934A
:1024F000B3E00FD0C9F7F6CF462F4F70405D4A3397
:1025000018F0495D31FD4052419302D0A9F7EACF5E
:10251000B4E0A6959795879577956795BA95C9F78D
:1025200000976105710508959B01AC010A2E069480
:102530005795479537952795BA95C9F7620F731F39
:10254000841F951FA01D0895F894FFCF0506070866
:1025500004030201313233413435364237383943CE
:102560002A3023440000000020028001AD016D02EA
:10257000DE01BC01D0010000000050031003DF02A7
:1025800000000000FD058001970445040D0A00507D
:102590006173732041636365707465640050617397
:1025A00073776F7264204163636573733A00446F9D
:1025B0006F72204C6F636B656420202020200069BF
:1025C0006D20776F726B696E670070617373776FE0
:1025D0007264204163636573733A004920616D2022
:1025E000746F67676C6564002564000A53657269DF
:1025F000616C20697320617661696C61626C653A17
:1026000020006D79646F6F7273656E736F723B70CB
:10261000726F7065727479323A54727565006D79B3
:10262000646F6F7273656E736F723B70726F7065FB
:10263000727479323A46616C7365006C69676874CC
:1026400020636F6E74726F6C206163636570746574
:1026500064006576616C756174696E672070617382
:10266000730077726F6E67207061737300636F72AF
:102670007265637420706173730064656661756C64
:1026800074207061737320726573756C7400636875
:1026900065636B696E672050617373776F72642E28
:1026A0002E2E0070617373496E7075740049206737
:1026B0006F74206865726500636F646520697300DC
:1026C0005665726966696361696F6E206572726FC3
:1026D0007200436865636B20436F6E6E6563746957
:1026E0006F6E006F70656E207570204642490068FD
:1026F0006D6D6D2070617373776F726420636F6EA0
:102700006669726D6174696F6E0020202020202040
:1027100020202020202020202020202000496E631F
:102720006F72726563742050617373436F646500E8
:107E0000112484B714BE81FFF0D085E080938100F7
:107E100082E08093C00088E18093C10086E0809377
:107E2000C20080E18093C4008EE0C9D0259A86E02C
:107E300020E33CEF91E0309385002093840096BBD3
:107E4000B09BFECF1D9AA8958150A9F7CC24DD24C4
:107E500088248394B5E0AB2EA1E19A2EF3E0BF2EE7
:107E6000A2D0813461F49FD0082FAFD0023811F036
:107E7000013811F484E001C083E08DD089C08234E0
:107E800011F484E103C0853419F485E0A6D080C0E4
:107E9000853579F488D0E82EFF2485D0082F10E0AE
:107EA000102F00270E291F29000F111F8ED06801E7
:107EB0006FC0863521F484E090D080E0DECF843638
:107EC00009F040C070D06FD0082F6DD080E0C81688
:107ED00080E7D80618F4F601B7BEE895C0E0D1E017
:107EE00062D089930C17E1F7F0E0CF16F0E7DF06D8
:107EF00018F0F601B7BEE89568D007B600FCFDCFD4
:107F0000A601A0E0B1E02C9130E011968C91119780
:107F100090E0982F8827822B932B1296FA010C0160
:107F200087BEE89511244E5F5F4FF1E0A038BF0790
:107F300051F7F601A7BEE89507B600FCFDCF97BE46
:107F4000E89526C08437B1F42ED02DD0F82E2BD052
:107F50003CD0F601EF2C8F010F5F1F4F84911BD097
:107F6000EA94F801C1F70894C11CD11CFA94CF0C13
:107F7000D11C0EC0853739F428D08EE10CD085E9AC
:107F80000AD08FE07ACF813511F488E018D01DD067
:107F900080E101D065CF982F8091C00085FFFCCF94
:107FA0009093C60008958091C00087FFFCCF809118
:107FB000C00084FD01C0A8958091C6000895E0E648
:107FC000F0E098E1908380830895EDDF803219F02E
:107FD00088E0F5DFFFCF84E1DECF1F93182FE3DFCA
:107FE0001150E9F7F2DF1F91089580E0E8DFEE27F6
:047FF000FF270994CA
:027FFE00040479
:00000001FF
