:020000040000FA
:100000000C9462000C948A000C948A000C948A0070
:100010000C948A000C948A000C948A000C948A0038
:100020000C948A000C948A000C948A000C94550855
:100030000C948A000C948A000C948A000C948A0018
:100040000C940B080C948A000C94D9070C94B307F9
:100050000C948A000C948A000C948A000C948A00F8
:100060000C9411090C948A00000000002400270061
:100070002A0000000000250028002B0000000000DE
:1000800023002600290004040404040404040202DA
:100090000202020203030303030301020408102007
:1000A0004080010204081020010204081020000012
:1000B0000008000201000003040700000000000027
:1000C00000002C0A11241FBECFEFD8E0DEBFCDBF49
:1000D00013E0A0E0B1E0ECEDF5E202C005900D9276
:1000E000A230B107D9F724E0A2E0B3E001C01D922D
:1000F000A53EB207E1F710E0C2E6D0E004C02197C8
:10010000FE010E944510C136D107C9F70E94000BBD
:100110000C94EC120C940000CF92DF92EF92FF92BD
:10012000DC01A03282E0B807D4F5A53BB10514F09C
:10013000A4EBB0E04091E30428E830E0241B31094F
:1001400047FD3395220F331F220F331F6901330FF1
:10015000EE08FF084091E40428E532E0241B310951
:1001600047FD3395220F331F220F331F032E000C40
:10017000440B550B2C193D094E095F09B7FF02C00E
:10018000B0E0A0E00E94C90F24EB30E040E050E076
:100190000E949F0FC20ED31EE41EF51ED601E091F1
:1001A000E204EC3080F52091E30488E890E0821BC3
:1001B000910927FD9395880F991F880F991FA817FC
:1001C000B90784F02091E40488E592E0821B91094C
:1001D00027FD9395880F991F880F991FA817B907B6
:1001E0000CF4CD010297880F991F4FB7F8942E2F6A
:1001F00030E0F901EE0FFF1FE20FF31FEA5CFB4F47
:10020000928381834FBFFF90EF90DF90CF9008954E
:100210008F929F92AF92BF92CF92DF92EF92FF9216
:100220008091E40458E5C52E52E0D52EC81AD108B5
:1002300087FDD394CC0CDD1CCC0CDD1C0D2C000CEC
:10024000EE08FF088091E30478E8872E912C881A45
:10025000910887FD9394880C991C880C991C092C93
:10026000000CAA08BB088091E2048F3FD1F190E016
:10027000FC01EE0FFF1FE80FF91FEA5CFB4F8181C5
:10028000928133E0880F991F3A95E1F7B0E0A0E042
:1002900044E0B595A795979587954A95D1F702962D
:1002A0009C012F5F3F4F032E000C440B550B281968
:1002B00039094A095B09A4EBB0E00E94BE0FA7010F
:1002C0009601281939094A095B090E949F0FC90143
:1002D000FF90EF90DF90CF90BF90AF909F908F9066
:1002E000089590E080E0DCCF96E0899FD001112452
:1002F000A55ABB4F90967C936E935F9791E0919631
:100300009C939197E091C804F091C9049091C7041F
:10031000992339F0309751F0811108C0809177040A
:100320000994309719F05C968C91FACF0895AF92AA
:10033000BF92CF92DF92EF92FF920F931F93CF93D2
:10034000DF936C017B018B01040F151FEB015E0134
:10035000AE18BF08C017D10759F06991D601ED91C9
:10036000FC910190F081E02DC6010995892B79F768
:10037000C501DF91CF911F910F91FF90EF90DF901A
:10038000CF90BF90AF900895FC01538D448D252FE1
:1003900030E0842F90E0821B930B541710F0CF961F
:1003A000089501970895FC01918D828D981761F051
:1003B000A28DAE0FBF2FB11D5D968C91928D9F5F68
:1003C0009F73928F90E008958FEF9FEF0895FC0147
:1003D000918D828D981731F0828DE80FF11D858DFA
:1003E00090E008958FEF9FEF0895FC01918D228D8D
:1003F000892F90E0805C9F4F821B91098F73992712
:10040000089589E993E00E94F50121E0892B09F420
:1004100020E0822F089580E090E0892B29F00E944F
:10042000010281110C9400000895FC01A48DA80F15
:10043000B92FB11DA35ABF4F2C91848D90E0019626
:100440008F739927848FA689B7892C93A089B18946
:100450008C91837080648C93938D848D981306C0E7
:100460000288F389E02D80818F7D80830895EF924B
:10047000FF920F931F93CF93DF93EC0181E0888F5E
:100480009B8D8C8D98131AC0E889F989808185FF2E
:1004900015C09FB7F894EE89FF896083E889F989D0
:1004A00080818370806480839FBF81E090E0DF91D2
:1004B000CF911F910F91FF90EF900895F62E0B8D25
:1004C00010E00F5F1F4F0F731127E02E8C8D8E11E0
:1004D0000CC00FB607FCFACFE889F989808185FF47
:1004E000F5CFCE010E941502F1CFEB8DEC0FFD2F61
:1004F000F11DE35AFF4FF0829FB7F8940B8FEA8902
:10050000FB8980818062CFCFCF93DF93EC01888D10
:100510008823B9F0AA89BB89E889F9898C9185FD7E
:1005200003C0808186FD0DC00FB607FCF7CF8C910C
:1005300085FFF2CF808185FFEDCFCE010E941502AD
:10054000E9CFDF91CF910895833081F028F4813095
:1005500099F08230A9F008958730A9F08830C9F069
:100560008430B1F4809180008F7D03C08091800041
:100570008F7780938000089584B58F7784BD089528
:1005800084B58F7DFBCF8091B0008F778093B000D2
:1005900008958091B0008F7DF9CFCF93DF93282FFE
:1005A00030E0F901E255FF4F8491F901E656FF4F23
:1005B000D491F901EA57FF4FC491CC23A1F08111E6
:1005C0000E94A402EC2FF0E0EE0FFF1FE458FF4F53
:1005D000A591B491EC91ED2381E090E009F480E0E5
:1005E000DF91CF91089580E090E0FACF862F0C94B0
:1005F000CD021F93CF93DF93282F30E0F901E2550E
:10060000FF4F8491F901E656FF4FD491F901EA5763
:10061000FF4FC491CC23A9F0162F81110E94A40290
:10062000EC2FF0E0EE0FFF1FEE58FF4FA591B491B5
:100630008FB7F894EC91111108C0D095DE23DC93AC
:100640008FBFDF91CF911F910895DE2BF8CF862FBA
:10065000642F0C94F902CF93DF9390E0FC01E656EF
:10066000FF4F24918A579F4FFC0184918823C9F042
:1006700090E0880F991FFC01E859FF4FA591B491B4
:10068000FC01EE58FF4FC591D49161110DC09FB789
:10069000F8948C91209582238C9388812823288339
:1006A0009FBFDF91CF910895623051F49FB7F894C6
:1006B0003C91822F809583238C93E8812E2BEFCF62
:1006C0008FB7F894EC912E2B2C938FBFEACF862F07
:1006D000642F0C942B033FB7F89480917903909189
:1006E0007A03A0917B03B0917C0326B5A89B05C03B
:1006F0002F3F19F00196A11DB11D3FBFBA2FA92FA1
:10070000982F8827BC01CD01620F711D811D911D9D
:1007100042E0660F771F881F991F4A95D1F7089509
:100720008F929F92AF92BF92CF92DF92EF92FF9201
:100730004B015C010E946B036B017C010E946B0307
:100740006C197D098E099F09683E734081059105EA
:10075000A8F321E0821A9108A108B10888EEC80E1A
:1007600083E0D81EE11CF11C81149104A104B104A2
:1007700029F7FF90EF90DF90CF90BF90AF909F90C0
:100780008F9008952FB7F894609175037091760358
:1007900080917703909178032FBF08950F931F9353
:1007A0000E94C2036093A1037093A2038093A303EA
:1007B0009093A40389E993E00E94E70197FF1DC08D
:1007C0000E94C2030091A1031091A2032091A303F0
:1007D0003091A403601B710B820B930B00919D035E
:1007E00010919E0320919F033091A0036017710721
:1007F00082079307F8F28FEF9FEF1F910F910895F3
:100800000F931F93CF93DF93C82FD62F86E0C89FF7
:10081000F0011124E55AFB4F11A2878D90A1813080
:100820009105F1F058F082309105F1F1039709F448
:1008300040C0DF91CF911F910F9108956623C9F3B6
:1008400061E070E08C2F0E9474010E94C2036093EB
:10085000B3047093B4048093B5049093B604E9CFC5
:100860000E94C2030091B3041091B4042091B50416
:100870003091B604AB01BC01401B510B620B730BF2
:100880008091C5049091C604B0E0A0E0841795075C
:10089000A607B70748F462E070E08C2FDF91CF9194
:1008A0001F910F910C94740163E070E0D111C1CFDE
:1008B000F4CF70E060E0F1CF089520912903260F76
:1008C0003327331F21323105ECF420914D03FC0115
:1008D00090E080E0243069F082E00895A09129033F
:1008E0002191AC01475F5C4FA40FB52FB11D2C9334
:1008F0000196861798F380912903680F6093290366
:1009000080E0089581E0089508958FEF9FEF0895A6
:100910008FEF9FEF08958091020390E0919581956C
:1009200091090895CF93DF93CB01EA01642F0E94D0
:100930005D04CE01DF91CF910895CF93DF931F9295
:10094000CDB7DEB7698361E0CE0101960E945D04F8
:1009500081E090E00F90DF91CF91089590E080E0EA
:100960000895CF93DF93EC0160E08E810E94F9023D
:1009700061E08E810E94F90260E08E810E94F9029E
:100980008BE891E00197F1F7DF91CF910895CF9235
:10099000DF92EF92FF920F931F93CF93DF936C013F
:1009A0007C0187E0E80EF11CD0E0C0E0062F10E0EB
:1009B000B8010C2E02C0759567950A94E2F7617034
:1009C000F70181917F010E94F9022196C430D1057F
:1009D00079F7C601DF91CF911F910F91FF90EF90B2
:1009E000DF90CF900C94B104CF92DF92EF92FF9200
:1009F0000F931F93CF93DF93EC01F62E642F8C811E
:100A00000E94F9028D818F3F19F060E00E94F90287
:100A10000F2D10E08F8584FF25C06E0187E0C80E82
:100A2000D11CF12CE12CB8010E2C02C075956795F4
:100A30000A94E2F76170F60181916F010E94F90258
:100A4000FFEFEF1AFF0A88E0E816F10461F7CE0124
:100A5000DF91CF911F910F91FF90EF90DF90CF909A
:100A60000C94B104B80184E0759567958A95E1F717
:100A7000CE010E94C7046F2DCE01DF91CF911F914F
:100A80000F91FF90EF90DF90CF900C94C70440E05F
:100A9000682F8AEC94E00C94F40481E00E944705EE
:100AA0008BE39FE10197F1F70895CF93DF938230B5
:100AB00029F49091D90498609093D9048093DD042F
:100AC0001092DE0480E48093DF0480E18093E004F0
:100AD00080E58093E10461E08091CE040E942B03C5
:100AE0008091CF048F3F19F061E00E942B0361E0F9
:100AF0008091D0040E942B03CAECD4E09E012A5CB2
:100B000034408091D90484FD0BC084E090E02196AC
:100B10002817390744F461E08E810E942B03EECF41
:100B200088E090E0F4CF8BE39DE00197F1F760E07F
:100B30008091CE040E94F90260E08091D0040E946E
:100B4000F9028091CF048F3F19F060E00E94F90212
:100B50008091D90484FD34C063E08AEC94E00E9463
:100B6000C704CBE4D6E4CE010197F1F763E08AEC49
:100B700094E00E94C7042197F1F763E08AEC94E0C7
:100B80000E94C70483E592E00197F1F762E08AECE6
:100B900094E00E94C7048091D90480620E944705B6
:100BA00084E08093DA048CE00E9447050E944D05A2
:100BB00082E08093DB0486E0DF91CF910C944705BF
:100BC00080620E9447058BE496E40197F1F78091DB
:100BD000D90480620E94470583E592E00197F1F70E
:100BE0008091D90480620E944705D5CF9091DD04A1
:100BF000891710F08FEF890FE82FF0E0E653FB4FD5
:100C0000848980680C94470541E00E94F40481E0E7
:100C100090E00895FB0101900020E9F73197AF01C2
:100C2000461B570BDC01ED91FC910280F381E02D16
:100C30000994CF93DF93BC0189E993E00E940A06EF
:100C4000EC0160E471E089E993E00E940A068C0FF0
:100C50009D1FDF91CF9108958F929F92AF92BF9287
:100C60000F931F93CF93DF93CDB7DEB7A1970FB646
:100C7000F894DEBF0FBECDBF19A2423008F44AE09F
:100C80008E010F5D1F4F842E912CB12CA12CA5013C
:100C900094010E940810E62FB901CA01EA3004F558
:100CA000E05DD801EE938D01232B242B252B79F7C2
:100CB00090E080E0109729F0BD0189E993E00E945F
:100CC0000A06A1960FB6F894DEBF0FBECDBFDF9126
:100CD000CF911F910F91BF90AF909F908F900895EB
:100CE000E95CDFCFCF92DF92EF92FF92CF93DF9359
:100CF0006B017C016DE289E993E00E943702EC010F
:100D000066277727CB016C197D098E099F094AE078
:100D10000E942C068C0F9D1FDF91CF91FF90EF90CA
:100D2000DF90CF900895CF93DF93BC01990F880B8C
:100D3000990B97FF0EC00E947206EC0160E471E00F
:100D400089E993E00E940A068C0F9D1FDF91CF91E5
:100D500008954AE00E942C06F0CF0C940A061F93D7
:100D6000CF93DF9385ED8093BC0080910503909134
:100D70000603A0910703B09108030796A11DB11DBA
:100D800023E0B695A795979587952A95D1F7209159
:100D9000BC0024FD03C010924D0352C040910503D6
:100DA000509106036091070370910803452B462B71
:100DB000472B69F30097A105B10541F025E32A957A
:100DC000F1F700000197A109B109E1CF8091040377
:100DD000C1E0C0930303882399F1D091B80010912A
:100DE000BA008091BC008A7B8093BC0060E082E105
:100DF0000E94F90260E083E10E94F90210924D0323
:100E0000C0934F0310924E0361E082E10E94F90209
:100E100061E083E10E94F9028091B9008E7F8093A6
:100E2000B9008091B9008D7F8093B90088E48093E8
:100E3000B80085E48093BC001093BA00D093B8004A
:100E4000DF91CF911F9108950E944D0563E471E0F9
:100E50008AEC94E00E94AD068DE290E00E948C0046
:100E600064EF71E080E090E00E94900360E089E030
:100E70000E94F9020E944D0580E00E94F60561E59E
:100E800071E08AEC94E00E94AD066AEF70E080E0C9
:100E900090E00E94900381E00E94F605E7E8F3E00D
:100EA00084E0DF011D928A95E9F710928C0310927D
:100EB0008B0310927E0310927D0310928D0310928B
:100EC0009203089581E00E94F6056EED72E08AECCF
:100ED00094E00E94AD0681E00E94F60562E671E0B2
:100EE0008AEC94E00E94AD0664EF71E080E090E04F
:100EF0000E9490030E944D0580E00E94F60561E586
:100F000071E08AEC94E00E94AD066AEF70E080E048
:100F100090E00E94900381E00E94F605E7E8F3E08C
:100F200084E0DF011D928A95E9F710928C031092FC
:100F30008B0310927E0310927D0361E089E00E9492
:100F4000F9020E9408018F3A910541F08FEA90E082
:100F50000E948C0082E691E00E94190610928D0397
:100F60001092920308951F920F920FB60F921124C0
:100F70002F933F934F935F936F937F938F939F93A1
:100F8000AF93BF93EF93FF9389E993E00E9415021B
:100F9000FF91EF91BF91AF919F918F917F916F9151
:100FA0005F914F913F912F910F900FBE0F901F9027
:100FB00018951F920F920FB60F9211242F938F93B3
:100FC0009F93EF93FF93E091A903F091AA0380818F
:100FD000E091AF03F091B00382FD1BC0908180913E
:100FE000B2038F5F8F732091B303821741F0E091BA
:100FF000B203F0E0E756FC4F958F8093B203FF9168
:10100000EF919F918F912F910F900FBE0F901F9096
:1010100018958081F4CF1F920F920FB60F92112472
:101020002F933F938F939F93AF93BF9380917503BB
:1010300090917603A0917703B09178033091740377
:1010400023E0230F2D3758F50196A11DB11D2093E4
:1010500074038093750390937603A0937703B09302
:1010600078038091790390917A03A0917B03B091EA
:101070007C030196A11DB11D8093790390937A039F
:10108000A0937B03B0937C03BF91AF919F918F910D
:101090003F912F910F900FBE0F901F90189526E84B
:1010A000230F0296A11DB11DD2CF1F920F920FB632
:1010B0000F9211242F933F934F935F936F937F93DE
:1010C0008F939F93AF93BF93CF93DF93EF93FF9350
:1010D00080917303C0915A04D0E087FF24C010921E
:1010E000850010928400809173038F5F8093730357
:1010F00080917303082E000C990B8C179D0724F424
:10110000809173038C30C4F18091840090918500AC
:10111000049680349C4908F47AC0809184009091B0
:101120008500049676C080917303082E000C990BFD
:101130008C179D07C4F6E09173038E2FEE0F990B69
:10114000FC01EE0FFF1FE80FF91FEA5CFB4F8081E7
:1011500086FFC9CFE09173038E2FEE0F990BFC0130
:10116000EE0FFF1FE80FF91FEA5CFB4F808160E084
:101170008F730E94F902B7CF2091840030918500CF
:10118000E09173038E2FEE0F990BFC01EE0FFF1F02
:10119000E80FF91FEA5CFB4F81819281820F931F58
:1011A0009093890080938800E09173038E2FEE0F57
:1011B000990BFC01EE0FFF1FE80FF91FEA5CFB4FD4
:1011C000808186FF11C0E09173038E2FEE0F990B83
:1011D000FC01EE0FFF1FE80FF91FEA5CFB4F808157
:1011E00061E08F730E94F902FF91EF91DF91CF913F
:1011F000BF91AF919F918F917F916F915F914F912F
:101200003F912F910F900FBE0F901F90189580E483
:101210009CE990938900809388008FEF80937303FB
:10122000E3CF1F920F920FB60F9211242F933F938B
:101230004F935F936F937F938F939F93AF93BF93DE
:10124000EF93FF938091B900887F803609F44AC0FC
:10125000F0F5883209F4A5C018F5803109F499C079
:10126000B8F4882309F4F5C0883009F492C0FF91DE
:10127000EF91BF91AF919F918F917F916F915F910E
:101280004F913F912F910F900FBE0F901F90189587
:10129000883109F486C0803251F780934C0314C022
:1012A000803409F49BC040F48033B9F38833F9F6F5
:1012B00080934C0385ECAEC0803509F483C088353B
:1012C00009F494C0883499F60E94AF06D0CF8839CB
:1012D00009F48AC038F5883729F050F4883611F0BF
:1012E000803729F683E080934D0310924B0355C05D
:1012F000883809F479C0803919F0803809F0B7CFFF
:1013000080914B03803208F06FC0E0914B0381E085
:101310008E0F80934B038091BB00F0E0E55DFC4FA6
:1013200080833BC0803B39F0D0F4803A09F477C029
:10133000883A09F09CCF84E080934D0310922A03F1
:1013400010922903F0E0E0E00995809129038111D2
:101350000FC081E0809329031092090309C0803CEB
:1013600009F4A8CF883C09F4A5CF883B09F07FCFCA
:10137000E0912A0381E08E0F80932A03F0E0E75F7B
:10138000FC4F80818093BB0090912A0380912903B8
:1013900029C0809172038093BB0085EC8093BC00D0
:1013A00066CF9091710380917003981758F5E09182
:1013B000710381E08E0F80937103F0E0E05BFC4FDE
:1013C0008081E9CFE091710381E08E0F80937103FA
:1013D0008091BB00F0E0E05BFC4F80839091710353
:1013E000809170039817C8F285E8D8CFE091710317
:1013F00081E08E0F809371038091BB00F0E0E05B91
:10140000FC4F808380914F0381115ECF81E08093F8
:101410004E0384EA8093BC0010924D0328CF85ECE4
:101420008093BC0010924D0380914B03803230F4C6
:10143000E0914B03F0E0E55DFC4F108260914B03BF
:1014400070E08BE293E0F0E0E0E0099510924B034E
:101450000ECF10924C0338CF10929C0310929B0336
:1014600088EE93E0A0E0B0E080939D0390939E030C
:10147000A0939F03B093A0038CE191E090939A0313
:101480008093990385EC90E09093A6038093A50345
:1014900084EC90E09093A8038093A70380EC90E005
:1014A0009093AA038093A90381EC90E09093AC03FE
:1014B0008093AB0382EC90E09093AE038093AD03F6
:1014C00086EC90E09093B0038093AF031092B20348
:1014D0001092B3031092B4031092B50380915A0492
:1014E0008C3008F089C091E0980F90935A04809353
:1014F000E20490E0FC01EE0FFF1FE80FF91FEA5C29
:10150000FB4F88EB9BE0928381831092CD04109275
:10151000CC0488E391E09093CB048093CA0482E1E9
:101520008093CE048FEF8093CF0483E18093D00427
:1015300081E18093D10480E18093D2048FE0809395
:10154000D3048EE08093D4041092D5041092D60474
:101550001092D7041092D8041092D90481E00E940E
:10156000550510925D04109261041092600410926F
:1015700062048EE291E090935C0480935B04E7E761
:10158000F4E01082148213821582369684E0E33BE5
:10159000F807B9F784E091E09093BE048093BD040E
:1015A00080E091E09093C0048093BF0484E0809336
:1015B000C1048093C20488E091E09093BC048093BE
:1015C000BB048AE090E09093C4048093C30484EF4A
:1015D00091E09093C6048093C5041092C9041092C0
:1015E000C8041092B7041092B8041092B904109273
:1015F000BA041092C70408958FEF8093E20485CF58
:10160000789484B5826084BD84B5816084BD85B5DD
:10161000826085BD85B5816085BD80916E008160E9
:1016200080936E001092810080918100826080938F
:101630008100809181008160809381008091800091
:101640008160809380008091B10084608093B100BC
:101650008091B00081608093B00080917A008460B6
:1016600080937A0080917A00826080937A008091E2
:101670007A00816080937A0080917A0080688093FC
:101680007A001092C100E091A903F091AA0382E0D0
:101690008083E091A503F091A6031082E091A70357
:1016A000F091A8038FEC80831092B103E091AD0319
:1016B000F091AE0386E08083E091AB03F091AC0340
:1016C000808180618083E091AB03F091AC038081E5
:1016D00088608083E091AB03F091AC0380818068E7
:1016E0008083E091AB03F091AC0380818F7D808398
:1016F00083E791E00E94190661E089E00E942B03D4
:1017000062E08AE00E942B0362E08DE00E942B03DE
:1017100061E08BE00E942B038091E2048C3008F0A2
:1017200051C061E08CE00E942B038091E204282FDD
:1017300030E0F901EE0FFF1FE20FF31FEA5CFB4FF1
:101740009081907C9C6090831092E3041092E4045A
:101750002CE0622F0E943910829FB001112430E0EA
:1017600020E0AB01420F531FFA01EE0FFF1FE40F01
:10177000F51FEA5CFB4F908196FD16C02F5F3F4F2F
:101780002C30310571F781110FC01092800082E07A
:10179000809381001092850010928400B19A80910C
:1017A0006F00826080936F00E091E2048E2F90E0E2
:1017B000FC01EE0FFF1FE80FF91FEA5CFB4F808171
:1017C000806480838FEA90E00E948C0082E00E9417
:1017D000550580917D0390917E03892B69F461E525
:1017E00071E08AEC94E00E94AD068EE791E00E94E1
:1017F000190681E00E94F6058091DA04982F926024
:101800009093DA048A600E94470561E089E00E94B3
:10181000F90210928C0310928B038DE00E94CD028E
:1018200021E0892B09F420E0209398030E94C20351
:10183000609394037093950380939603909397031A
:10184000109292030E94C20360938E0370938F03E1
:101850008093900390939103812C912C5401839455
:1018600022242394312C46E0642E772473948AE05A
:101870000E94CD02892B09F002C130928003209290
:101880007F038DE00E94CD0220919803281719064E
:1018900099F10E94C2030091940310919503209145
:1018A000960330919703601B710B820B930B613D84
:1018B00077408105910500F18DE00E94CD02EC0199
:1018C000BC01990F880B990B97FFDEC00E9472062E
:1018D0008FE891E00E94190681E0CD2B09F480E0A9
:1018E000809398030E94C2036093940370939503BE
:1018F000809396039093970389E993E00E94F50102
:10190000892B09F48CC06AE070E080E090E00E94CE
:1019100090030E94CE03FC0197FDC1C08D3291055A
:1019200021F0C0970A9708F0B3C0C12CD12C7601E2
:10193000C0E0E130F105D9F0ED32F10509F4ADC0B8
:10194000CF01C0970A9798F4AAE0B0E0A7019601EA
:101950000E94BE0F6F01FF0FEE08FF08C60ED71ED4
:10196000E81EF91E30E3C31AD108E108F10889E93D
:1019700093E00E94D3010E94CE03FC01C0970A9716
:10198000C0F2E130F105A9F2CC2341F0F094E094EB
:10199000D094C094C11CD11CE11CF11CDF92CF92E9
:1019A0008EE991E09F938F9325E833E03F932F9347
:1019B0000E944B1061EA71E089E993E00E94AD0654
:1019C00085E893E00E94190680918503082E000C9B
:1019D000990BC09790938403809383030E9493068E
:1019E00080918603082E000C990BC0979093820378
:1019F000809381030E9493060F900F900F900F9099
:101A00000F900F9080918303909184038230910511
:101A100009F476C00CF047C0019709F463C07092D6
:101A2000C7040E94C2030091B7041091B80420912A
:101A3000B9043091BA04AB01BC01401B510B620BDD
:101A4000730B8091C3049091C404B0E0A0E08417AC
:101A50009507A607B70708F081C1C0E08091C104CF
:101A6000C81708F08AC0E091BD04F091BE04EC0FE5
:101A7000F11D62E080810E942B03CF5FEFCF1092B7
:101A8000800310927F03FDCE4AE00E942C0620CFF7
:101A900089E993E00E94D3013CCFC1E068CFC12C1B
:101AA000D12C76017BCF83309105A9F1049709F001
:101AB000B6CF84E292E00E94190664EF71E080E004
:101AC00090E00E949003809181039091820300979F
:101AD00009F440C0019709F447C010928D038CE4CB
:101AE00092E008C080917F0390918003019729F4D0
:101AF00088EB91E00E94190692CF84ED91E0FACF35
:101B000061EF71E089E993E00E94AD060E9408014F
:101B10000E94930684CF8DE092E00E941906809186
:101B20008103909182038130910541F082309105CB
:101B300051F0892B09F073CF60E001C061E08BE0C8
:101B40000E94F9026CCF8BE00E94CD0261E0892BEC
:101B5000B1F3F2CF88E080938D0384E392E00E949A
:101B600019060E9462075BCF70928D038FE392E0AB
:101B70000E9419060E94240752CF512C8091C20462
:101B8000581608F05FC0052D10E0E091BF04F091F9
:101B9000C004E00FF11F61E080810E942B03E091FF
:101BA000BF04F091C004E00FF11F60E080810E944B
:101BB000F902D501C401052C04C0880F991FAA1F82
:101BC000BB1F0A94D2F76C017C01E094F094412C85
:101BD0008091C1044816F8F4C42DD0E0E091BD0412
:101BE000F091BE04EC0FFD1F80810E94CD0224966F
:101BF000CC0FDD1FC55ADB4F892B41F488819981B9
:101C00008C299D29998388834394E2CF8881998187
:101C10008E219F21F7CFE091BF04F091C004E00F27
:101C2000F11F61E080810E94F9028091BF049091D0
:101C3000C004080F191F60E0F80180810E942B0387
:101C400053949CCF0BE514E0E8018F8D98A1892B6C
:101C500031F41C8E2FEF3FEF3E8F2D8F19A2269669
:101C600034E0C739D30789F7F12C8091C104F81605
:101C700008F052C0E12C8F2D90E0880F991FFC01D5
:101C8000ED59FB4F6F012091C204E21608F042C0EB
:101C9000F601608171810E2C02C0769567950A94D9
:101CA000E2F7F29E900111242E0D311DEBE5F4E0D8
:101CB00080E0458D568D2417350709F43EC18F5FAE
:101CC00036968A30B1F760FF23C0EBE5F4E090E090
:101CD00080E0448D411117C0E091BB04F091BC0439
:101CE000E20FF31F4081689EF001699EF00D112400
:101CF000E55AFB4F448F368F258F10A2178E61E077
:101D00000E94000405C0019636968A30910509F7B5
:101D1000E394B9CFF394A9CFF12CF80181A18111FB
:101D2000F82E0A5F1F4FC017D107B9F70E94C203F0
:101D30006093B7047093B8048093B9049093BA0485
:101D4000FF2061F080917C04882341F080917A0427
:101D500090917B0420917704019719F01092C704A9
:101D600020E02093930380919203811181C08091A0
:101D70008B0390918C0321113AC0049759F5E7E841
:101D8000F3E001900020E9F7ED58F34019F582E007
:101D90000E94F60560E672E08AEC94E00E94AD06CF
:101DA00080919203811116C065E772E089E993E0A2
:101DB0000E940A0687E893E00E9419060E94C20367
:101DC00060938E0370938F0380939003909391039D
:101DD0007092920320E030E0232B09F448CD0E945A
:101DE0000102882309F441CD0E9400003CCD0497F4
:101DF000BCF52332D1F12A3269F32134B1F18FE7F6
:101E000092E00E941906C091930341E06C2F8AEC86
:101E100094E00E94F4046C2F89E993E00E94370259
:101E200060E471E089E993E00E940A0680918B03E7
:101E300090918C03FC01E957FC4F20919303208380
:101E4000019690938C0380938B036AE872E089E992
:101E500093E00E94AD0687E893E00E941906BACF8E
:101E6000233219F0213409F0B5CF0E946207B2CFB6
:101E70000E94C203C0908E03D0908F03E090900325
:101E8000F09091036C197D098E099F0961317742A9
:101E900081059105D8F00E944D0580E00E94F6056D
:101EA00062E972E08AEC94E00E94AD0681E00E9453
:101EB000F60564EA72E08AEC94E00E94AD0664EFF5
:101EC00071E080E090E00E949003CFCF0E94C203B7
:101ED0006C197D098E099F09613177428105910551
:101EE00048F580918D03813001F1883009F072CF7F
:101EF00061EC72E089E993E00E94AD0680E00E9407
:101F0000F6056CED72E08AEC94E00E94AD0680E08C
:101F10000E94F6056FEE72E08AEC94E00E94AD0636
:101F200068EE73E080E090E0CECF0E94240785EB5E
:101F300092E093CF83E791E090CF6170E1CE052EE0
:101F400097FB1EF400940E94B60F57FD07D00E9425
:101F5000081007FC03D04EF40C94B60F5095409532
:101F6000309521953F4F4F4F5F4F08959095809545
:101F7000709561957F4F8F4F9F4F08950E942A1053
:101F8000A59F900DB49F900DA49F800D911D1124CD
:101F90000895B7FF0C94BE0F0E94BE0F821B930BD7
:101FA00008952F923F924F925F926F927F928F92FD
:101FB0009F92AF92BF92CF92DF92EF92FF920F93D8
:101FC0001F93CF93DF93CDB7DEB7CA1BDB0B0FB6E2
:101FD000F894DEBF0FBECDBF09942A88398848889F
:101FE0005F846E847D848C849B84AA84B984C88435
:101FF000DF80EE80FD800C811B81AA81B981CE0F2C
:10200000D11D0FB6F894DEBF0FBECDBFED01089510
:10201000A1E21A2EAA1BBB1BFD010DC0AA1FBB1FEC
:10202000EE1FFF1FA217B307E407F50720F0A21B5E
:10203000B30BE40BF50B661F771F881F991F1A94CB
:1020400069F760957095809590959B01AC01BD01F5
:10205000CF010895A29FB001B39FC001A39F700D4F
:10206000811D1124911DB29F700D811D1124911DA0
:102070000895991B79E004C0991F961708F0961BE4
:10208000881F7A95C9F780950895EE0FFF1F059078
:10209000F491E02D0994AEE0B0E0E1E5F0E10C94BC
:1020A000DF0F0D891E8986E08C831A8309838FEFE9
:1020B0009FE79E838D83AE01475E5F4F6F89788D6A
:1020C000CE0101960E946E102F813885020F131FDA
:1020D000F80110822E96E4E00C94FB0FABE0B0E028
:1020E000E4E7F0E10C94D10F7C013B018A01FC0193
:1020F00017821682838181FFC8C1CE0101965C01DF
:10210000F7019381F30193FD859193FF81913F0145
:10211000882309F453C1853239F493FD859193FFE7
:1021200081913F01853229F4B70190E00E945E124F
:10213000E7CF912C212C312CFFE1F31538F08B32B5
:1021400011F190F4803209F1833229F137FC3CC05F
:1021500020ED280F2A3050F536FE20C08AE0989EE8
:10216000200D1124922E06C08D3291F0803371F72C
:10217000689430F8F30193FD859193FF81913F01BD
:102180008111DACF21C0689431F8689432F8F2CF27
:10219000689433F8EFCF689434F8ECCFEAE02E9EE1
:1021A000200D1124222E689435F8E4CF8E3229F4C4
:1021B00036FC04C1689436F8DDCF8C3619F4689487
:1021C00037F8D8CF8836B1F2982F9F7D9554933049
:1021D000E0F08336A1F18337C1F1833509F063C0A4
:1021E0002801F2E04F0E511CF801C080D180692D0A
:1021F00070E036FC02C06FEF7FEFC6010E9448120C
:102200004C01689437F882010AC00C5F1F4FFFE34E
:10221000F98388248394912C6501E89437F833FE80
:102220002DC0522C8114910471F5552009F468CF0A
:10223000B70180E290E00E945E125A94F6CFF80156
:10224000808189830E5F1F4FE4CF2801F2E04F0E9B
:10225000511CF801C080D180692D70E036FC02C0AD
:102260006FEF7FEFC6010E9453124C018201D5CF60
:10227000B70180E290E00E945E122A9428141904AB
:1022800009F0B0F7CECFF60137FC859137FE81918A
:102290006F01B70190E00E945E1251105A94F1E074
:1022A0008F1A9108BFCF843619F0893609F077C0AC
:1022B000F80137FE6BC060817181828193810C5F70
:1022C0001F4FF32DFF763F2E97FF09C09095809505
:1022D000709561957F4F8F4F9F4F689437F82AE034
:1022E00030E0A5010E948E12C82ECA188C2C432CF7
:1022F00036FE0CC0E89440F8C91440F434FE05C022
:1023000032FC03C0F32DFE7E4F2E892C44FE95C077
:10231000FE01EC0DF11D8081803309F087C0242D72
:10232000297E422E842D8870582E43FC95C040FE95
:102330008FC09C2C821418F42C0C922C981844FEFC
:1023400091C0B70180E390E00E945E1242FE09C096
:1023500088E790E041FE02C088E590E0B7010E9466
:102360005E12C91408F48AC0CA94D12C9FEFC91A0E
:10237000D90ACA0CDB1CF60182916F01B70190E00B
:102380000E945E12AC14BD04B1F74FCF6081718121
:10239000072E000C880B990B0E5F1F4F92CFD32C8A
:1023A000E894D4F82AE030E0853739F1232D297FED
:1023B000D22E8F3601F148F48835A9F0F7018681D5
:1023C00097812B96E2E10C94ED0F803749F0883726
:1023D000A9F7D4FE02C06894D2F820E130E00DC025
:1023E0006894D4F8F6CF34FE03C0822F8660D82ECE
:1023F00020E132E002C028E030E0F801D7FE0FC053
:1024000060817181828193810C5F1F4FA5010E94C1
:102410008E12C82ECA183D2CE89437F867CF608119
:10242000718190E080E00E5F1F4FF0CF42FC02C050
:10243000839478CF8394839475CF842D867809F420
:1024400071CFF6CFB70180E290E00E945E128394D4
:102450008214C0F3512C73CF522C5818821408F4F4
:102460006ECFF8CF842D867809F47BCF8BE241FEC6
:1024700080E247FC8DE2B70190E071CFB70180E3C5
:1024800090E00E945E129A946CCF8FEF9FEF99CFED
:10249000FC010590615070400110D8F7809590952F
:1024A0008E0F9F1F0895FC01615070400190011034
:1024B000D8F7809590958E0F9F1F08950F931F93C7
:1024C000CF93DF93182F092FEB018B8181FD09C07A
:1024D0001FEF0FEF812F902FDF91CF911F910F9161
:1024E000089582FF14C02E813F818C819D81281721
:1024F00039073CF4E881F981CF01019699838883FB
:1025000010838E819F8101969F838E83E3CFE88520
:10251000F985812F0995892BA1F3DACFFA01AA2732
:10252000283051F1203181F1E8946F936E7F6E5F16
:102530007F4F8F4F9F4FAF4FB1E03ED0B4E03CD0C4
:10254000670F781F891F9A1FA11D680F791F8A1FA7
:10255000911DA11D6A0F711D811D911DA11D20D00E
:1025600009F468943F912AE0269F11243019305DC8
:102570003193DEF6CF010895462F4770405D4193B9
:10258000B3E00FD0C9F7F6CF462F4F70405D4A3306
:1025900018F0495D31FD4052419302D0A9F7EACFCE
:1025A000B4E0A6959795879577956795BA95C9F7FD
:1025B00000976105710508959B01AC010A2E0694F0
:1025C0005795479537952795BA95C9F7620F731FA9
:1025D000841F951FA01D0895F894FFCF05060708D6
:1025E000040302013132334134353642373839433E
:1025F0002A3023440000000037029701C4018402FE
:10260000F501D301E7010000000067032703F6028C
:102610000000000004069701AE045C040D0A00509F
:102620006173732041636365707465640050617306
:1026300073776F7264204163636573733A00446F0C
:102640006F72204C6F636B6564202020202000692E
:102650006D20776F726B696E670070617373776F4F
:102660007264204163636573733A003A20492061C4
:102670006D20746F67676C6564002564000A53659C
:102680007269616C20697320617661696C61626C4A
:10269000653A20006D79646F6F7273656E736F7247
:1026A0003B70726F7065727479323A54727565005E
:1026B0006D79646F6F7273656E736F723B70726F5A
:1026C0007065727479323A46616C7365006D796435
:1026D0006F6F72636F6E74726F6C6C65723B707249
:1026E0006F7065727479323A006C69676874206340
:1026F0006F6E74726F6C20616363657074656400E3
:102700006576616C756174696E67207061737300C2
:1027100077726F6E67207061737300636F7272659A
:10272000637420706173730064656661756C7420F6
:102730007061737320726573756C74006368656390
:102740006B696E672050617373776F72642E2E2EE3
:102750000070617373496E707574004920676F74FF
:10276000206865726500636F646520697300566553
:10277000726966696361696F6E206572726F72005B
:10278000436865636B20436F6E6E656374696F6E3B
:10279000006F70656E2075702046424900686D6D4F
:1027A0006D2070617373776F726420636F6E6669FA
:1027B000726D6174696F6E0020202020202020201F
:1027C0002020202020202020202000496E636F72CE
:0E27D000726563742050617373436F6465001B
:107E0000112484B714BE81FFF0D085E080938100F7
:107E100082E08093C00088E18093C10086E0809377
:107E2000C20080E18093C4008EE0C9D0259A86E02C
:107E300020E33CEF91E0309385002093840096BBD3
:107E4000B09BFECF1D9AA8958150A9F7CC24DD24C4
:107E500088248394B5E0AB2EA1E19A2EF3E0BF2EE7
:107E6000A2D0813461F49FD0082FAFD0023811F036
:107E7000013811F484E001C083E08DD089C08234E0
:107E800011F484E103C0853419F485E0A6D080C0E4
:107E9000853579F488D0E82EFF2485D0082F10E0AE
:107EA000102F00270E291F29000F111F8ED06801E7
:107EB0006FC0863521F484E090D080E0DECF843638
:107EC00009F040C070D06FD0082F6DD080E0C81688
:107ED00080E7D80618F4F601B7BEE895C0E0D1E017
:107EE00062D089930C17E1F7F0E0CF16F0E7DF06D8
:107EF00018F0F601B7BEE89568D007B600FCFDCFD4
:107F0000A601A0E0B1E02C9130E011968C91119780
:107F100090E0982F8827822B932B1296FA010C0160
:107F200087BEE89511244E5F5F4FF1E0A038BF0790
:107F300051F7F601A7BEE89507B600FCFDCF97BE46
:107F4000E89526C08437B1F42ED02DD0F82E2BD052
:107F50003CD0F601EF2C8F010F5F1F4F84911BD097
:107F6000EA94F801C1F70894C11CD11CFA94CF0C13
:107F7000D11C0EC0853739F428D08EE10CD085E9AC
:107F80000AD08FE07ACF813511F488E018D01DD067
:107F900080E101D065CF982F8091C00085FFFCCF94
:107FA0009093C60008958091C00087FFFCCF809118
:107FB000C00084FD01C0A8958091C6000895E0E648
:107FC000F0E098E1908380830895EDDF803219F02E
:107FD00088E0F5DFFFCF84E1DECF1F93182FE3DFCA
:107FE0001150E9F7F2DF1F91089580E0E8DFEE27F6
:047FF000FF270994CA
:027FFE00040479
:00000001FF
