:100000000C9462000C948A000C948A000C948A0070
:100010000C948A000C948A000C948A000C948A0038
:100020000C948A000C948A000C948A000C948A0028
:100030000C948A000C948A000C948A000C948A0018
:100040000C941C080C948A000C94EA070C94C407C6
:100050000C948A000C948A000C948A000C948A00F8
:100060000C9466080C948A0000000000240027000D
:100070002A0000000000250028002B0000000000DE
:1000800023002600290000000008000201000003F0
:10009000040700000000000000000404040404043D
:1000A0000404020202020202030303030303010227
:1000B00004081020408001020408102001020408F6
:1000C0001020810911241FBECFEFD8E0DEBFCDBFC5
:1000D00023E0A8E4B2E001C01D92AA38B207E1F71C
:1000E00012E0A0E0B1E0EEE7FDE102C005900D9264
:1000F000A834B107D9F710E0C2E6D0E004C02197D8
:10010000FE010E94830DC136D107C9F70E94FA098A
:100110000C94BD0E0C940000FC01538D448D252FD2
:1001200030E0842F90E0821B930B541710F0CF9691
:10013000089501970895FC01918D828D981761F0C3
:10014000A28DAE0FBF2FB11D5D968C91928D9F5FDA
:100150009F73928F90E008958FEF9FEF0895FC01B9
:10016000918D828D981731F0828DE80FF11D858D6C
:1001700090E008958FEF9FEF0895FC01918D228DFF
:10018000892F90E0805C9F4F821B91098F73992784
:100190000895FC01A48DA80FB92FB11DA35ABF4F1C
:1001A0002C91848D90E001968F739927848FA68976
:1001B000B7892C93A089B1898C91837080648C93CA
:1001C000938D848D981306C00288F389E02D808179
:1001D0008F7D80830895EF92FF920F931F93CF93AB
:1001E000DF93EC0181E0888F9B8D8C8D98131AC072
:1001F000E889F989808185FF15C09FB7F894EE8959
:10020000FF896083E889F9898081837080648083B5
:100210009FBF81E090E0DF91CF911F910F91FF9000
:10022000EF900895F62E0B8D10E00F5F1F4F0F73A8
:100230001127E02E8C8D8E110CC00FB607FCFACF63
:10024000E889F989808185FFF5CFCE010E94C90038
:10025000F1CFEB8DEC0FFD2FF11DE35AFF4FF08234
:100260009FB7F8940B8FEA89FB8980818062CFCF9A
:10027000CF93DF93EC01888D8823B9F0AA89BB89DD
:10028000E889F9898C9185FD03C0808186FD0DC0C8
:100290000FB607FCF7CF8C9185FFF2CF808185FFE9
:1002A000EDCFCE010E94C900E9CFDF91CF91089533
:1002B00083EC92E00E94BD0021E0892B09F420E04C
:1002C000822F089580E090E0892B29F00E94580148
:1002D00081110C9400000895AF92BF92CF92DF92EB
:1002E000EF92FF920F931F93CF93DF936C017B01EB
:1002F0008B01040F151FEB015E01AE18BF08C0177C
:10030000D10759F06991D601ED91FC910190F081EE
:10031000E02DC6010995892B79F7C501DF91CF91B1
:100320001F910F91FF90EF90DF90CF90BF90AF9013
:100330000895833081F028F4813099F08230A9F05B
:1003400008958730A9F08830C9F08430B1F48091E5
:1003500080008F7D03C0809180008F778093800024
:10036000089584B58F7784BD089584B58F7DFBCFC4
:100370008091B0008F778093B00008958091B00095
:100380008F7DF9CFCF93DF93282F30E0F901EA5723
:10039000FF4F8491F901E255FF4FD491F901E656E0
:1003A000FF4FC491CC23A1F081110E949901EC2F41
:1003B000F0E0EE0FFF1FE458FF4FA591B491EC91D0
:1003C000ED2381E090E009F480E0DF91CF91089582
:1003D00080E090E0FACF1F93CF93DF93282F30E097
:1003E000F901EA57FF4F8491F901E255FF4FD4918B
:1003F000F901E656FF4FC491CC23A9F0162F8111C5
:100400000E949901EC2FF0E0EE0FFF1FEE58FF4F16
:10041000A591B4918FB7F894EC91111108C0D095C3
:10042000DE23DC938FBFDF91CF911F910895DE2BE8
:10043000F8CFCF93DF9390E0FC01E255FF4F24917A
:1004400086569F4FFC0184918823C9F090E0880F65
:10045000991FFC01E859FF4FA591B491FC01EE589A
:10046000FF4FC591D49161110DC09FB7F8948C9145
:10047000209582238C938881282328839FBFDF9136
:10048000CF910895623051F49FB7F8943C91822F38
:10049000809583238C93E8812E2BEFCF8FB7F89430
:1004A000EC912E2B2C938FBFEACF3FB7F89480911D
:1004B000BA029091BB02A091BC02B091BD0226B5D8
:1004C000A89B05C02F3F19F00196A11DB11D3FBF8C
:1004D000BA2FA92F982F8827BC01CD01620F711D5B
:1004E000811D911D42E0660F771F881F991F4A9555
:1004F000D1F708958F929F92AF92BF92CF92DF92E1
:10050000EF92FF926B017C010E9455024B015C014E
:10051000C114D104E104F104B9F00E945502681934
:1005200079098A099B09683E73408105910580F32A
:1005300021E0C21AD108E108F10888EE880E83E0B4
:10054000981EA11CB11CE4CFFF90EF90DF90CF90DC
:10055000BF90AF909F908F90089520916F02260FCB
:100560003327331F21323105ECF420919302FC0133
:1005700090E080E0243069F082E00895A0916F025D
:100580002191AC01415B5D4FA40FB52FB11D2C93A0
:100590000196861798F380916F02680F60936F023F
:1005A00080E0089581E0089508958FEF9FEF08950A
:1005B0008FEF9FEF08958091480290E0919581958B
:1005C00091090895CF93DF93CB01EA01642F0E9434
:1005D000AD02CE01DF91CF910895CF93DF931F92AB
:1005E000CDB7DEB7698361E0CE0101960E94AD020E
:1005F00081E090E00F90DF91CF91089590E080E04E
:1006000008950895FC0183898B3051F480E492E4CD
:10061000AFE0B0E0FB0184A395A3A6A3B7A3089520
:1006200080E894E8AEE1B0E0F5CFCF92DF92EF92B0
:10063000FF92CF93DF93DC011796CC911797D0E010
:100640006111DC2F18962C91189730E0220F331F80
:1006500024583F4F50E040E0F90185919491FC010E
:10066000F080BA0190E080E0EF2DEC23ED1310C094
:100670004F5F5F4F1D96CD90DD90ED90FC905097B1
:100680006C157D058E059F0538F36FEF7FEFCB016D
:10069000DF91CF91FF90EF90DF90CF9008958F92F0
:1006A0009F92AF92BF92CF92DF92EF92FF920F9301
:1006B0001F93CF93DF93CDB7DEB7C054D1400FB6B1
:1006C000F894DEBF0FBECDBF2FB7F8944091BF02A4
:1006D0005091C0026091C1027091C2022FBFFC0113
:1006E00001851285238534856A017B01C01AD10AF0
:1006F000E20AF30A97018601003D17402105310502
:10070000B0F4FC018189C05CDE4F0FB6F894DEBF07
:100710000FBECDBFDF91CF911F910F91FF90EF9052
:10072000DF90CF90BF90AF909F908F9008958C01F5
:10073000FC01418752876387748714821382128277
:100740001182108262E085810E94190261E070E0EE
:1007500080E090E00E947A0261E0F80185810E94C9
:10076000190260E0F80185810E94EB01F8018681A1
:100770008551823028F58BE291E10197F1F762E033
:10078000F80185810E941902F801828990E0823087
:10079000910538F0880F991F880F991F05970197C9
:1007A000F1F7F89460E0C8010E9415036F3F7F4F96
:1007B0008F4F9F4F61F4F801118A789480E0A3CFA6
:1007C00064E170E080E090E00E947A02D8CF61E0BE
:1007D000C8010E9415036F3F7F4F8F4F9F4F59F302
:1007E000CE0101967C015E019FEBA91A9EEFB90A2A
:1007F000670160E0C8010E941503F6016083718300
:100800008283938361E0C8010E941503F60164832B
:10081000758386839783F8E0CF0ED11CCA14DB045E
:1008200041F7789430E020E0F70180809180A28049
:10083000B3804481558166817781FFEF8F169F06D3
:10084000AF06BF0631F04F3F8FEF580768077807B4
:1008500019F4F801118AB2CFF90183E0F595E79513
:100860008A95E1F7E00FF11F8081880F84169506C5
:10087000A606B706F0F080832F5F3F4FF8E0EF0E3B
:10088000F11C2832310581F6F801448120818181F3
:10089000280F3327331F8281280F311D8381820F58
:1008A000932F911D99274817190699F681E0818B9E
:1008B0002ACF8160E0CF4F925F926F927F928F92AA
:1008C0009F92AF92BF92FF920F931F93CF93DF93AC
:1008D000F82E2A013B01C901B801A30192010E942F
:1008E0000A0D28EE33E040E050E00E942E0D490151
:1008F0005A0160E271EA87E090E0A30192010E9450
:100900002E0D8901220F331F220F331FE901259776
:10091000412C512C3201481459046A047B049CF583
:1009200082E00E94C2010197F1F08091BE0288230B
:10093000D1F061E08F2D0E94EB010230110518F01B
:10094000CE010197F1F760E08F2D0E94EB0102309C
:10095000110518F0CE010197F1F78FEF481A580AE8
:10096000680A780AD8CF1092BE02DF91CF911F910A
:100970000F91FF90BF90AF909F908F907F906F905E
:100980005F904F90089560E08F2DDF91CF911F9180
:100990000F91FF90BF90AF909F908F907F906F903E
:1009A0005F904F900C94EB0108951F93CF93DF93CA
:1009B00085ED8093BC0080914B0290914C02A091F8
:1009C0004D02B0914E020796A11DB11D23E0B695D0
:1009D000A795979587952A95D1F72091BC0024FD7E
:1009E00003C01092930252C040914B0250914C02AE
:1009F00060914D0270914E02452B462B472B69F3B7
:100A00000097A105B10541F025E32A95F1F7000013
:100A10000197A109B109E1CF80914A02C1E0C093D9
:100A20004902882399F1D091B8001091BA008091C1
:100A3000BC008A7B8093BC0060E082E10E94EB01F5
:100A400060E083E10E94EB0110929302C093950253
:100A50001092940261E082E10E94EB0161E083E187
:100A60000E94EB018091B9008E7F8093B900809144
:100A7000B9008D7F8093B90088E48093B80085E445
:100A80008093BC001093BA00D093B800DF91CF914F
:100A90001F9108950C94250E0C94250ECF92DF9291
:100AA000EF92FF920F931F93CF93DF93EB01FB0124
:100AB000349620E2DF011D922A95E9F744E250E0E6
:100AC00060E070E0488359836A837B83FC01458141
:100AD0005681678170854C835D836E837F834CE094
:100AE00050E060E070E0488759876A877B872FB7BE
:100AF000F8944091BF025091C0026091C102709180
:100B0000C2022FBF488B598B6A8B7B8B0381148168
:100B1000C8010E944F03882349F0F80186818B3079
:100B200028F08D3040F08551823070F160E070E047
:100B300080EC9FE71BC0618170E090E080E00E9444
:100B4000540B2DEC3CEC4CEC5DE30E948F0B6B01E5
:100B50007C01F801608170E090E080E00E94540B1D
:100B60009B01AC01C701B6010E94680C6C8B7D8BA8
:100B70008E8B9F8B81E0DF91CF911F910F91FF9022
:100B8000EF90DF90CF90089560817181762767277D
:100B9000762790E080E00E94520B2DEC3CEC4CEC70
:100BA0005DE30E948F0BE2CF8F929F92AF92BF9234
:100BB000EF92FF921F93CF93DF93EB01FB013496EB
:100BC00020E2DF011D922A95E9F744E250E060E05F
:100BD00070E0488359836A837B83FC014581568199
:100BE000678170854C835D836E837F834DE050E029
:100BF00060E070E0488759876A877B872FB7F89451
:100C00004091BF025091C0026091C1027091C20236
:100C10002FBF488B598B6A8B7B8BE380F480C70195
:100C20000E944F03882341F0F70186818C3009F43C
:100C300055C038F48B30E1F060E070E080EC9FE765
:100C40003EC085518230C0F71281612F70E0762F4F
:100C5000662766277F778381682B90E080E00E947B
:100C6000520B2DEC3CEC4CEC5DE30E948F0B51C021
:100C7000628170E090E080E00E94520B4B015C01C9
:100C8000F701138117FF0AC0AC019B0160E070E01F
:100C900080E89FEB0E94670C4B015C011F70612F85
:100CA00070E090E080E00E94540B2DEC3CEC4CECAA
:100CB0005DE30E948F0BA50194010E94680C6C8B70
:100CC0007D8B8E8B9F8B81E0DF91CF911F91FF9069
:100CD000EF90BF90AF909F908F9008951281612FF9
:100CE00070E090E080E00E94520B4B015C01F70144
:100CF00063816F7070E090E080E00E94540B2DECF7
:100D00003CEC4CEC5DE30E948F0BA50194010E942A
:100D1000680C17FFD4CF9058D2CFCF93DF93EB015D
:100D2000FC0183894BE050E06AE172E08C30C1F055
:100D300058F44BE050E064E172E08B3089F04BE016
:100D400050E06CE272E00CC04BE050E060E272E018
:100D5000853131F04BE050E066E272E0863179F7A0
:100D6000CE010E94AE0E1B86DF91CF9108950F93A6
:100D70001F93CF93DF938C01EB0188E2DB011D927F
:100D80008A95E9F7F801838194810E948D0681E0BC
:100D900090E0A0E0B0E08C879D87AE87BF87F80128
:100DA00085819681A781B085888B998BAA8BBB8B17
:100DB0008CE090E0A0E0B0E08C8B9D8BAE8BBF8B85
:100DC000BE01838194810E940203D8011396ED91A4
:100DD000FC9183898C3009F441C078F48B3009F19F
:100DE000188E198E1A8E1B8E1C8E1D8E1E8E1F8EB7
:100DF00018A219A21AA21BA22CC08551823080F71A
:100E000080E090E0A8ECB2E4888F998FAA8FBB8F26
:100E10001C8E1D8E1E8E1F8E8DEC9CECACECBDE3EB
:100E200014C080E090E0A0EAB2E4888F998FAA8F86
:100E3000BB8F80E090E0A0EAB1E48C8F9D8FAE8FF5
:100E4000BF8F80E090E0A0EAB0E488A399A3AAA3B2
:100E5000BBA3DF91CF911F910F91089580E090E0A7
:100E6000AEEBB2E4E2CF0F931F93CF93DF938C01ED
:100E7000EB0188E2DB011D928A95E9F7F801838195
:100E800094810E948D0681E090E0A0E0B0E08C8724
:100E90009D87AE87BF87F80185819681A781B08540
:100EA000888B998BAA8BBB8B8DE090E0A0E0B0E0A3
:100EB0008C8B9D8BAE8BBF8BBE01838194810E94F6
:100EC0000203D8011396ED91FC9183898C3091F146
:100ED00078F48B30B1F0188E198E1A8E1B8E1C8E02
:100EE0001D8E1E8E1F8E18A219A21AA21BA21DC033
:100EF0008531A9F1863179F780E090E0AAEFB2E47C
:100F000032C080E090E0A8E4B2E4888F998FAA8F85
:100F1000BB8F1C8E1D8E1E8E1F8E80E090E0A0E089
:100F2000B0E488A399A3AAA3BBA3DF91CF911F919B
:100F30000F91089580E090E0A0E7B2E4888F998F48
:100F4000AA8FBB8F80E090E0A0EAB1EC8C8F9D8FE0
:100F5000AE8FBF8F80E090E0A0E0BFE3E2CF80E003
:100F600090E0A0EAB2E4888F998FAA8FBB8F80E0CF
:100F700090E0A0E2B2EC8C8F9D8FAE8FBF8F8DEC96
:100F80009CECACECBDE3CDCF1F920F920FB60F924D
:100F900011242F933F934F935F936F937F938F937E
:100FA0009F93AF93BF93EF93FF9383EC92E00E94E4
:100FB000C900FF91EF91BF91AF919F918F917F9168
:100FC0006F915F914F913F912F910F900FBE0F90B6
:100FD0001F9018951F920F920FB60F9211242F9306
:100FE0008F939F93EF93FF93E091D302F091D402FC
:100FF0008081E091D902F091DA0282FD1BC09081DC
:101000008091DC028F5F8F732091DD02821741F0A7
:10101000E091DC02F0E0ED53FD4F958F8093DC0210
:10102000FF91EF919F918F912F910F900FBE0F9095
:101030001F9018958081F4CF1F920F920FB60F92D8
:1010400011242F933F938F939F93AF93BF938091DE
:10105000BF029091C002A091C102B091C202309132
:10106000B90223E0230F2D3758F50196A11DB11DBC
:101070002093B9028093BF029093C002A093C10253
:10108000B093C2028091BA029091BB02A091BC02BF
:10109000B091BD020196A11DB11D8093BA0290933B
:1010A000BB02A093BC02B093BD02BF91AF919F91D0
:1010B0008F913F912F910F900FBE0F901F90189519
:1010C00026E8230F0296A11DB11DD2CF1F920F92C9
:1010D0000FB60F9211242F933F934F935F936F930B
:1010E0007F938F939F93AF93BF93EF93FF938091E1
:1010F000B900887F803609F44AC0F0F5883209F4D7
:10110000A5C018F5803109F499C0B8F4882309F412
:10111000F5C0883009F492C0FF91EF91BF91AF9173
:101120009F918F917F916F915F914F913F912F91FF
:101130000F900FBE0F901F901895883109F486C04C
:10114000803251F78093920214C0803409F49BC01E
:1011500040F48033B9F38833F9F68093920285EC3A
:10116000AEC0803509F483C0883509F494C0883452
:1011700099F60E94D504D0CF883909F48AC038F591
:10118000883729F050F4883611F0803729F683E04B
:10119000809393021092910255C0883809F479C067
:1011A000803919F0803809F0B7CF809191028032F0
:1011B00008F06FC0E091910281E08E0F8093910260
:1011C0008091BB00F0E0EF58FD4F80833BC0803B37
:1011D00039F0D0F4803A09F477C0883A09F09CCF0E
:1011E00084E0809393021092700210926F02F0E0FC
:1011F000E0E0099580916F0281110FC081E080933A
:101200006F0210924F0209C0803C09F4A8CF883CBD
:1012100009F4A5CF883B09F07FCFE091700281E00F
:101220008E0F80937002F0E0E15BFD4F8081809330
:10123000BB009091700280916F0229C08091B8022A
:101240008093BB0085EC8093BC0066CF9091B70281
:101250008091B602981758F5E091B70281E08E0FA1
:101260008093B702F0E0EA56FD4F8081E9CFE0912C
:10127000B70281E08E0F8093B7028091BB00F0E04F
:10128000EA56FD4F80839091B7028091B60298177D
:10129000C8F285E8D8CFE091B70281E08E0F809345
:1012A000B7028091BB00F0E0EA56FD4F8083809149
:1012B000950281115ECF81E08093940284EA80934D
:1012C000BC001092930228CF85EC8093BC00109252
:1012D000930280919102803230F4E0919102F0E02B
:1012E000EF58FD4F10826091910270E081E792E02B
:1012F000F0E0E0E00995109291020ECF1092920278
:1013000038CFE3ECF2E01382128288EE93E0A0E0A3
:10131000B0E084839583A683B7838AEE91E09183BE
:10132000808385EC90E09587848784EC90E09787B4
:10133000868780EC90E0918B808B81EC90E0938BA2
:10134000828B82EC90E0958B848B86EC90E0978B7F
:10135000868B118E128E138E148EA0E6B3E084E07D
:1013600015968C9315978BE016968C931697E2EB57
:10137000F0E0E4911796EC931797EEE9F0E0E49132
:101380001896EC93189740E85EE360E070E01D96D5
:101390004D935D936D937C93509753968C93539795
:1013A0008AE092E055969C938E9354970A2E1B2EBA
:1013B00058961C920E92112457974FEF5FEFBA0187
:1013C00059964D935D936D937C935C978CEF91E070
:1013D0005E969C938E935D970A2E1B2E91961C927F
:1013E0000E921124909792964D935D936D937C93FA
:1013F00095970895789484B5826084BD84B58160A2
:1014000084BD85B5826085BD85B5816085BD8091CF
:101410006E00816080936E00109281008091810047
:10142000826080938100809181008160809381003F
:10143000809180008160809380008091B100846001
:101440008093B1008091B00081608093B000809162
:101450007A00846080937A0080917A008260809321
:101460007A0080917A00816080937A0080917A007E
:10147000806880937A001092C10061E087E00E944A
:10148000190261E089E00E94190261E08BE00E948C
:10149000190261E085E00E94190261E083E00E9488
:1014A000190260E088E00E94190260E082E00E9478
:1014B000190261E08AE00E94190262E080916503EE
:1014C0000E9419022FB7F8948091BF029091C00238
:1014D000A091C102B091C2022FBF805D9740A109C7
:1014E000B1098093690390936A03A0936B03B0934F
:1014F0006C0387E3809372031092BE0298EE292E4C
:1015000093E0392E20E0C22E20E0D22E88E00E9407
:10151000C201019709F09BC08091BE02811197C062
:1015200081E08093BE0260E08AE00E94EB0161E00E
:1015300089E00E94EB0161E08DE00E94EB01809167
:10154000BE02882309F483C089E00E94C201892B6E
:1015500009F45FC060E089E00E94EB0160E08DE08B
:101560000E94EB0161E08BE00E94EB0143E150E05F
:1015700061E372E083EC92E00E946C0142E050E093
:1015800065E472E083EC92E00E946C01C6E7D1E072
:1015900086E0E82E81E0F82E69917991C1010E94E0
:1015A0001A0D2B01770F66087708F70141915191C9
:1015B0007F01052E000C660B770B9301820185E0FD
:1015C00090E00E945B04C301B2010E94540B26E626
:1015D00036E646EA5FE30E948F0B0E94D40C4B0173
:1015E00082E00E94C2010197F1F41092BE0282E0F3
:1015F0000E94C201019721F08091BE02811102C0B8
:101600001092BE0268EE73E080E090E00E947A02E1
:1016100096CF61E089E00E94EB0161E08DE00E94DD
:10162000EB0160E0A0CFB401990C880B990B0E94EC
:101630007A02930140E050E0BA0185E090E00E9418
:101640005B04F1E0C63EDF0709F0A6CFD0CF82E011
:101650000E94C201019721F08091BE02811102C057
:101660001092BE028DE00E94C20161E0892B09F058
:1016700060E08DE00E94EB0160E08AE00E94EB01F7
:1016800068EE73E080E090E00E947A02C114D10419
:1016900009F43CCF0E945801882309F437CF0E94F7
:1016A000000034CFE89409C097FB3EF490958095F4
:1016B000709561957F4F8F4F9F4F9923A9F0F92F18
:1016C00096E9BB279395F695879577956795B79596
:1016D000F111F8CFFAF4BB0F11F460FF1BC06F5F7C
:1016E0007F4F8F4F9F4F16C0882311F096E911C08E
:1016F000772321F09EE8872F762F05C0662371F0AF
:1017000096E8862F70E060E02AF09A95660F771FC2
:10171000881FDAF7880F9695879597F908950E94A4
:10172000A20B0C94130C0E94050C38F00E940C0CB8
:1017300020F0952311F00C94FC0B0C94020C112456
:101740000C94470C0E94240C70F3959FC1F3950FE5
:1017500050E0551F629FF001729FBB27F00DB11D35
:10176000639FAA27F00DB11DAA1F649F6627B00DC5
:10177000A11D661F829F2227B00DA11D621F739FAE
:10178000B00DA11D621F839FA00D611D221F749FBC
:101790003327A00D611D231F849F600D211D822F03
:1017A000762F6A2F11249F5750409AF0F1F088232A
:1017B0004AF0EE0FFF1FBB1F661F771F881F915057
:1017C0005040A9F79E3F510580F00C94FC0B0C94FF
:1017D000470C5F3FE4F3983ED4F386957795679581
:1017E000B795F795E7959F5FC1F7FE2B880F911D81
:1017F0009695879597F9089597F99F6780E870E027
:1018000060E008959FEF80EC089500240A94161676
:10181000170618060906089500240A9412161306DE
:10182000140605060895092E0394000C11F488236C
:1018300052F0BB0F40F4BF2B11F460FF04C06F5F88
:101840007F4F8F4F9F4F089557FD9058440F551F5E
:1018500059F05F3F71F04795880F97FB991F61F032
:101860009F3F79F087950895121613061406551FA9
:10187000F2CF4695F1DF08C0161617061806991F15
:10188000F1CF86957105610508940895E894BB270A
:1018900066277727CB0197F908950E94580CA59FDA
:1018A000900DB49F900DA49F800D911D112408955B
:1018B000A29FB001B39FC001A39F700D811D112491
:1018C000911DB29F700D811D1124911D08955058D6
:1018D000BB27AA270E947F0C0C94130C0E94050CB6
:1018E00038F00E940C0C20F039F49F3F19F426F4D4
:1018F0000C94020C0EF4E095E7FB0C94FC0BE92F22
:101900000E94240C58F3BA176207730784079507DF
:1019100020F079F4A6F50C94460C0EF4E0950B2E0D
:10192000BA2FA02D0B01B90190010C01CA01A00131
:101930001124FF27591B99F0593F50F4503E68F18C
:101940001A16F040A22F232F342F4427585FF3CFCD
:10195000469537952795A795F0405395C9F77EF49E
:101960001F16BA0B620B730B840BBAF09150A1F0E7
:10197000FF0FBB1F661F771F881FC2F70EC0BA0F6D
:10198000621F731F841F48F4879577956795B795F5
:10199000F7959E3F08F0B0CF9395880F08F09927F0
:1019A000EE0F9795879508950E94DB0C6894B1110E
:1019B0000C94470C08950E942C0C88F09F5798F0C7
:1019C000B92F9927B751B0F0E1F0660F771F881F44
:1019D000991F1AF0BA95C9F714C0B13091F00E945E
:1019E000460CB1E008950C94460C672F782F882799
:1019F000B85F39F0B93FCCF3869577956795B39585
:101A0000D9F73EF490958095709561957F4F8F4FF3
:101A10009F4F0895DB018F939F930E944D0CBF91C0
:101A2000AF91A29F800D911DA39F900DB29F900D2D
:101A30001124089597FB072E16F4009407D077FD24
:101A400009D00E944D0D07FC05D03EF4909581957C
:101A50009F4F0895709561957F4F0895052E97FBD0
:101A60001EF400940E94450D57FD07D00E94610DA1
:101A700007FC03D04EF40C94450D509540953095DD
:101A800021953F4F4F4F5F4F0895909580957095EA
:101A900061957F4F8F4F9F4F0895AA1BBB1B51E14C
:101AA00007C0AA1FBB1FA617B70710F0A61BB70BCE
:101AB000881F991F5A95A9F780959095BC01CD0173
:101AC0000895A1E21A2EAA1BBB1BFD010DC0AA1F7F
:101AD000BB1FEE1FFF1FA217B307E407F50720F097
:101AE000A21BB30BE40BF50B661F771F881F991F12
:101AF0001A9469F760957095809590959B01AC015B
:101B0000BD01CF010895EE0FFF1F0590F491E02D68
:101B100009940F931F93CF93DF938230910510F4B4
:101B200082E090E0E0918803F091890330E020E0CA
:101B3000B0E0A0E0309799F42115310509F44AC0CE
:101B4000281B390B24303105D8F58A819B8161151A
:101B5000710589F1FB0193838283FE0111C04081ED
:101B600051810281138148175907E0F0481759073E
:101B700099F4109761F012960C93129713961C9398
:101B80003296CF01DF91CF911F910F91089500936D
:101B9000880310938903F4CF2115310551F04217C2
:101BA000530738F0A901DB019A01BD01DF01F801FB
:101BB000C1CFEF01F9CF9093890380938803CDCFF4
:101BC000FE01E20FF31F8193919322503109398373
:101BD0002883D7CF2091860330918703232B41F4AC
:101BE00020910201309103013093870320938603F3
:101BF00020910001309101012115310541F42DB7EB
:101C00003EB74091040150910501241B350BE09132
:101C10008603F0918703E217F307A0F42E1B3F0B16
:101C20002817390778F0AC014E5F5F4F241735074E
:101C300048F04E0F5F1F50938703409386038193B4
:101C400091939FCFF0E0E0E09CCFCF93DF9300979C
:101C5000E9F0FC01329713821282A0918803B091BF
:101C60008903ED0130E020E01097A1F4208131815B
:101C7000820F931F2091860330918703281739071D
:101C800009F061C0F0938703E0938603DF91CF9161
:101C90000895EA01CE17DF07E8F54A815B819E01CE
:101CA00041155105B1F7E901FB83EA834991599147
:101CB000C40FD51FEC17FD0761F480819181029656
:101CC000840F951FE90199838883828193819B8387
:101CD0008A83F0E0E0E012968D919C911397009733
:101CE000B9F52D913C911197CD010296820F931F6A
:101CF00020918603309187032817390739F63097EA
:101D000051F51092890310928803B0938703A09332
:101D10008603BCCFD383C28340815181840F951F3A
:101D2000C817D90761F44E5F5F4F88819981480FCA
:101D3000591F518340838A819B819383828321151C
:101D4000310509F0B0CFF0938903E09388039ECF6B
:101D5000FD01DC01C0CF13821282D7CFFB01DC0171
:101D60004150504048F001900D920020C9F701C049
:0E1D70001D9241505040E0F70895F894FFCFC7
:101D7E0000008A03800006010B02DC00B801E900B6
:101D8E00D2010000000006010B02DC00B801E900E0
:101D9E00D20100000000AF005D01930026019C00FF
:101DAE00370100000000AF005D01930026019C008A
:101DBE00370100000000370115012601150137011A
:101DCE003701D000C4001501060172015D01A500A6
:101DDE00D201B8019F013701F700E900DC00D00005
:101DEE000000000000000C000C000C000C000C00A9
:101DFE000C00060003000C000C000C000C000C0084
:101E0E000C00060003000C000C000C000C000C0073
:101E1E000C00060003000C000C000C000C000C0063
:101E2E000C0006000600120012001200060006004A
:101E3E000600060006000600120012001200120034
:101E4E00120012000A000A000A000A000A000A0024
:101E5E0003000300030000000000EB006C018C0087
:101E6E003801BD009B00AF000000000001034A05D1
:101E7E00D4044E05B7060000000001034C05D4043F
:101E8E00D4053307444854313100444854313200AC
:101E9E004448543231004448543232004448543F8E
:101EAE00002027556E646572776F726C64205468DB
:081EBE00656D6527000D0A00A7
:00000001FF
