:020000040000FA
:100000000C9462000C948A000C948A000C948A0070
:100010000C948A000C948A000C948A000C948A0038
:100020000C948A000C948A000C948A000C948A0028
:100030000C948A000C948A000C948A000C948A0018
:100040000C945A030C948A000C9428030C94020319
:100050000C948A000C948A000C948A000C948A00F8
:100060000C948A000C948A000000000024002700F1
:100070002A0000000000250028002B0000000000DE
:1000800023002600290004040404040404040202DA
:100090000202020203030303030301020408102007
:1000A0004080010204081020010204081020000012
:1000B0000008000201000003040700000000000027
:1000C0000000A00411241FBECFEFD8E0DEBFCDBFDB
:1000D00012E0A0E0B1E0E2E3FDE002C005900D9285
:1000E000AA30B107D9F722E0AAE0B2E001C01D9220
:1000F000A13BB207E1F710E0C2E6D0E004C02197CF
:10010000FE010E948206C136D107C9F70E94A403EE
:100110000C9497060C940000FC01538D448D252F00
:1001200030E0842F90E0821B930B541710F0CF9691
:10013000089501970895FC01918D828D981761F0C3
:10014000A28DAE0FBF2FB11D5D968C91928D9F5FDA
:100150009F73928F90E008958FEF9FEF0895FC01B9
:10016000918D828D981731F0828DE80FF11D858D6C
:1001700090E008958FEF9FEF0895FC01918D228DFF
:10018000892F90E0805C9F4F821B91098F73992784
:100190000895FC01A48DA80FB92FB11DA35ABF4F1C
:1001A0002C91848D90E001968F739927848FA68976
:1001B000B7892C93A089B1898C91837080648C93CA
:1001C000938D848D981306C00288F389E02D808179
:1001D0008F7D80830895EF92FF920F931F93CF93AB
:1001E000DF93EC0181E0888F9B8D8C8D98131AC072
:1001F000E889F989808185FF15C09FB7F894EE8959
:10020000FF896083E889F9898081837080648083B5
:100210009FBF81E090E0DF91CF911F910F91FF9000
:10022000EF900895F62E0B8D10E00F5F1F4F0F73A8
:100230001127E02E8C8D8E110CC00FB607FCFACF63
:10024000E889F989808185FFF5CFCE010E94C90038
:10025000F1CFEB8DEC0FFD2FF11DE35AFF4FF08234
:100260009FB7F8940B8FEA89FB8980818062CFCF9A
:10027000CF93DF93EC01888D8823B9F0AA89BB89DD
:10028000E889F9898C9185FD03C0808186FD0DC0C8
:100290000FB607FCF7CF8C9185FFF2CF808185FFE9
:1002A000EDCFCE010E94C900E9CFDF91CF91089533
:1002B00083E192E00E94BD0021E0892B09F420E057
:1002C000822F089580E090E0892B29F00E94580148
:1002D00081110C9400000895AF92BF92CF92DF92EB
:1002E000EF92FF920F931F93CF93DF936C017B01EB
:1002F0008B01040F151FEB015E01AE18BF08C0177C
:10030000D10759F06991D601ED91FC910190F081EE
:10031000E02DC6010995892B79F7C501DF91CF91B1
:100320001F910F91FF90EF90DF90CF90BF90AF9013
:100330000895833081F028F4813099F08230A9F05B
:1003400008958730A9F08830C9F08430B1F48091E5
:1003500080008F7D03C0809180008F778093800024
:10036000089584B58F7784BD089584B58F7DFBCFC4
:100370008091B0008F778093B00008958091B00095
:100380008F7DF9CFCF93DF93282F30E0F901E2552D
:10039000FF4F8491F901E656FF4FD491F901EA57D6
:1003A000FF4FC491CC23A1F081110E949901EC2F41
:1003B000F0E0EE0FFF1FE458FF4FA591B491EC91D0
:1003C000ED2381E090E009F480E0DF91CF91089582
:1003D00080E090E0FACF1F93CF93DF93282F30E097
:1003E000F901E255FF4F8491F901E656FF4FD49190
:1003F000F901EA57FF4FC491CC23A9F0162F8111C0
:100400000E949901EC2FF0E0EE0FFF1FEE58FF4F16
:10041000A591B4918FB7F894EC91111108C0D095C3
:10042000DE23DC938FBFDF91CF911F910895DE2BE8
:10043000F8CFCF93DF9390E0FC01E656FF4F249175
:100440008A579F4FFC0184918823D1F090E0880F58
:10045000991FFC01E859FF4FA591B491FC01EE589A
:10046000FF4FC591D49161110EC09FB7F8948C9144
:10047000E22FE0958E238C932881E223E8839FBFAF
:10048000DF91CF9108958FB7F894EC91E22BEC9324
:100490008FBFF6CF3FB7F89480910F029091100272
:1004A000A0911102B091120226B5A89B05C02F3F62
:1004B00019F00196A11DB11D3FBFBA2FA92F982F8A
:1004C0008827BC01CD01620F711D811D911D42E085
:1004D000660F771F881F991F4A95D1F708958F924D
:1004E0009F92AF92BF92CF92DF92EF92FF926B01F9
:1004F0007C010E944A024B015C01C114D104E10459
:10050000F104B9F00E944A02681979098A099B0925
:10051000683E73408105910580F321E0C21AD1083D
:10052000E108F10888EE880E83E0981EA11CB11C3A
:10053000E4CFFF90EF90DF90CF90BF90AF909F906F
:100540008F9008954F925F926F927F928F929F92B9
:10055000AF92BF92FF920F931F93CF93DF93F82E2A
:100560002A013B01C901B801A30192010E94FE05C5
:1005700028EE33E040E050E00E94220649015A0193
:1005800060E271EA87E090E0A30192010E942206F6
:100590008901220F331F220F331FE9012597412CB8
:1005A000512C3201481459046A047B04D4F461E0EC
:1005B0008F2D0E94EB010230110518F0CE0101973A
:1005C000F1F760E08F2D0E94EB010230110518F069
:1005D000CE010197F1F78FEF481A580A680A780A96
:1005E000E1CF60E08F2DDF91CF911F910F91FF90B0
:1005F000BF90AF909F908F907F906F905F904F9043
:100600000C94EB011F920F920FB60F9211242F93AF
:100610003F934F935F936F937F938F939F93AF938A
:10062000BF93EF93FF9383E192E00E94C900FF9193
:10063000EF91BF91AF919F918F917F916F915F915A
:100640004F913F912F910F900FBE0F901F901895D3
:100650001F920F920FB60F9211242F938F939F9397
:10066000EF93FF93E0912302F09124028081E091C7
:100670002902F0912A0282FD1BC0908180912C02F8
:100680008F5F8F7320912D02821741F0E0912C0231
:10069000F0E0ED5EFD4F958F80932C02FF91EF917E
:1006A0009F918F912F910F900FBE0F901F901895D3
:1006B0008081F4CF1F920F920FB60F9211242F93C7
:1006C0003F938F939F93AF93BF9380910B02909131
:1006D0000C02A0910D02B0910E0230910A0223E0AB
:1006E000230F2D3758F50196A11DB11D20930A0245
:1006F00080930B0290930C02A0930D02B0930E0214
:1007000080910F0290911002A0911102B0911202FB
:100710000196A11DB11D80930F0290931002A0932A
:100720001102B0931202BF91AF919F918F913F91AF
:100730002F910F900FBE0F901F90189526E8230F52
:100740000296A11DB11DD2CF789484B5826084BD7C
:1007500084B5816084BD85B5826085BD85B58160C5
:1007600085BD80916E00816080936E001092810043
:1007700080918100826080938100809181008160FE
:1007800080938100809180008160809380008091BF
:10079000B10084608093B1008091B000816080934B
:1007A000B00080917A00846080937A0080917A0012
:1007B000826080937A0080917A00816080937A00D1
:1007C00080917A00806880937A001092C10061E085
:1007D0008DE00E94190261E08CE00E94190261E044
:1007E00088E00E94190260E082E00E9419021092E3
:1007F000B00292EFC92E91E0D92E28EEA22E23E06E
:10080000B22E30E0832E30E0932E8BE00E94C201A6
:10081000EC0189E00E94C20161E0C817D90709F420
:1008200060E08DE00E94EB0182E00E94C20101972E
:1008300009F073C08091B00281116FC081E0809394
:10084000B00261E088E00E94EB018091B002882351
:1008500009F463C08CE00E94C20161E0892B09F0B9
:1008600060E08CE00E94EB0143E150E062EF71E058
:1008700083E192E00E946C0142E050E066E072E0A9
:1008800083E192E00E946C01C2E8D1E082E1E82EAF
:1008900081E0F82E69917991C5010E940E062B0125
:1008A000770F66087708F701419151917F01052E76
:1008B000000C660B770B9301820188E090E00E94A8
:1008C000A202C301B2010E94050526E636E646EA09
:1008D0005FE30E9469050E94CD04072E000C880B7F
:1008E000990B0E946F02930140E050E0BA0188E04A
:1008F00090E00E94A202CC16DD0661F68AE00E941A
:10090000C2010197B1F460E08CE00E94EB0160E06D
:1009100088E00E94EB011092B0028114910409F466
:1009200074CF0E945801882309F46FCF0E94000001
:100930006CCF68EE73E080E090E00E946F0285CF9C
:10094000E3E1F2E01382128288EE93E0A0E0B0E0EF
:1009500084839583A683B78384E091E09183808329
:1009600085EC90E09587848784EC90E09787868774
:1009700080EC90E0918B808B81EC90E0938B828B6C
:1009800082EC90E0958B848B86EC90E0978B868B45
:10099000118E128E138E148E08950E94D4046894C2
:1009A000B1110C94630508950E94480588F09F5783
:1009B00098F0B92F9927B751B0F0E1F0660F771F83
:1009C000881F991F1AF0BA95C9F714C0B13091F079
:1009D0000E946205B1E008950C946205672F782F9C
:1009E0008827B85F39F0B93FCCF38695779567953E
:1009F000B395D9F73EF490958095709561957F4FAA
:100A00008F4F9F4F0895E89409C097FB3EF490954F
:100A10008095709561957F4F8F4F9F4F9923A9F0D7
:100A2000F92F96E9BB279395F69587957795679566
:100A3000B795F111F8CFFAF4BB0F11F460FF1BC0AA
:100A40006F5F7F4F8F4F9F4F16C0882311F096E93D
:100A500011C0772321F09EE8872F762F05C06623EB
:100A600071F096E8862F70E060E02AF09A95660FA4
:100A7000771F881FDAF7880F9695879597F908955D
:100A800057FD9058440F551F59F05F3F71F047953F
:100A9000880F97FB991F61F09F3F79F08795089524
:100AA000121613061406551FF2CF4695F1DF08C043
:100AB000161617061806991FF1CF86957105610560
:100AC00008940895E894BB2766277727CB0197F908
:100AD00008950E947C050C94ED050E94DF0538F016
:100AE0000E94E60520F0952311F00C94D6050C9495
:100AF000DC0511240C9463050E94400570F3959F5A
:100B0000C1F3950F50E0551F629FF001729FBB2704
:100B1000F00DB11D639FAA27F00DB11DAA1F649FA0
:100B20006627B00DA11D661F829F2227B00DA11D53
:100B3000621F739FB00DA11D621F839FA00D611DD9
:100B4000221F749F3327A00D611D231F849F600DFA
:100B5000211D822F762F6A2F11249F5750409AF023
:100B6000F1F088234AF0EE0FFF1FBB1F661F771FAF
:100B7000881F91505040A9F79E3F510580F00C947A
:100B8000D6050C9463055F3FE4F3983ED4F3869555
:100B900077956795B795F795E7959F5FC1F7FE2B1A
:100BA000880F911D9695879597F9089597F99F67F6
:100BB00080E870E060E008959FEF80EC08950024E5
:100BC0000A941616170618060906089500240A94B2
:100BD00012161306140605060895092E0394000C38
:100BE00011F4882352F0BB0F40F4BF2B11F460FFC7
:100BF00004C06F5F7F4F8F4F9F4F0895DB018F932E
:100C00009F930E944106BF91AF91A29F800D911DBD
:100C1000A39F900DB29F900D1124089597FB072E6E
:100C200016F4009407D077FD09D00E944C0607FC0B
:100C300005D03EF4909581959F4F089570956195EC
:100C40007F4F0895052E97FB1EF400940E943906ED
:100C500057FD07D00E94600607FC03D04EF40C94A9
:100C6000390650954095309521953F4F4F4F5F4F36
:100C7000089590958095709561957F4F8F4F9F4F08
:100C800008950E948806A59F900DB49F900DA49F83
:100C9000800D911D11240895AA1BBB1B51E107C0B3
:100CA000AA1FBB1FA617B70710F0A61BB70B881FFC
:100CB000991F5A95A9F780959095BC01CD0108958B
:100CC000A1E21A2EAA1BBB1BFD010DC0AA1FBB1F50
:100CD000EE1FFF1FA217B307E407F50720F0A21BC2
:100CE000B30BE40BF50B661F771F881F991F1A942F
:100CF00069F760957095809590959B01AC01BD0159
:100D0000CF010895EE0FFF1F0590F491E02D099497
:100D1000A29FB001B39FC001A39F700D811D11243C
:100D2000911DB29F700D811D1124911D0895F8949D
:100D3000FFCF00000000EB006C018C003801BD000B
:100D40009B00AF0006010B02DC00B801E900D201F4
:100D50000000000006010B02DC00B801E900D2012E
:100D600000000000AF005D01930026019C003701E8
:100D700000000000AF005D01930026019C003701D8
:100D80000000000037011501260115013701370168
:100D9000D000C4001501060172015D01A500D20159
:100DA000B8019F013701F700E900DC00D000000026
:100DB000000000000C000C000C000C000C000C00EB
:100DC000060003000C000C000C000C000C000C00D2
:100DD000060003000C000C000C000C000C000C00C2
:100DE000060003000C000C000C000C000C000C00B2
:100DF000060006001200120012000600060006009F
:100E00000600060006001200120012001200120076
:100E100012000A000A000A000A000A000A00030081
:100E2000030003002027556E646572776F726C644F
:0C0E3000205468656D6527000D0A000065
:107E0000112484B714BE81FFF0D085E080938100F7
:107E100082E08093C00088E18093C10086E0809377
:107E2000C20080E18093C4008EE0C9D0259A86E02C
:107E300020E33CEF91E0309385002093840096BBD3
:107E4000B09BFECF1D9AA8958150A9F7CC24DD24C4
:107E500088248394B5E0AB2EA1E19A2EF3E0BF2EE7
:107E6000A2D0813461F49FD0082FAFD0023811F036
:107E7000013811F484E001C083E08DD089C08234E0
:107E800011F484E103C0853419F485E0A6D080C0E4
:107E9000853579F488D0E82EFF2485D0082F10E0AE
:107EA000102F00270E291F29000F111F8ED06801E7
:107EB0006FC0863521F484E090D080E0DECF843638
:107EC00009F040C070D06FD0082F6DD080E0C81688
:107ED00080E7D80618F4F601B7BEE895C0E0D1E017
:107EE00062D089930C17E1F7F0E0CF16F0E7DF06D8
:107EF00018F0F601B7BEE89568D007B600FCFDCFD4
:107F0000A601A0E0B1E02C9130E011968C91119780
:107F100090E0982F8827822B932B1296FA010C0160
:107F200087BEE89511244E5F5F4FF1E0A038BF0790
:107F300051F7F601A7BEE89507B600FCFDCF97BE46
:107F4000E89526C08437B1F42ED02DD0F82E2BD052
:107F50003CD0F601EF2C8F010F5F1F4F84911BD097
:107F6000EA94F801C1F70894C11CD11CFA94CF0C13
:107F7000D11C0EC0853739F428D08EE10CD085E9AC
:107F80000AD08FE07ACF813511F488E018D01DD067
:107F900080E101D065CF982F8091C00085FFFCCF94
:107FA0009093C60008958091C00087FFFCCF809118
:107FB000C00084FD01C0A8958091C6000895E0E648
:107FC000F0E098E1908380830895EDDF803219F02E
:107FD00088E0F5DFFFCF84E1DECF1F93182FE3DFCA
:107FE0001150E9F7F2DF1F91089580E0E8DFEE27F6
:047FF000FF270994CA
:027FFE00040479
:00000001FF
