:020000040000FA
:100000000C9462000C948A000C948A000C948A0070
:100010000C948A000C948A000C948A000C948A0038
:100020000C948A000C948A000C948A000C948A0028
:100030000C948A000C948A000C948A000C948A0018
:100040000C946C0C0C948A000C943A0C0C94140CC8
:100050000C948A000C948A000C948A000C948A00F8
:100060000C94B60C0C948A000000000024002700B9
:100070002A0000000000250028002B0000000000DE
:1000800023002600290000000008000201000003F0
:10009000040700000000000000000404040404043D
:1000A0000404020202020202030303030303010227
:1000B00004081020408001020408102001020408F6
:1000C0001020D10D11241FBECFEFD8E0DEBFCDBF71
:1000D00014E0A0E0B1E0ECE4FDE202C005900D9276
:1000E000A031B107D9F725E0A0E1B4E001C01D922D
:1000F000AF37B207E1F710E0C2E6D0E004C02197C5
:10010000FE010E94C912C136D107C9F70E944A0EEA
:100110000C94A4160C940000AF92BF92CF92DF9281
:10012000EF92FF920F931F93CF93DF936C017B01AC
:100130008B01040F151FEB015E01AE18BF08C0173D
:10014000D10759F06991D601ED91FC910190F081B0
:10015000E02DC6010995892B79F7C501DF91CF9173
:100160001F910F91FF90EF90DF90CF90BF90AF90D5
:100170000895FC01538D448D252F30E0842F90E0AD
:10018000821B930B541710F0CF9608950197089592
:10019000FC01918D828D981761F0A28DAE0FBF2F5B
:1001A000B11D5D968C91928D9F5F9F73928F90E0B1
:1001B00008958FEF9FEF0895FC01918D828D981720
:1001C00031F0828DE80FF11D858D90E008958FEF5D
:1001D0009FEF0895FC01918D228D892F90E0805C26
:1001E0009F4F821B91098F739927089588EB94E0A4
:1001F0000E94EA0021E0892B09F420E0822F089573
:1002000080E090E0892B29F00E94F60081110C9487
:1002100000000895FC01A48DA80FB92FB11DA35AA9
:10022000BF4F2C91848D90E001968F739927848F16
:10023000A689B7892C93A089B1898C918370806439
:100240008C93938D848D981306C00288F389E02DDA
:1002500080818F7D80830895EF92FF920F931F938B
:10026000CF93DF93EC0181E0888F9B8D8C8D981369
:100270001AC0E889F989808185FF15C09FB7F89475
:10028000EE89FF896083E889F989808183708064C1
:1002900080839FBF81E090E0DF91CF911F910F910C
:1002A000FF90EF900895F62E0B8D10E00F5F1F4F1B
:1002B0000F731127E02E8C8D8E110CC00FB607FC2A
:1002C000FACFE889F989808185FFF5CFCE010E94B8
:1002D0000A01F1CFEB8DEC0FFD2FF11DE35AFF4F1B
:1002E000F0829FB7F8940B8FEA89FB898081806246
:1002F000CFCFCF93DF93EC01888D8823B9F0AA8903
:10030000BB89E889F9898C9185FD03C0808186FDD0
:100310000DC00FB607FCF7CF8C9185FFF2CF80811F
:1003200085FFEDCFCE010E940A01E9CFDF91CF9189
:100330000895833081F028F4813099F08230A9F05B
:1003400008958730A9F08830C9F08430B1F48091E5
:1003500080008F7D03C0809180008F778093800024
:10036000089584B58F7784BD089584B58F7DFBCFC4
:100370008091B0008F778093B00008958091B00095
:100380008F7DF9CFCF93DF93282F30E0F901EA5723
:10039000FF4F8491F901E255FF4FD491F901E656E0
:1003A000FF4FC491CC23A1F081110E949901EC2F41
:1003B000F0E0EE0FFF1FE458FF4FA591B491EC91D0
:1003C000ED2381E090E009F480E0DF91CF91089582
:1003D00080E090E0FACF1F93CF93DF93282F30E097
:1003E000F901EA57FF4F8491F901E255FF4FD4918B
:1003F000F901E656FF4FC491CC23A9F0162F8111C5
:100400000E949901EC2FF0E0EE0FFF1FEE58FF4F16
:10041000A591B4918FB7F894EC91111108C0D095C3
:10042000DE23DC938FBFDF91CF911F910895DE2BE8
:10043000F8CFCF93DF9390E0FC01E255FF4F24917A
:1004400086569F4FFC0184918823C9F090E0880F65
:10045000991FFC01E859FF4FA591B491FC01EE589A
:10046000FF4FC591D49161110DC09FB7F8948C9145
:10047000209582238C938881282328839FBFDF9136
:10048000CF910895623051F49FB7F8943C91822F38
:10049000809583238C93E8812E2BEFCF8FB7F89430
:1004A000EC912E2B2C938FBFEACF8E3008F08E501C
:1004B0008770806480937C0080917A008064809350
:1004C0007A0080917A0086FDFCCF8091780090912F
:1004D000790008953FB7F8948091B2049091B304E5
:1004E000A091B404B091B50426B5A89B05C02F3FD8
:1004F00019F00196A11DB11D3FBFBA2FA92F982F4A
:100500008827BC01CD01620F711D811D911D42E044
:10051000660F771F881F991F4A95D1F708958F920C
:100520009F92AF92BF92CF92DF92EF92FF926B01B8
:100530007C010E946A024B015C01C114D104E104F8
:10054000F104B9F00E946A02681979098A099B09C5
:10055000683E73408105910580F321E0C21AD108FD
:10056000E108F10888EE880E83E0981EA11CB11CFA
:10057000E4CFFF90EF90DF90CF90BF90AF909F902F
:100580008F9008952FB7F8946091AE047091AF04E6
:100590008091B0049091B1042FBF08950F931F93E1
:1005A0000E94C2026093C0047093C1048093C2048D
:1005B0009093C30488EB94E00E94DC0097FF1DC079
:1005C0000E94C2020091C0041091C1042091C20493
:1005D0003091C304601B710B820B930B0091BC0420
:1005E0001091BD042091BE043091BF0460177107C3
:1005F00082079307F8F28FEF9FEF1F910F910895F5
:1006000020916304260F3327331F21323105ECF488
:1006100020918704FC0190E080E0243069F082E0C2
:100620000895A09163042191AC014D5B5B4FA40F31
:10063000B52FB11D2C930196861798F38091630412
:10064000680F6093630480E0089581E00895089541
:100650008FEF9FEF08958FEF9FEF089580913C04F7
:1006600090E09195819591090895CF93DF93CB0107
:10067000EA01642F0E940003CE01DF91CF9108951B
:10068000CF93DF931F92CDB7DEB7698361E0CE01D0
:1006900001960E94000381E090E00F90DF91CF91DE
:1006A000089590E080E008950895FC0183898B30DF
:1006B00051F480E492E4AFE0B0E0FB0184A395A3A1
:1006C000A6A3B7A3089580E894E8AEE1B0E0F5CF23
:1006D000CF92DF92EF92FF92CF93DF93DC011796D8
:1006E000CC911797D0E06111DC2F18962C911897B8
:1006F00030E0220F331F24583F4F50E040E0F90113
:1007000085919491FC01F080BA0190E080E0EF2D9A
:10071000EC23ED1310C04F5F5F4F1D96CD90DD9021
:10072000ED90FC9050976C157D058E059F0538F374
:100730006FEF7FEFCB01DF91CF91FF90EF90DF90D4
:10074000CF9008958F929F92AF92BF92CF92DF92F7
:10075000EF92FF920F931F93CF93DF93CDB7DEB746
:10076000C054D1400FB6F894DEBF0FBECDBF8C0190
:100770000E94C202F801C184D284E384F4849B0104
:10078000AC012C193D094E095F0969017A0130ED70
:10079000C31637E0D306E104F104A8F48189C05CF4
:1007A000DE4F0FB6F894DEBF0FBECDBFDF91CF9105
:1007B0001F910F91FF90EF90DF90CF90BF90AF907F
:1007C0009F908F90089561877287838794871482A2
:1007D000138212821182108262E085810E941902C6
:1007E00061E070E080E090E00E948F0261E0F8013B
:1007F00085810E94190260E0F80185810E94EB0169
:10080000F80186818551823028F58BE291E10197CC
:10081000F1F762E0F80185810E941902F8018289EE
:1008200090E08230910538F0880F991F880F991F4A
:1008300005970197F1F7F89460E0C8010E946803FA
:100840006F3F7F4F8F4F9F4F61F4F801118A78946B
:1008500080E0A5CF64E170E080E090E00E948F022C
:10086000D8CF61E0C8010E9468036F3F7F4F8F4F70
:100870009F4F59F39E012F5F3F4F79015E013FEB80
:10088000A31A3EEFB30A670160E0C8010E94680343
:10089000F601608371838283938361E0C8010E94C3
:1008A0006803F6016483758386839783F8E0CF0E2F
:1008B000D11CCA14DB0441F7789430E020E0F70142
:1008C00080809180A280B380448155816681778148
:1008D000FFEF8F169F06AF06BF0631F04F3F8FEF39
:1008E00058076807780719F4F801118AB1CFF901A0
:1008F00083E0F595E7958A95E1F7E00FF11F808198
:10090000880F84169506A606B706F0F080832F5F41
:100910003F4FF8E0EF0EF11C2832310581F6F80167
:10092000448120818181280F3327331F8281280F42
:10093000311D8381820F932F911D99274817190626
:1009400099F681E0818B2BCF8160E0CF0895FC0187
:1009500001900020E9F73197AF01481B590BBC010A
:1009600088EB94E00C948C008F929F92AF92BF9290
:100970000F931F93CF93DF93CDB7DEB7A1970FB639
:10098000F894DEBF0FBECDBF19A2423008F44AE092
:100990008E010F5D1F4F842E912CB12CA12CA5012F
:1009A00094010E94B311E62FB901CA01EA30F4F4B0
:1009B000E05DD801EE938D01232B242B252B79F7B5
:1009C00090E080E0109719F0CD010E94A704A19655
:1009D0000FB6F894DEBF0FBECDBFDF91CF911F9150
:1009E0000F91BF90AF909F908F900895E95CE1CFF9
:1009F000CF92DF92EF92FF92CF93DF936B017C0156
:100A00006DE288EB94E00E942C01EC0166277727C9
:100A1000CB016C197D098E099F094AE00E94B4043C
:100A20008C0F9D1FDF91CF91FF90EF90DF90CF90C3
:100A30000895CF93DF930E94A704EC0189E192E02F
:100A40000E94A7048C0F9D1FDF91CF910895CF9333
:100A5000DF93BC01990F880B990B97FF0CC00E9484
:100A6000F804EC0189E192E00E94A7048C0F9D1F1D
:100A7000DF91CF9108954AE00E94B404F2CF1F9312
:100A8000CF93DF9385ED8093BC0080913F049091DC
:100A90004004A0914104B09142040796A11DB11DEC
:100AA00023E0B695A795979587952A95D1F720913C
:100AB000BC0024FD03C01092870452C040913F0443
:100AC000509140046091410470914204452B462BA3
:100AD000472B69F30097A105B10541F025E32A955D
:100AE000F1F700000197A109B109E1CF80913E041F
:100AF000C1E0C0933D04882399F1D091B8001091D2
:100B0000BA008091BC008A7B8093BC0060E082E1E7
:100B10000E94EB0160E083E10E94EB0110928704E8
:100B2000C09389041092880461E082E10E94EB0185
:100B300061E083E10E94EB018091B9008E7F809398
:100B4000B9008091B9008D7F8093B90088E48093CB
:100B5000B80085E48093BC001093BA00D093B8002D
:100B6000DF91CF911F9108950C946B130C946B132C
:100B7000CF92DF92EF92FF920F931F93CF93DF9369
:100B80008C01EB01FB01349680E2DF011D928A9516
:100B9000E9F784E290E0A0E0B0E088839983AA833B
:100BA000BB83F80185819681A781B0858C839D8365
:100BB000AE83BF838CE090E0A0E0B0E088879987A7
:100BC000AA87BB870E94C202688B798B8A8B9B8B1A
:100BD000D80113960D911C91C8010E94A20388238D
:100BE00049F0F80186818B3028F08D3040F0855136
:100BF000823070F160E070E080EC9FE71BC06181A3
:100C000070E090E080E00E942D102DEC3CEC4CEC6C
:100C10005DE30E948C106B017C01F801608170E043
:100C200090E080E00E942D109B01AC01C701B6014D
:100C30000E94E5116C8B7D8B8E8B9F8B81E0DF9109
:100C4000CF911F910F91FF90EF90DF90CF9008957B
:100C50006081718176276727762790E080E00E9487
:100C60002B102DEC3CEC4CEC5DE30E948C10E2CFA1
:100C70008F929F92AF92BF92EF92FF921F93CF936A
:100C8000DF937C01EB01FB01349680E2DF011D92D2
:100C90008A95E9F784E290E0A0E0B0E08883998348
:100CA000AA83BB83F70185819681A781B0858C8358
:100CB0009D83AE83BF838DE090E0A0E0B0E08887A5
:100CC0009987AA87BB870E94C202688B798B8A8B1F
:100CD0009B8BD7011396ED90FC90C7010E94A20355
:100CE000882341F0F70186818C3009F455C038F42F
:100CF0008B30E1F060E070E080EC9FE73EC0855112
:100D00008230C0F71281612F70E0762F6627662748
:100D10007F778381682B90E080E00E942B102DEC80
:100D20003CEC4CEC5DE30E948C1051C0628170E0A1
:100D300090E080E00E942B104B015C01F7011381D1
:100D400017FF0AC0AC019B0160E070E080E89FEBF8
:100D50000E94E4114B015C011F70612F70E090E074
:100D600080E00E942D102DEC3CEC4CEC5DE30E94E9
:100D70008C10A50194010E94E5116C8B7D8B8E8BEC
:100D80009F8B81E0DF91CF911F91FF90EF90BF90FB
:100D9000AF909F908F9008951281612F70E090E046
:100DA00080E00E942B104B015C01F70163816F70A2
:100DB00070E090E080E00E942D102DEC3CEC4CECBB
:100DC0005DE30E948C10A50194010E94E51117FFBC
:100DD000D4CF9058D2CFCF93DF93EB01FC0183891E
:100DE0004BE050E062E272E08C30C1F058F44BE02E
:100DF00050E06CE172E08B3089F04BE050E064E34E
:100E000072E00CC04BE050E068E272E0853131F0F6
:100E10004BE050E06EE272E0863179F7CE010E943D
:100E2000F4131B86DF91CF9108950F931F93CF93F7
:100E3000DF938C01EB0188E2DB011D928A95E9F7D3
:100E4000F801838194810E94EB0681E090E0A0E0AC
:100E5000B0E08C879D87AE87BF87F801858196813A
:100E6000A781B085888B998BAA8BBB8B8CE090E097
:100E7000A0E0B0E08C8B9D8BAE8BBF8BBE018381DD
:100E800094810E945503D8011396ED91FC918389BA
:100E90008C3009F441C078F48B3009F1188E198E2A
:100EA0001A8E1B8E1C8E1D8E1E8E1F8E18A219A2CE
:100EB0001AA21BA22CC08551823080F780E090E0FE
:100EC000A8ECB2E4888F998FAA8FBB8F1C8E1D8EE1
:100ED0001E8E1F8E8DEC9CECACECBDE314C080E04C
:100EE00090E0A0EAB2E4888F998FAA8FBB8F80E050
:100EF00090E0A0EAB1E48C8F9D8FAE8FBF8F80E031
:100F000090E0A0EAB0E488A399A3AAA3BBA3DF91D1
:100F1000CF911F910F91089580E090E0AEEBB2E485
:100F2000E2CF0F931F93CF93DF938C01EB0188E205
:100F3000DB011D928A95E9F7F801838194810E9473
:100F4000EB0681E090E0A0E0B0E08C879D87AE8763
:100F5000BF87F80185819681A781B085888B998BA1
:100F6000AA8BBB8B8DE090E0A0E0B0E08C8B9D8BDA
:100F7000AE8BBF8BBE01838194810E945503D80143
:100F80001396ED91FC9183898C3091F178F48B303C
:100F9000B1F0188E198E1A8E1B8E1C8E1D8E1E8E11
:100FA0001F8E18A219A21AA21BA21DC08531A9F179
:100FB000863179F780E090E0AAEFB2E432C080E0B9
:100FC00090E0A8E4B2E4888F998FAA8FBB8F1C8E23
:100FD0001D8E1E8E1F8E80E090E0A0E0B0E488A3FE
:100FE00099A3AAA3BBA3DF91CF911F910F9108955D
:100FF00080E090E0A0E7B2E4888F998FAA8FBB8F42
:1010000080E090E0A0EAB1EC8C8F9D8FAE8FBF8F17
:1010100080E090E0A0E0BFE3E2CF80E090E0A0EAD3
:10102000B2E4888F998FAA8FBB8F80E090E0A0E216
:10103000B2EC8C8F9D8FAE8FBF8F8DEC9CECACECA7
:10104000BDE3CDCF2F923F924F925F926F927F92EE
:101050008F929F92AF92BF92CF92DF92EF92FF92C8
:101060000F931F93CF93DF9361E089E00E94EB0120
:1010700060E08AE00E94EB0160E08BE00E94EB01FF
:101080008091B6049BEE292E91E0392E28EEC22ED7
:1010900023E0D22E811144C060E089E00E94EB0180
:1010A00060E08BE00E94EB0160E085E00E94EB01D4
:1010B00089E392E0DF91CF911F910F91FF90EF9024
:1010C000DF90CF90BF90AF909F908F907F906F9068
:1010D0005F904F903F902F900C94190561E089E04C
:1010E0000E94EB0160E02BC00E94FD08B401990C46
:1010F000880B990B0E948F02930140E050E0BA01E7
:1011000085E090E00E949A0B2C163D0639F556C0FA
:101110000E94FD0868EE73E080E090E00E948F027C
:101120008091B604882309F455C089E00E94C20169
:10113000892BA1F260E089E00E94EB0161E08BE085
:101140000E94EB010E94CE0F8EE492E00E941905EE
:10115000CBE7D1E08BE0E82E81E0F82E6991799120
:10116000C6010E94A1122B01770F66087708F701CC
:10117000419151917F01052E000C660B770B930175
:10118000820185E090E00E949A0BC301B2010E94A7
:101190002D1026E636E646EA5FE30E948C100E9498
:1011A00051124B0183E00E94C201892B09F09CCFB0
:1011B00082E692E00E9419051092B60483E00E9434
:1011C000C201892B09F0A4CF82E692E00E941905A2
:1011D0001092B604DF91CF911F910F91FF90EF9085
:1011E000DF90CF90BF90AF909F908F907F906F9047
:1011F0005F904F903F902F9008958F929F92AF9263
:10120000BF92CF92DF92EF92FF920F931F93CF93F3
:10121000DF93CDB7DEB729970FB6F894DEBF0FBEC8
:10122000CDBF8EE792E00E94190581E10E94550230
:10123000C3970CF4DCC080913B048111D8C081E0DD
:1012400080933B0410923A048DE892E00E941905C5
:1012500081E10E9455027C0181EB92E00E94A7048B
:10126000B701FF0C880B990B97FFD1C00E94F804BF
:101270008FEB92E00E94A70480913B0490E00E94D3
:10128000270588EB94E00E94EA00892B09F49CC0B2
:101290008FEC92E00E9419056AE070E080E090E037
:1012A0000E948F020E94CE02FC0197FDBBC08D32CE
:1012B000910521F0C0970A9708F0ADC0C12CD12C40
:1012C000760110E0E130F105D9F0ED32F10509F4D5
:1012D000A7C0CF01C0970A9798F4AAE0B0E0A70191
:1012E00096010E9469116F01FF0FEE08FF08C60EFC
:1012F000D71EE81EF91E80E3C81AD108E108F108DC
:1013000088EB94E00E94C8000E94CE02FC01C097C6
:101310000A97C0F2E130F105A9F2112341F0F094EF
:10132000E094D094C094C11CD11CE11CF11CDF924C
:10133000CF9287EE92E09F938F9388E394E09F9300
:101340008F930E9403148AEE92E00E94A70488E320
:1013500094E00E94190580913804082E000C990B26
:10136000C09790933704809336040E94270580919C
:101370003904082E000C990BC09790933504809384
:1013800034040E9427050F900F900F900F900F903C
:101390000F9080913604909137048330910509F4C1
:1013A00076C10CF043C08130910509F45BC002970F
:1013B00009F427C18CE00E94C20161E0892B09F089
:1013C00060E08CE00E94EB0129960FB6F894DEBF36
:1013D0000FBECDBFDF91CF911F910F91FF90EF9086
:1013E000DF90CF90BF90AF909F908F90089581E154
:1013F0000E945502892B09F02BCF80913B04882352
:1014000009F426CF10923B048DE992E01FCF4AE009
:101410000E94B4042DCF88EB94E00E94C80042CF14
:1014200011E06ECFC12CD12C760181CF8530910592
:1014300009F468C10CF441C1069709F0BBCF809153
:10144000340490913504009709F46DC1019709F4B3
:101450006DC18FE993E00E9419058091000191E030
:10146000892765C180E10E945502BC01990F880B54
:10147000990B0E942D106B017C01AC019B010E9415
:101480008C12811125C020E030E040E85AE3C7010A
:10149000B6010E948C1020E030E04AEF53E40E9435
:1014A0008C106B017C0181E093E00E94A704A701EE
:1014B0009601C701B6010E948C12882381F080E258
:1014C00093E00E94A70489E192E00E94A70472CFF2
:1014D000C12CD12C80E8E82E8FEBF82EE4CF46010A
:1014E0005701E894B7F82FEF3FEF4FE75FE7C501EB
:1014F000B4010E948C1281110DC02FEF3FEF4FE716
:101500005FE7C501B4010E94261018161CF484E29E
:1015100093E0D7CF2FEF3FEF4FE75FE4C701B6016E
:101520000E94871218161CF488E293E0CACF2FEFAE
:101530003FEF4FE75FECC701B6010E94261087FD21
:10154000F3CF20E030E0A901C701B6010E942610C8
:1015500087FF09C06DE288EB94E00E942C01F7FA46
:10156000F094F7F8F0942AE037ED43EA5BE3C70123
:10157000B6010E94E5114B015C010E9458126B01FB
:101580007C010E942B109B01AC01C501B4010E949B
:10159000E4114B015C014AE0C701B6010E94B404AA
:1015A0006EE288EB94E00E942C0120E030E040E203
:1015B00051E4C501B4010E948C104B015C010E94F2
:1015C00058126B01F12CE12C4AE0C701B6010E94D0
:1015D000B404C701B6010E942B109B01AC01C501E8
:1015E000B4010E94E41120E030E040E251E40E94A6
:1015F0008C100E94581290E080E04AE00E94B404EF
:1016000062CF64EF71E080E090E00E948F028091F1
:1016100074058B8381E092E09A83898380917505BC
:10162000909176059D838C838091770590917805C4
:10163000A0917905B0917A058E839F83A887B98799
:1016400060E174E0CE0101960E94B8056091240427
:101650007091250480912604909127040E945112D4
:101660008B01072E000C880B990B0E942D109B01FB
:10167000AC010E948C12882311F00FEF1FEF8CE257
:1016800093E00E94A704C8010E94270593CE809191
:101690003A04811106C080913B0409E712E08111F0
:1016A00002C003E712E088E493E00E94A704C801A7
:1016B0000E94190510923B047DCE809134049091D4
:1016C0003504009779F00197B1F087E00E94C201DC
:1016D00061E0892B09F060E087E00E94EB018FE771
:1016E00093E006C060E087E00E94EB0182E693E0B1
:1016F0000E9419055FCE61E087E00E94EB0181E75F
:1017000093E0F6CF8091B60481110AC08CE893E093
:101710000E94190581E08093B6040E9422084ACEF7
:101720001092B60447CE1092000144CE81E080931F
:10173000000140CE4F925F926F927F928F929F9264
:10174000AF92BF92FF920F931F93CF93DF93F82E28
:101750002A013B01C901B801A30192010E94911223
:1017600028EE33E040E050E00E944A1149015A015E
:1017700060E271EA87E090E0A30192010E944A11C1
:101780008901220F331F220F331FE9012597412CB6
:10179000512C3201481459046A047B04A4F583E0F7
:1017A0000E94C201892B99F41092B60482E692E05D
:1017B000DF91CF911F910F91FF90BF90AF909F90BD
:1017C0008F907F906F905F904F900C9419050E94BE
:1017D000FD0861E08F2D0E94EB010230110518F029
:1017E000CE010197F1F760E08F2D0E94EB010230EE
:1017F000110518F0CE010197F1F78FEF481A580A3A
:10180000680A780AC7CF60E08F2DDF91CF911F91D2
:101810000F91FF90BF90AF909F908F907F906F90AF
:101820005F904F900C94EB011F920F920FB60F92A6
:1018300011242F933F934F935F936F937F938F93D5
:101840009F93AF93BF93EF93FF9388EB94E00E9435
:101850000A01FF91EF91BF91AF919F918F917F917D
:101860006F915F914F913F912F910F900FBE0F900D
:101870001F9018951F920F920FB60F9211242F935D
:101880008F939F93EF93FF93E091C804F091C90465
:101890008081E091CE04F091CF0482FD1BC0908145
:1018A0008091D1048F5F8F732091D204821741F011
:1018B000E091D104F0E0E854FB4F958F8093D10480
:1018C000FF91EF919F918F912F910F900FBE0F90ED
:1018D0001F9018958081F4CF1F920F920FB60F9230
:1018E00011242F933F938F939F93AF93BF93809136
:1018F000AE049091AF04A091B004B091B1043091C6
:10190000AD0423E0230F2D3758F50196A11DB11D1D
:101910002093AD048093AE049093AF04A093B004E1
:10192000B093B1048091B2049091B304A091B40437
:10193000B091B5040196A11DB11D8093B20490939E
:10194000B304A093B404B093B504BF91AF919F9139
:101950008F913F912F910F900FBE0F901F90189570
:1019600026E8230F0296A11DB11DD2CF1F920F9220
:101970000FB60F9211242F933F934F935F936F9362
:101980007F938F939F93AF93BF93EF93FF93809138
:10199000B900887F803609F44AC0F0F5883209F42E
:1019A000A5C018F5803109F499C0B8F4882309F46A
:1019B000F5C0883009F492C0FF91EF91BF91AF91CB
:1019C0009F918F917F916F915F914F913F912F9157
:1019D0000F900FBE0F901F901895883109F486C0A4
:1019E000803251F78093860414C0803409F49BC080
:1019F00040F48033B9F38833F9F68093860485EC9C
:101A0000AEC0803509F483C0883509F494C08834A9
:101A100099F60E943F05D0CF883909F48AC038F57D
:101A2000883729F050F4883611F0803729F683E0A2
:101A3000809387041092850455C0883809F479C0D2
:101A4000803919F0803809F0B7CF80918504803251
:101A500008F06FC0E091850481E08E0F80938504CB
:101A60008091BB00F0E0EB59FB4F80833BC0803B93
:101A700039F0D0F4803A09F477C0883A09F09CCF65
:101A800084E0809387041092640410926304F0E071
:101A9000E0E009958091630481110FC081E080939B
:101AA00063041092430409C0803C09F4A8CF883C29
:101AB00009F4A5CF883B09F07FCFE091640481E071
:101AC0008E0F80936404F0E0ED5BFB4F8081809388
:101AD000BB00909164048091630429C08091AC04A0
:101AE0008093BB0085EC8093BC0066CF9091AB04E3
:101AF0008091AA04981758F5E091AB0481E08E0F0D
:101B00008093AB04F0E0E657FB4F8081E9CFE09192
:101B1000AB0481E08E0F8093AB048091BB00F0E0BA
:101B2000E657FB4F80839091AB048091AA049817ED
:101B3000C8F285E8D8CFE091AB0481E08E0F8093A6
:101B4000AB048091BB00F0E0E657FB4F80838091AF
:101B5000890481115ECF81E08093880484EA8093B8
:101B6000BC001092870428CF85EC8093BC001092B3
:101B7000870480918504803230F4E0918504F0E0A0
:101B8000EB59FB4F10826091850470E085E694E08C
:101B9000F0E0E0E00995109285040ECF10928604E3
:101BA00038CFE8EBF4E01382128288EE93E0A0E0F5
:101BB000B0E084839583A683B7838FEE91E0918311
:101BC000808385EC90E09587848784EC90E097870C
:101BD000868780EC90E0918B808B81EC90E0938BFA
:101BE000828B82EC90E0958B848B86EC90E0978BD7
:101BF000868B118E128E138E148EA5E5B5E084E0CF
:101C000015968C9315978BE016968C931697E2EBAE
:101C1000F0E0E4911796EC931797EEE9F0E0E49189
:101C20001896EC93189740E85EE360E070E01D962C
:101C30004D935D936D937C93509753968C935397EC
:101C40008FE092E055969C938E9354970A2E1B2E0C
:101C500058961C920E92112457974FEF5FEFBA01DE
:101C600059964D935D936D937C935C9781E092E0E0
:101C70005E969C938E935D970A2E1B2E91961C92D6
:101C80000E921124909792964D935D936D937C9351
:101C900095970895CF93DF93CDB7DEB7E1970FB651
:101CA000F894DEBF0FBECDBF789484B5826084BD4A
:101CB00084B5816084BD85B5826085BD85B5816050
:101CC00085BD80916E00816080936E0010928100CE
:101CD0008091810082608093810080918100816089
:101CE000809381008091800081608093800080914A
:101CF000B10084608093B1008091B00081608093D6
:101D0000B00080917A00846080937A0080917A009C
:101D1000826080937A0080917A00816080937A005B
:101D200080917A00806880937A001092C100E091DF
:101D3000C804F091C90482E08083E091C404F0916A
:101D4000C5041082E091C604F091C7048FEC808333
:101D50001092D004E091CC04F091CD0486E0808311
:101D6000E091CA04F091CB04808180618083E0918E
:101D7000CA04F091CB04808188608083E091CA041A
:101D8000F091CB04808180688083E091CA04F09157
:101D9000CB0480818F7D808380EB93E00E941905C6
:101DA00061E087E00E94190261E089E00E94190267
:101DB00061E08BE00E94190261E085E00E94190257
:101DC00061E083E00E94190260E081E10E94190253
:101DD00060E082E00E94190260E083E00E94190244
:101DE00061E08AE00E94190262E080915A050E9437
:101DF00019020E94C202605D7740810991096093D7
:101E00005E0570935F05809360059093610587E39D
:101E100080936705809174058BA781E092E09AA773
:101E200089A780917505909176059DA78CA78091D3
:101E3000770590917805A0917905B0917A058EA7E4
:101E40009FA7A8ABB9ABBE016F5F7F4FCE0189964C
:101E50000E9415071092B6048BEB93E00E94A70432
:101E60008FEC93E00E94190562E370E080E090E05F
:101E70000E948F02FF24F39400E010E0EE24E3942C
:101E800082E00E94C201892B31F5E092B7048DED0A
:101E900093E00E9419050E94FD088DE00E94C20196
:101EA00061E0892B09F060E08DE00E94EB0160E0C9
:101EB0008AE00E94EB0160E971E080E090E00E941E
:101EC0008F0201151105E1F20E94F6008823C1F28C
:101ED0000E940000D5CF82E00E94C2010197D9F68E
:101EE0008091B7048823B9F28091B6048F2580933E
:101EF000B60486EF93E00E9419050E942208109212
:101F0000B704C9CF8F929F92AF92BF92CF92DF92C8
:101F1000EF92FF92CF93DF93EC01688179818A8100
:101F20009B81611571058105910521F464E279EDCC
:101F30008BE597E02DE133EF41E050E00E944A113C
:101F400049015A019B01AC01A7EAB1E40E94691161
:101F50006B017C01ACEEB4EFA50194010E947711F6
:101F6000C60ED71EE81EF91EF7FE06C081E0C81A8D
:101F7000D108E10880E8F80AC882D982EA82FB82A7
:101F8000C701B6019F77DF91CF91FF90EF90DF906F
:101F9000CF90BF90AF909F908F9008958F929F9217
:101FA000AF92BF92CF92DF92EF92FF9260910101C8
:101FB00070910201809103019091040161157105F6
:101FC0008105910521F464E279ED8BE597E02DE13F
:101FD00033EF41E050E00E944A1149015A019B0150
:101FE000AC01A7EAB1E40E9469116B017C01ACEE7F
:101FF000B4EFA50194010E947711C60ED71EE81E0A
:10200000F91EF7FE06C081E0C81AD108E10880E891
:10201000F80AC0920101D0920201E0920301F0920D
:102020000401C701B6019F77FF90EF90DF90CF903A
:10203000BF90AF909F908F9008956093010170932F
:102040000201809303019093040108950E94681097
:1020500008F481E00895E89409C097FB3EF4909558
:102060008095709561957F4F8F4F9F4F9923A9F071
:10207000F92F96E9BB279395F69587957795679500
:10208000B795F111F8CFFAF4BB0F11F460FF1BC044
:102090006F5F7F4F8F4F9F4F16C0882311F096E9D7
:1020A00011C0772321F09EE8872F762F05C0662385
:1020B00071F096E8862F70E060E02AF09A95660F3E
:1020C000771F881FDAF7880F9695879597F90895F7
:1020D000990F0008550FAA0BE0E8FEEF1616170639
:1020E000E807F907C0F012161306E407F50798F0A1
:1020F000621B730B840B950B39F40A2661F0232BBA
:10210000242B252B21F408950A2609F4A140A69535
:102110008FEF811D811D08950E949F100C94101156
:102120000E94021138F00E94091120F0952311F04D
:102130000C94F9100C94FF1011240C9444110E947B
:10214000211170F3959FC1F3950F50E0551F629FC9
:10215000F001729FBB27F00DB11D639FAA27F00D00
:10216000B11DAA1F649F6627B00DA11D661F829F27
:102170002227B00DA11D621F739FB00DA11D621F0C
:10218000839FA00D611D221F749F3327A00D611D29
:10219000231F849F600D211D822F762F6A2F11240B
:1021A0009F5750409AF0F1F088234AF0EE0FFF1F3E
:1021B000BB1F661F771F881F91505040A9F79E3F95
:1021C000510580F00C94F9100C9444115F3FE4F336
:1021D000983ED4F3869577956795B795F795E795EB
:1021E0009F5FC1F7FE2B880F911D9695879597F9F4
:1021F000089597F99F6780E870E060E008959FEF89
:1022000080EC089500240A9416161706180609068D
:10221000089500240A94121613061406050608955C
:10222000092E0394000C11F4882352F0BB0F40F4E4
:10223000BF2B11F460FF04C06F5F7F4F8F4F9F4F24
:10224000089557FD9058440F551F59F05F3F71F0A6
:102250004795880F97FB991F61F09F3F79F087950D
:102260000895121613061406551FF2CF4695F1DF96
:1022700008C0161617061806991FF1CF8695710526
:10228000610508940895E894BB2766277727CB015A
:1022900097F90895052E97FB1EF400940E94611192
:1022A00057FD07D00E94B31107FC03D04EF40C94E5
:1022B000611150954095309521953F4F4F4F5F4F9D
:1022C000089590958095709561957F4F8F4F9F4FA2
:1022D00008950E94D511A59F900DB49F900DA49FC5
:1022E000800D911D11240895B7FF0C9469110E946F
:1022F0006911821B930B08952F923F924F925F9228
:102300006F927F928F929F92AF92BF92CF92DF9205
:10231000EF92FF920F931F93CF93DF93CDB7DEB76A
:10232000CA1BDB0B0FB6F894DEBF0FBECDBF0994FE
:102330002A88398848885F846E847D848C849B8455
:10234000AA84B984C884DF80EE80FD800C811B8163
:10235000AA81B981CE0FD11D0FB6F894DEBF0FBE92
:10236000CDBFED010895A1E21A2EAA1BBB1BFD01F2
:102370000DC0AA1FBB1FEE1FFF1FA217B307E40764
:10238000F50720F0A21BB30BE40BF50B661F771FBC
:10239000881F991F1A9469F760957095809590959C
:1023A0009B01AC01BD01CF010895A29FB001B39F75
:1023B000C001A39F700D811D1124911DB29F700D4E
:1023C000811D1124911D08955058BB27AA270E94F2
:1023D000FC110C9410110E94021138F00E94091196
:1023E00020F039F49F3F19F426F40C94FF100EF4FA
:1023F000E095E7FB0C94F910E92F0E94211158F3A6
:10240000BA17620773078407950720F079F4A6F5D9
:102410000C9443110EF4E0950B2EBA2FA02D0B0156
:10242000B90190010C01CA01A0011124FF27591B19
:1024300099F0593F50F4503E68F11A16F040A22F1F
:10244000232F342F4427585FF3CF46953795279590
:10245000A795F0405395C9F77EF41F16BA0B620B8F
:10246000730B840BBAF09150A1F0FF0FBB1F661FD6
:10247000771F881FC2F70EC0BA0F621F731F841F19
:1024800048F4879577956795B795F7959E3F08F03F
:10249000B0CF9395880F08F09927EE0F9795879501
:1024A00008950E9458126894B1110C944411089533
:1024B0000E94291188F09F5798F0B92F9927B7519A
:1024C000B0F0E1F0660F771F881F991F1AF0BA95D8
:1024D000C9F714C0B13091F00E944311B1E00895E2
:1024E0000C944311672F782F8827B85F39F0B93FD4
:1024F000CCF3869577956795B395D9F73EF490958B
:102500008095709561957F4F8F4F9F4F08950E94E2
:10251000681008F48FEF08950E946810880B990BDB
:102520000895DB018F939F930E946911BF91AF9132
:10253000A29F800D911DA39F900DB29F900D11241D
:10254000089597FB072E16F4009407D077FD09D065
:102550000E94B51207FC05D03EF4909581959F4FDF
:102560000895709561957F4F0895AA1BBB1B51E19B
:1025700007C0AA1FBB1FA617B70710F0A61BB70BF3
:10258000881F991F5A95A9F780959095BC01CD0198
:102590000895EE0FFF1F0590F491E02D09940F931D
:1025A0001F93CF93DF938230910510F482E090E087
:1025B000E0917D05F0917E0530E020E0B0E0A0E004
:1025C000309799F42115310509F44AC0281B390BBD
:1025D00024303105D8F58A819B816115710589F117
:1025E000FB0193838283FE0111C0408151810281EE
:1025F000138148175907E0F04817590799F41097C5
:1026000061F012960C93129713961C933296CF0199
:10261000DF91CF911F910F91089500937D05109345
:102620007E05F4CF2115310551F04217530738F0DC
:10263000A901DB019A01BD01DF01F801C1CFEF0162
:10264000F9CF90937E0580937D05CDCFFE01E20FFB
:10265000F31F819391932250310939832883D7CF77
:1026600020917B0530917C05232B41F420910701BB
:102670003091080130937C0520937B052091050162
:10268000309106012115310541F42DB73EB7409137
:10269000090150910A01241B350BE0917B05F09153
:1026A0007C05E217F307A0F42E1B3F0B2817390710
:1026B00078F0AC014E5F5F4F2417350748F04E0F9E
:1026C0005F1F50937C0540937B05819391939FCF2F
:1026D000F0E0E0E09CCFCF93DF930097E9F0FC01BE
:1026E000329713821282A0917D05B0917E05ED0193
:1026F00030E020E01097A1F420813181820F931FF8
:1027000020917B0530917C052817390709F061C0BD
:10271000F0937C05E0937B05DF91CF910895EA016A
:10272000CE17DF07E8F54A815B819E01411551050F
:10273000B1F7E901FB83EA8349915991C40FD51F91
:10274000EC17FD0761F4808191810296840F951F3B
:10275000E90199838883828193819B838A83F0E056
:10276000E0E012968D919C9113970097B9F52D9109
:102770003C911197CD010296820F931F20917B050A
:1027800030917C052817390739F6309751F51092AA
:102790007E0510927D05B0937C05A0937B05BCCF90
:1027A000D383C28340815181840F951FC817D907F5
:1027B00061F44E5F5F4F88819981480F591F5183A3
:1027C00040838A819B81938382832115310509F09F
:1027D000B0CFF0937E05E0937D059ECFFD01DC0137
:1027E000C0CF13821282D7CFFB01DC014150504091
:1027F00048F001900D920020C9F701C01D92415090
:102800005040E0F70895AEE0B0E0E9E0F4E10C9468
:102810008A110D891E8986E08C831A8309838FEFC4
:102820009FE79E838D83AE01475E5F4F6F89788DF2
:10283000CE0101960E9426142F813885020F131FA6
:10284000F80110822E96E4E00C94A611ABE0B0E003
:10285000ECE2F4E10C947C117C013B018A01FC0167
:1028600017821682838181FFC8C1CE0101965C0167
:10287000F7019381F30193FD859193FF81913F01CE
:10288000882309F453C1853239F493FD859193FF70
:1028900081913F01853229F4B70190E00E9416161C
:1028A000E7CF912C212C312CFFE1F31538F08B323E
:1028B00011F190F4803209F1833229F137FC3CC0E8
:1028C00020ED280F2A3050F536FE20C08AE0989E71
:1028D000200D1124922E06C08D3291F0803371F7B5
:1028E000689430F8F30193FD859193FF81913F0146
:1028F0008111DACF21C0689431F8689432F8F2CFB0
:10290000689433F8EFCF689434F8ECCFEAE02E9E69
:10291000200D1124222E689435F8E4CF8E3229F44C
:1029200036FC04C1689436F8DDCF8C3619F468940F
:1029300037F8D8CF8836B1F2982F9F7D95549330D1
:10294000E0F08336A1F18337C1F1833509F063C02C
:102950002801F2E04F0E511CF801C080D180692D92
:1029600070E036FC02C06FEF7FEFC6010E940016D8
:102970004C01689437F882010AC00C5F1F4FFFE3D7
:10298000F98388248394912C6501E89437F833FE09
:102990002DC0522C8114910471F5552009F468CF93
:1029A000B70180E290E00E9416165A94F6CFF80123
:1029B000808189830E5F1F4FE4CF2801F2E04F0E24
:1029C000511CF801C080D180692D70E036FC02C036
:1029D0006FEF7FEFC6010E940B164C018201D5CF2D
:1029E000B70180E290E00E9416162A942814190478
:1029F00009F0B0F7CECFF60137FC859137FE819113
:102A00006F01B70190E00E94161651105A94F1E040
:102A10008F1A9108BFCF843619F0893609F077C034
:102A2000F80137FE6BC060817181828193810C5FF8
:102A30001F4FF32DFF763F2E97FF09C0909580958D
:102A4000709561957F4F8F4F9F4F689437F82AE0BC
:102A500030E0A5010E944616C82ECA188C2C432CC3
:102A600036FE0CC0E89440F8C91440F434FE05C0AA
:102A700032FC03C0F32DFE7E4F2E892C44FE95C000
:102A8000FE01EC0DF11D8081803309F087C0242DFB
:102A9000297E422E842D8870582E43FC95C040FE1E
:102AA0008FC09C2C821418F42C0C922C981844FE85
:102AB00091C0B70180E390E00E94161642FE09C063
:102AC00088E790E041FE02C088E590E0B7010E94EF
:102AD0001616C91408F48AC0CA94D12C9FEFC91ADB
:102AE000D90ACA0CDB1CF60182916F01B70190E094
:102AF0000E941616AC14BD04B1F74FCF60817181EE
:102B0000072E000C880B990B0E5F1F4F92CFD32C12
:102B1000E894D4F82AE030E0853739F1232D297F75
:102B2000D22E8F3601F148F48835A9F0F70186815D
:102B300097812B96E2E10C949811803749F0883701
:102B4000A9F7D4FE02C06894D2F820E130E00DC0AD
:102B50006894D4F8F6CF34FE03C0822F8660D82E56
:102B600020E132E002C028E030E0F801D7FE0FC0DB
:102B700060817181828193810C5F1F4FA5010E944A
:102B80004616C82ECA183D2CE89437F867CF6081E6
:102B9000718190E080E00E5F1F4FF0CF42FC02C0D9
:102BA000839478CF8394839475CF842D867809F4A9
:102BB00071CFF6CFB70180E290E00E9416168394A1
:102BC0008214C0F3512C73CF522C5818821408F47D
:102BD0006ECFF8CF842D867809F47BCF8BE241FE4F
:102BE00080E247FC8DE2B70190E071CFB70180E34E
:102BF00090E00E9416169A946CCF8FEF9FEF99CFBA
:102C0000FC010590615070400110D8F780959095B7
:102C10008E0F9F1F0895FC016150704001900110BC
:102C2000D8F7809590958E0F9F1F08950F931F934F
:102C3000CF93DF93182F092FEB018B8181FD09C002
:102C40001FEF0FEF812F902FDF91CF911F910F91E9
:102C5000089582FF14C02E813F818C819D812817A9
:102C600039073CF4E881F981CF0101969983888383
:102C700010838E819F8101969F838E83E3CFE885A9
:102C8000F985812F0995892BA1F3DACFFA01AA27BB
:102C9000283051F1203181F1E8946F936E7F6E5F9F
:102CA0007F4F8F4F9F4FAF4FB1E03ED0B4E03CD04D
:102CB000670F781F891F9A1FA11D680F791F8A1F30
:102CC000911DA11D6A0F711D811D911DA11D20D097
:102CD00009F468943F912AE0269F11243019305D51
:102CE0003193DEF6CF010895462F4770405D419342
:102CF000B3E00FD0C9F7F6CF462F4F70405D4A338F
:102D000018F0495D31FD4052419302D0A9F7EACF56
:102D1000B4E0A6959795879577956795BA95C9F785
:102D200000976105710508959B01AC010A2E069478
:102D30005795479537952795BA95C9F7620F731F31
:102D4000841F951FA01D0895F894FFCF0101000076
:102D50000000007F05800006010B02DC00B801E9DD
:102D600000D2010000000006010B02DC00B801E9FE
:102D700000D20100000000AF005D01930026019C1D
:102D800000370100000000AF005D01930026019CA8
:102D90000037010000000037011501260115013739
:102DA000013701D000C4001501060172015D01A5C3
:102DB00000D201B8019F013701F700E900DC00D023
:102DC000000000000000000C000C000C000C000CC7
:102DD000000C00060003000C000C000C000C000CA2
:102DE000000C00060003000C000C000C000C000C92
:102DF000000C00060003000C000C000C000C000C82
:102E0000000C000600060012001200120006000668
:102E10000006000600060006001200120012001252
:102E200000120012000A000A000A000A000A000A42
:102E300000030003000300000000002C018C00B917
:102E4000007901EA00C800DC00000000005403B46F
:102E500005A604B8051507000000005403B605A632
:102E600004380691070D0A004448543131004448A3
:102E70005431320044485432310044485432320014
:102E80004448543F00736F756E6420616C61726DCD
:102E9000206E6F742074727565002027556E64650E
:102EA00072776F726C64205468656D652700616C81
:102EB00061726D20666F7263652073746F70004677
:102EC000616C736500547275650072656164696E4A
:102ED000672073657269616C006D6F74696F6E2035
:102EE0006465746563746564006D6F74696F6E20EA
:102EF0006E6F7420646574656374656400616E61EF
:102F00006C6F6720726561643A20002073656E7390
:102F10006F722073746174653A2000737461727407
:102F2000696E6720746F20726561642073657269D1
:102F3000616C002564000A53657269616C206973D5
:102F400020617661696C61626C653A20006D79740C
:102F5000656D706572617475726573656E736F729D
:102F60003B70726F7065727479323A006E616E00F8
:102F7000696E66006F7666006D7968756D69646963
:102F8000747973656E736F723B70726F7065727473
:102F900079323A006D796D6F74696F6E73656E7317
:102FA0006F723B70726F7065727479323A0074752B
:102FB000726E206F6666206C696768740074757243
:102FC0006E206F6E206C6967687400746F67676C41
:102FD00065206C6967687400746F67676C6520733F
:102FE0006F756E6420616C61726D00746F67676CE1
:102FF000652061776179206D6F646500696D207768
:103000006F726B696E670063616C6962726174698B
:103010006E672073656E736F72200053454E534F79
:103020005220414354495645004920616D20646552
:103030007465637465642061732070726573736571
:1030400044004920616D2064657465637465642083
:0C30500061732072656C6561736564003B
:107E0000112484B714BE81FFF0D085E080938100F7
:107E100082E08093C00088E18093C10086E0809377
:107E2000C20080E18093C4008EE0C9D0259A86E02C
:107E300020E33CEF91E0309385002093840096BBD3
:107E4000B09BFECF1D9AA8958150A9F7CC24DD24C4
:107E500088248394B5E0AB2EA1E19A2EF3E0BF2EE7
:107E6000A2D0813461F49FD0082FAFD0023811F036
:107E7000013811F484E001C083E08DD089C08234E0
:107E800011F484E103C0853419F485E0A6D080C0E4
:107E9000853579F488D0E82EFF2485D0082F10E0AE
:107EA000102F00270E291F29000F111F8ED06801E7
:107EB0006FC0863521F484E090D080E0DECF843638
:107EC00009F040C070D06FD0082F6DD080E0C81688
:107ED00080E7D80618F4F601B7BEE895C0E0D1E017
:107EE00062D089930C17E1F7F0E0CF16F0E7DF06D8
:107EF00018F0F601B7BEE89568D007B600FCFDCFD4
:107F0000A601A0E0B1E02C9130E011968C91119780
:107F100090E0982F8827822B932B1296FA010C0160
:107F200087BEE89511244E5F5F4FF1E0A038BF0790
:107F300051F7F601A7BEE89507B600FCFDCF97BE46
:107F4000E89526C08437B1F42ED02DD0F82E2BD052
:107F50003CD0F601EF2C8F010F5F1F4F84911BD097
:107F6000EA94F801C1F70894C11CD11CFA94CF0C13
:107F7000D11C0EC0853739F428D08EE10CD085E9AC
:107F80000AD08FE07ACF813511F488E018D01DD067
:107F900080E101D065CF982F8091C00085FFFCCF94
:107FA0009093C60008958091C00087FFFCCF809118
:107FB000C00084FD01C0A8958091C6000895E0E648
:107FC000F0E098E1908380830895EDDF803219F02E
:107FD00088E0F5DFFFCF84E1DECF1F93182FE3DFCA
:107FE0001150E9F7F2DF1F91089580E0E8DFEE27F6
:047FF000FF270994CA
:027FFE00040479
:00000001FF
